{
  "contractName": "OrderContract",
  "abi": [
    {
      "anonymous": false,
      "inputs": [
        {
          "indexed": false,
          "internalType": "uint256",
          "name": "orderId",
          "type": "uint256"
        },
        {
          "indexed": false,
          "internalType": "address",
          "name": "distributor",
          "type": "address"
        }
      ],
      "name": "DistributorAssigned",
      "type": "event"
    },
    {
      "anonymous": false,
      "inputs": [
        {
          "indexed": false,
          "internalType": "uint256",
          "name": "orderId",
          "type": "uint256"
        },
        {
          "indexed": false,
          "internalType": "string",
          "name": "newStatus",
          "type": "string"
        }
      ],
      "name": "OrderStatusUpdated",
      "type": "event"
    },
    {
      "inputs": [],
      "name": "orderCounter",
      "outputs": [
        {
          "internalType": "uint256",
          "name": "",
          "type": "uint256"
        }
      ],
      "stateMutability": "view",
      "type": "function",
      "constant": true
    },
    {
      "inputs": [
        {
          "internalType": "uint256",
          "name": "",
          "type": "uint256"
        }
      ],
      "name": "orders",
      "outputs": [
        {
          "internalType": "uint256",
          "name": "orderId",
          "type": "uint256"
        },
        {
          "internalType": "address",
          "name": "retailer",
          "type": "address"
        },
        {
          "internalType": "address",
          "name": "manufacturer",
          "type": "address"
        },
        {
          "internalType": "uint256",
          "name": "productId",
          "type": "uint256"
        },
        {
          "internalType": "uint256",
          "name": "quantity",
          "type": "uint256"
        },
        {
          "internalType": "uint256",
          "name": "price",
          "type": "uint256"
        },
        {
          "components": [
            {
              "internalType": "string",
              "name": "deliveryDate",
              "type": "string"
            },
            {
              "internalType": "string",
              "name": "deliveryTime",
              "type": "string"
            },
            {
              "internalType": "string",
              "name": "shippingAddress",
              "type": "string"
            }
          ],
          "internalType": "struct OrderContract.DeliveryInfo",
          "name": "deliveryInfo",
          "type": "tuple"
        },
        {
          "internalType": "string",
          "name": "status",
          "type": "string"
        },
        {
          "internalType": "address",
          "name": "distributor",
          "type": "address"
        },
        {
          "internalType": "uint256",
          "name": "temperature",
          "type": "uint256"
        },
        {
          "internalType": "string",
          "name": "orderHistory",
          "type": "string"
        }
      ],
      "stateMutability": "view",
      "type": "function",
      "constant": true
    },
    {
      "inputs": [
        {
          "internalType": "uint256",
          "name": "_productId",
          "type": "uint256"
        },
        {
          "internalType": "uint256",
          "name": "_quantity",
          "type": "uint256"
        },
        {
          "internalType": "address",
          "name": "_manufacturer",
          "type": "address"
        },
        {
          "internalType": "string",
          "name": "_deliveryDate",
          "type": "string"
        },
        {
          "internalType": "string",
          "name": "_deliveryTime",
          "type": "string"
        },
        {
          "internalType": "string",
          "name": "_shippingAddress",
          "type": "string"
        },
        {
          "internalType": "uint256",
          "name": "_productPrice",
          "type": "uint256"
        }
      ],
      "name": "createOrder",
      "outputs": [],
      "stateMutability": "nonpayable",
      "type": "function"
    },
    {
      "inputs": [
        {
          "internalType": "uint256",
          "name": "_orderId",
          "type": "uint256"
        },
        {
          "internalType": "string",
          "name": "_newStatus",
          "type": "string"
        }
      ],
      "name": "updateOrderStatus",
      "outputs": [],
      "stateMutability": "nonpayable",
      "type": "function"
    },
    {
      "inputs": [
        {
          "internalType": "uint256",
          "name": "_orderId",
          "type": "uint256"
        },
        {
          "internalType": "address",
          "name": "_distributor",
          "type": "address"
        }
      ],
      "name": "assignDistributor",
      "outputs": [],
      "stateMutability": "nonpayable",
      "type": "function"
    },
    {
      "inputs": [
        {
          "internalType": "uint256",
          "name": "_orderId",
          "type": "uint256"
        }
      ],
      "name": "cancelOrder",
      "outputs": [],
      "stateMutability": "nonpayable",
      "type": "function"
    },
    {
      "inputs": [
        {
          "internalType": "address",
          "name": "_manufacturer",
          "type": "address"
        }
      ],
      "name": "getOrdersByManufacturer",
      "outputs": [
        {
          "components": [
            {
              "internalType": "uint256",
              "name": "orderId",
              "type": "uint256"
            },
            {
              "internalType": "address",
              "name": "retailer",
              "type": "address"
            },
            {
              "internalType": "address",
              "name": "manufacturer",
              "type": "address"
            },
            {
              "internalType": "uint256",
              "name": "productId",
              "type": "uint256"
            },
            {
              "internalType": "uint256",
              "name": "quantity",
              "type": "uint256"
            },
            {
              "internalType": "uint256",
              "name": "price",
              "type": "uint256"
            },
            {
              "components": [
                {
                  "internalType": "string",
                  "name": "deliveryDate",
                  "type": "string"
                },
                {
                  "internalType": "string",
                  "name": "deliveryTime",
                  "type": "string"
                },
                {
                  "internalType": "string",
                  "name": "shippingAddress",
                  "type": "string"
                }
              ],
              "internalType": "struct OrderContract.DeliveryInfo",
              "name": "deliveryInfo",
              "type": "tuple"
            },
            {
              "internalType": "string",
              "name": "status",
              "type": "string"
            },
            {
              "internalType": "address",
              "name": "distributor",
              "type": "address"
            },
            {
              "internalType": "uint256",
              "name": "temperature",
              "type": "uint256"
            },
            {
              "internalType": "string",
              "name": "orderHistory",
              "type": "string"
            }
          ],
          "internalType": "struct OrderContract.Order[]",
          "name": "",
          "type": "tuple[]"
        }
      ],
      "stateMutability": "view",
      "type": "function",
      "constant": true
    },
    {
      "inputs": [],
      "name": "getAllOrders",
      "outputs": [
        {
          "components": [
            {
              "internalType": "uint256",
              "name": "orderId",
              "type": "uint256"
            },
            {
              "internalType": "address",
              "name": "retailer",
              "type": "address"
            },
            {
              "internalType": "address",
              "name": "manufacturer",
              "type": "address"
            },
            {
              "internalType": "uint256",
              "name": "productId",
              "type": "uint256"
            },
            {
              "internalType": "uint256",
              "name": "quantity",
              "type": "uint256"
            },
            {
              "internalType": "uint256",
              "name": "price",
              "type": "uint256"
            },
            {
              "components": [
                {
                  "internalType": "string",
                  "name": "deliveryDate",
                  "type": "string"
                },
                {
                  "internalType": "string",
                  "name": "deliveryTime",
                  "type": "string"
                },
                {
                  "internalType": "string",
                  "name": "shippingAddress",
                  "type": "string"
                }
              ],
              "internalType": "struct OrderContract.DeliveryInfo",
              "name": "deliveryInfo",
              "type": "tuple"
            },
            {
              "internalType": "string",
              "name": "status",
              "type": "string"
            },
            {
              "internalType": "address",
              "name": "distributor",
              "type": "address"
            },
            {
              "internalType": "uint256",
              "name": "temperature",
              "type": "uint256"
            },
            {
              "internalType": "string",
              "name": "orderHistory",
              "type": "string"
            }
          ],
          "internalType": "struct OrderContract.Order[]",
          "name": "",
          "type": "tuple[]"
        }
      ],
      "stateMutability": "view",
      "type": "function",
      "constant": true
    },
    {
      "inputs": [
        {
          "internalType": "address",
          "name": "_distributor",
          "type": "address"
        }
      ],
      "name": "getOrdersByDistributor",
      "outputs": [
        {
          "components": [
            {
              "internalType": "uint256",
              "name": "orderId",
              "type": "uint256"
            },
            {
              "internalType": "address",
              "name": "retailer",
              "type": "address"
            },
            {
              "internalType": "address",
              "name": "manufacturer",
              "type": "address"
            },
            {
              "internalType": "uint256",
              "name": "productId",
              "type": "uint256"
            },
            {
              "internalType": "uint256",
              "name": "quantity",
              "type": "uint256"
            },
            {
              "internalType": "uint256",
              "name": "price",
              "type": "uint256"
            },
            {
              "components": [
                {
                  "internalType": "string",
                  "name": "deliveryDate",
                  "type": "string"
                },
                {
                  "internalType": "string",
                  "name": "deliveryTime",
                  "type": "string"
                },
                {
                  "internalType": "string",
                  "name": "shippingAddress",
                  "type": "string"
                }
              ],
              "internalType": "struct OrderContract.DeliveryInfo",
              "name": "deliveryInfo",
              "type": "tuple"
            },
            {
              "internalType": "string",
              "name": "status",
              "type": "string"
            },
            {
              "internalType": "address",
              "name": "distributor",
              "type": "address"
            },
            {
              "internalType": "uint256",
              "name": "temperature",
              "type": "uint256"
            },
            {
              "internalType": "string",
              "name": "orderHistory",
              "type": "string"
            }
          ],
          "internalType": "struct OrderContract.Order[]",
          "name": "",
          "type": "tuple[]"
        }
      ],
      "stateMutability": "view",
      "type": "function",
      "constant": true
    }
  ],
  "bytecode": "0x6080604052600060015534801561001557600080fd5b5061359c806100256000396000f3fe608060405234801561001057600080fd5b50600436106100935760003560e01c80637bea0d1c116100665780637bea0d1c14610130578063a85c38ef1461014e578063a864ca6114610188578063aa9a533f146101a4578063b789bf52146101c057610093565b8063205fdde61461009857806332eb9b4b146100b45780634ecf93f9146100e4578063514fcac714610114575b600080fd5b6100b260048036038101906100ad91906124ea565b6101de565b005b6100ce60048036038101906100c9919061245c565b61031a565b6040516100db9190612cbc565b60405180910390f35b6100fe60048036038101906100f9919061245c565b610a05565b60405161010b9190612cbc565b60405180910390f35b61012e60048036038101906101299190612485565b6110f0565b005b61013861125c565b6040516101459190612cbc565b60405180910390f35b61016860048036038101906101639190612485565b6116de565b60405161017f9b9a99989796959493929190612d62565b60405180910390f35b6101a2600480360381019061019d919061253e565b611a78565b005b6101be60048036038101906101b991906124ae565b611d98565b005b6101c8611fe3565b6040516101d59190612d1e565b60405180910390f35b6000821180156101f057506001548211155b61022f576040517f08c379a000000000000000000000000000000000000000000000000000000000815260040161022690612cfe565b60405180910390fd5b60008060018461023f919061328a565b81548110610276577f4e487b7100000000000000000000000000000000000000000000000000000000600052603260045260246000fd5b90600052602060002090600d020190508181600901908051906020019061029e929190612264565b5080600c01826040516020016102b5929190612c56565b60405160208183030381529060405281600c0190805190602001906102db929190612264565b507f69cc2ff377f3eb15084b7510fd6ee5543db4f1e15b8385d9f0c804cbe9edd0fc838360405161030d929190612e22565b60405180910390a1505050565b60606000805b6000805490508110156103ee578373ffffffffffffffffffffffffffffffffffffffff166000828154811061037e577f4e487b7100000000000000000000000000000000000000000000000000000000600052603260045260246000fd5b90600052602060002090600d0201600a0160009054906101000a900473ffffffffffffffffffffffffffffffffffffffff1673ffffffffffffffffffffffffffffffffffffffff1614156103db5781806103d7906133af565b9250505b80806103e6906133af565b915050610320565b5060008167ffffffffffffffff811115610431577f4e487b7100000000000000000000000000000000000000000000000000000000600052604160045260246000fd5b60405190808252806020026020018201604052801561046a57816020015b6104576122ea565b81526020019060019003908161044f5790505b5090506000805b6000805490508110156109f9578573ffffffffffffffffffffffffffffffffffffffff16600082815481106104cf577f4e487b7100000000000000000000000000000000000000000000000000000000600052603260045260246000fd5b90600052602060002090600d0201600a0160009054906101000a900473ffffffffffffffffffffffffffffffffffffffff1673ffffffffffffffffffffffffffffffffffffffff1614156109e65760008181548110610557577f4e487b7100000000000000000000000000000000000000000000000000000000600052603260045260246000fd5b90600052602060002090600d020160405180610160016040529081600082015481526020016001820160009054906101000a900473ffffffffffffffffffffffffffffffffffffffff1673ffffffffffffffffffffffffffffffffffffffff1673ffffffffffffffffffffffffffffffffffffffff1681526020016002820160009054906101000a900473ffffffffffffffffffffffffffffffffffffffff1673ffffffffffffffffffffffffffffffffffffffff1673ffffffffffffffffffffffffffffffffffffffff168152602001600382015481526020016004820154815260200160058201548152602001600682016040518060600160405290816000820180546106659061337d565b80601f01602080910402602001604051908101604052809291908181526020018280546106919061337d565b80156106de5780601f106106b3576101008083540402835291602001916106de565b820191906000526020600020905b8154815290600101906020018083116106c157829003601f168201915b505050505081526020016001820180546106f79061337d565b80601f01602080910402602001604051908101604052809291908181526020018280546107239061337d565b80156107705780601f1061074557610100808354040283529160200191610770565b820191906000526020600020905b81548152906001019060200180831161075357829003601f168201915b505050505081526020016002820180546107899061337d565b80601f01602080910402602001604051908101604052809291908181526020018280546107b59061337d565b80156108025780601f106107d757610100808354040283529160200191610802565b820191906000526020600020905b8154815290600101906020018083116107e557829003601f168201915b505050505081525050815260200160098201805461081f9061337d565b80601f016020809104026020016040519081016040528092919081815260200182805461084b9061337d565b80156108985780601f1061086d57610100808354040283529160200191610898565b820191906000526020600020905b81548152906001019060200180831161087b57829003601f168201915b50505050508152602001600a820160009054906101000a900473ffffffffffffffffffffffffffffffffffffffff1673ffffffffffffffffffffffffffffffffffffffff1673ffffffffffffffffffffffffffffffffffffffff168152602001600b8201548152602001600c820180546109119061337d565b80601f016020809104026020016040519081016040528092919081815260200182805461093d9061337d565b801561098a5780601f1061095f5761010080835404028352916020019161098a565b820191906000526020600020905b81548152906001019060200180831161096d57829003601f168201915b5050505050815250508383815181106109cc577f4e487b7100000000000000000000000000000000000000000000000000000000600052603260045260246000fd5b602002602001018190525081806109e2906133af565b9250505b80806109f1906133af565b915050610471565b50819350505050919050565b60606000805b600080549050811015610ad9578373ffffffffffffffffffffffffffffffffffffffff1660008281548110610a69577f4e487b7100000000000000000000000000000000000000000000000000000000600052603260045260246000fd5b90600052602060002090600d020160020160009054906101000a900473ffffffffffffffffffffffffffffffffffffffff1673ffffffffffffffffffffffffffffffffffffffff161415610ac6578180610ac2906133af565b9250505b8080610ad1906133af565b915050610a0b565b5060008167ffffffffffffffff811115610b1c577f4e487b7100000000000000000000000000000000000000000000000000000000600052604160045260246000fd5b604051908082528060200260200182016040528015610b5557816020015b610b426122ea565b815260200190600190039081610b3a5790505b5090506000805b6000805490508110156110e4578573ffffffffffffffffffffffffffffffffffffffff1660008281548110610bba577f4e487b7100000000000000000000000000000000000000000000000000000000600052603260045260246000fd5b90600052602060002090600d020160020160009054906101000a900473ffffffffffffffffffffffffffffffffffffffff1673ffffffffffffffffffffffffffffffffffffffff1614156110d15760008181548110610c42577f4e487b7100000000000000000000000000000000000000000000000000000000600052603260045260246000fd5b90600052602060002090600d020160405180610160016040529081600082015481526020016001820160009054906101000a900473ffffffffffffffffffffffffffffffffffffffff1673ffffffffffffffffffffffffffffffffffffffff1673ffffffffffffffffffffffffffffffffffffffff1681526020016002820160009054906101000a900473ffffffffffffffffffffffffffffffffffffffff1673ffffffffffffffffffffffffffffffffffffffff1673ffffffffffffffffffffffffffffffffffffffff16815260200160038201548152602001600482015481526020016005820154815260200160068201604051806060016040529081600082018054610d509061337d565b80601f0160208091040260200160405190810160405280929190818152602001828054610d7c9061337d565b8015610dc95780601f10610d9e57610100808354040283529160200191610dc9565b820191906000526020600020905b815481529060010190602001808311610dac57829003601f168201915b50505050508152602001600182018054610de29061337d565b80601f0160208091040260200160405190810160405280929190818152602001828054610e0e9061337d565b8015610e5b5780601f10610e3057610100808354040283529160200191610e5b565b820191906000526020600020905b815481529060010190602001808311610e3e57829003601f168201915b50505050508152602001600282018054610e749061337d565b80601f0160208091040260200160405190810160405280929190818152602001828054610ea09061337d565b8015610eed5780601f10610ec257610100808354040283529160200191610eed565b820191906000526020600020905b815481529060010190602001808311610ed057829003601f168201915b5050505050815250508152602001600982018054610f0a9061337d565b80601f0160208091040260200160405190810160405280929190818152602001828054610f369061337d565b8015610f835780601f10610f5857610100808354040283529160200191610f83565b820191906000526020600020905b815481529060010190602001808311610f6657829003601f168201915b50505050508152602001600a820160009054906101000a900473ffffffffffffffffffffffffffffffffffffffff1673ffffffffffffffffffffffffffffffffffffffff1673ffffffffffffffffffffffffffffffffffffffff168152602001600b8201548152602001600c82018054610ffc9061337d565b80601f01602080910402602001604051908101604052809291908181526020018280546110289061337d565b80156110755780601f1061104a57610100808354040283529160200191611075565b820191906000526020600020905b81548152906001019060200180831161105857829003601f168201915b5050505050815250508383815181106110b7577f4e487b7100000000000000000000000000000000000000000000000000000000600052603260045260246000fd5b602002602001018190525081806110cd906133af565b9250505b80806110dc906133af565b915050610b5c565b50819350505050919050565b60008111801561110257506001548111155b611141576040517f08c379a000000000000000000000000000000000000000000000000000000000815260040161113890612cfe565b60405180910390fd5b600080600183611151919061328a565b81548110611188577f4e487b7100000000000000000000000000000000000000000000000000000000600052603260045260246000fd5b90600052602060002090600d020190506040518060400160405280600881526020017f43616e63656c65640000000000000000000000000000000000000000000000008152508160090190805190602001906111e5929190612264565b5080600c016040516020016111fa9190612c85565b60405160208183030381529060405281600c019080519060200190611220929190612264565b507f69cc2ff377f3eb15084b7510fd6ee5543db4f1e15b8385d9f0c804cbe9edd0fc826040516112509190612e52565b60405180910390a15050565b60606000805480602002602001604051908101604052809291908181526020016000905b828210156116d557838290600052602060002090600d020160405180610160016040529081600082015481526020016001820160009054906101000a900473ffffffffffffffffffffffffffffffffffffffff1673ffffffffffffffffffffffffffffffffffffffff1673ffffffffffffffffffffffffffffffffffffffff1681526020016002820160009054906101000a900473ffffffffffffffffffffffffffffffffffffffff1673ffffffffffffffffffffffffffffffffffffffff1673ffffffffffffffffffffffffffffffffffffffff168152602001600382015481526020016004820154815260200160058201548152602001600682016040518060600160405290816000820180546113989061337d565b80601f01602080910402602001604051908101604052809291908181526020018280546113c49061337d565b80156114115780601f106113e657610100808354040283529160200191611411565b820191906000526020600020905b8154815290600101906020018083116113f457829003601f168201915b5050505050815260200160018201805461142a9061337d565b80601f01602080910402602001604051908101604052809291908181526020018280546114569061337d565b80156114a35780601f10611478576101008083540402835291602001916114a3565b820191906000526020600020905b81548152906001019060200180831161148657829003601f168201915b505050505081526020016002820180546114bc9061337d565b80601f01602080910402602001604051908101604052809291908181526020018280546114e89061337d565b80156115355780601f1061150a57610100808354040283529160200191611535565b820191906000526020600020905b81548152906001019060200180831161151857829003601f168201915b50505050508152505081526020016009820180546115529061337d565b80601f016020809104026020016040519081016040528092919081815260200182805461157e9061337d565b80156115cb5780601f106115a0576101008083540402835291602001916115cb565b820191906000526020600020905b8154815290600101906020018083116115ae57829003601f168201915b50505050508152602001600a820160009054906101000a900473ffffffffffffffffffffffffffffffffffffffff1673ffffffffffffffffffffffffffffffffffffffff1673ffffffffffffffffffffffffffffffffffffffff168152602001600b8201548152602001600c820180546116449061337d565b80601f01602080910402602001604051908101604052809291908181526020018280546116709061337d565b80156116bd5780601f10611692576101008083540402835291602001916116bd565b820191906000526020600020905b8154815290600101906020018083116116a057829003601f168201915b50505050508152505081526020019060010190611280565b50505050905090565b600081815481106116ee57600080fd5b90600052602060002090600d02016000915090508060000154908060010160009054906101000a900473ffffffffffffffffffffffffffffffffffffffff16908060020160009054906101000a900473ffffffffffffffffffffffffffffffffffffffff1690806003015490806004015490806005015490806006016040518060600160405290816000820180546117859061337d565b80601f01602080910402602001604051908101604052809291908181526020018280546117b19061337d565b80156117fe5780601f106117d3576101008083540402835291602001916117fe565b820191906000526020600020905b8154815290600101906020018083116117e157829003601f168201915b505050505081526020016001820180546118179061337d565b80601f01602080910402602001604051908101604052809291908181526020018280546118439061337d565b80156118905780601f1061186557610100808354040283529160200191611890565b820191906000526020600020905b81548152906001019060200180831161187357829003601f168201915b505050505081526020016002820180546118a99061337d565b80601f01602080910402602001604051908101604052809291908181526020018280546118d59061337d565b80156119225780601f106118f757610100808354040283529160200191611922565b820191906000526020600020905b81548152906001019060200180831161190557829003601f168201915b5050505050815250509080600901805461193b9061337d565b80601f01602080910402602001604051908101604052809291908181526020018280546119679061337d565b80156119b45780601f10611989576101008083540402835291602001916119b4565b820191906000526020600020905b81548152906001019060200180831161199757829003601f168201915b50505050509080600a0160009054906101000a900473ffffffffffffffffffffffffffffffffffffffff169080600b01549080600c0180546119f59061337d565b80601f0160208091040260200160405190810160405280929190818152602001828054611a219061337d565b8015611a6e5780601f10611a4357610100808354040283529160200191611a6e565b820191906000526020600020905b815481529060010190602001808311611a5157829003601f168201915b505050505090508b565b60016000815480929190611a8b906133af565b919050555060008682611a9e91906131f5565b905060006040518060600160405280878152602001868152602001858152509050600060405180610160016040528060015481526020013373ffffffffffffffffffffffffffffffffffffffff1681526020018973ffffffffffffffffffffffffffffffffffffffff1681526020018b81526020018a8152602001848152602001838152602001604051806060016040528060238152602001613544602391398152602001600073ffffffffffffffffffffffffffffffffffffffff168152602001600081526020016040518060800160405280604381526020016135016043913981525090806001815401808255809150506001900390600052602060002090600d02016000909190919091506000820151816000015560208201518160010160006101000a81548173ffffffffffffffffffffffffffffffffffffffff021916908373ffffffffffffffffffffffffffffffffffffffff16021790555060408201518160020160006101000a81548173ffffffffffffffffffffffffffffffffffffffff021916908373ffffffffffffffffffffffffffffffffffffffff160217905550606082015181600301556080820151816004015560a0820151816005015560c0820151816006016000820151816000019080519060200190611c87929190612264565b506020820151816001019080519060200190611ca4929190612264565b506040820151816002019080519060200190611cc1929190612264565b50505060e0820151816009019080519060200190611ce0929190612264565b5061010082015181600a0160006101000a81548173ffffffffffffffffffffffffffffffffffffffff021916908373ffffffffffffffffffffffffffffffffffffffff16021790555061012082015181600b015561014082015181600c019080519060200190611d51929190612264565b5050507f69cc2ff377f3eb15084b7510fd6ee5543db4f1e15b8385d9f0c804cbe9edd0fc600154604051611d859190612e80565b60405180910390a1505050505050505050565b600082118015611daa57506001548211155b611de9576040517f08c379a0000000000000000000000000000000000000000000000000000000008152600401611de090612cfe565b60405180910390fd5b600080600184611df9919061328a565b81548110611e30577f4e487b7100000000000000000000000000000000000000000000000000000000600052603260045260246000fd5b90600052602060002090600d02019050604051602001611e4f90612ca7565b6040516020818303038152906040528051906020012081600901604051602001611e799190612c10565b6040516020818303038152906040528051906020012014611ecf576040517f08c379a0000000000000000000000000000000000000000000000000000000008152600401611ec690612cde565b60405180910390fd5b8181600a0160006101000a81548173ffffffffffffffffffffffffffffffffffffffff021916908373ffffffffffffffffffffffffffffffffffffffff1602179055506040518060400160405280600a81526020017f4469737061746368656400000000000000000000000000000000000000000000815250816009019080519060200190611f5f929190612264565b5080600c01611f6d83611fe9565b604051602001611f7e929190612c27565b60405160208183030381529060405281600c019080519060200190611fa4929190612264565b507fab9167c6f05f892060dced4d5491dc6b7c07079dc2806d4353f77ca199d7149b8383604051611fd6929190612d39565b60405180910390a1505050565b60015481565b60606000602867ffffffffffffffff81111561202e577f4e487b7100000000000000000000000000000000000000000000000000000000600052604160045260246000fd5b6040519080825280601f01601f1916602001820160405280156120605781602001600182028036833780820191505090505b50905060005b601481101561221457600081601361207e919061328a565b600861208a91906131f5565b600261209691906130d7565b8573ffffffffffffffffffffffffffffffffffffffff166120b79190613022565b60f81b9050600060108260f81c6120ce9190613053565b60f81b905060008160f81c60106120e5919061324f565b8360f81c6120f391906132be565b60f81b90506121018261221e565b8585600261210f91906131f5565b81518110612146577f4e487b7100000000000000000000000000000000000000000000000000000000600052603260045260246000fd5b60200101907effffffffffffffffffffffffffffffffffffffffffffffffffffffffffffff1916908160001a90535061217e8161221e565b85600186600261218e91906131f5565b6121989190612f95565b815181106121cf577f4e487b7100000000000000000000000000000000000000000000000000000000600052603260045260246000fd5b60200101907effffffffffffffffffffffffffffffffffffffffffffffffffffffffffffff1916908160001a905350505050808061220c906133af565b915050612066565b5080915050919050565b6000600a8260f81c60ff1610156122495760308260f81c61223f9190612feb565b60f81b905061225f565b60578260f81c6122599190612feb565b60f81b90505b919050565b8280546122709061337d565b90600052602060002090601f01602090048101928261229257600085556122d9565b82601f106122ab57805160ff19168380011785556122d9565b828001600101855582156122d9579182015b828111156122d85782518255916020019190600101906122bd565b5b5090506122e6919061238c565b5090565b60405180610160016040528060008152602001600073ffffffffffffffffffffffffffffffffffffffff168152602001600073ffffffffffffffffffffffffffffffffffffffff1681526020016000815260200160008152602001600081526020016123546123a9565b815260200160608152602001600073ffffffffffffffffffffffffffffffffffffffff16815260200160008152602001606081525090565b5b808211156123a557600081600090555060010161238d565b5090565b60405180606001604052806060815260200160608152602001606081525090565b60006123dd6123d884612edf565b612eae565b9050828152602081018484840111156123f557600080fd5b61240084828561333b565b509392505050565b600081359050612417816134d2565b92915050565b600082601f83011261242e57600080fd5b813561243e8482602086016123ca565b91505092915050565b600081359050612456816134e9565b92915050565b60006020828403121561246e57600080fd5b600061247c84828501612408565b91505092915050565b60006020828403121561249757600080fd5b60006124a584828501612447565b91505092915050565b600080604083850312156124c157600080fd5b60006124cf85828601612447565b92505060206124e085828601612408565b9150509250929050565b600080604083850312156124fd57600080fd5b600061250b85828601612447565b925050602083013567ffffffffffffffff81111561252857600080fd5b6125348582860161241d565b9150509250929050565b600080600080600080600060e0888a03121561255957600080fd5b60006125678a828b01612447565b97505060206125788a828b01612447565b96505060406125898a828b01612408565b955050606088013567ffffffffffffffff8111156125a657600080fd5b6125b28a828b0161241d565b945050608088013567ffffffffffffffff8111156125cf57600080fd5b6125db8a828b0161241d565b93505060a088013567ffffffffffffffff8111156125f857600080fd5b6126048a828b0161241d565b92505060c06126158a828b01612447565b91505092959891949750929550565b60006126308383612af5565b905092915050565b612641816132f2565b82525050565b612650816132f2565b82525050565b600061266182612f34565b61266b8185612f57565b93508360208202850161267d85612f0f565b8060005b858110156126b9578484038952815161269a8582612624565b94506126a583612f4a565b925060208a01995050600181019050612681565b50829750879550505050505092915050565b60006126d682612f3f565b6126e08185612f68565b93506126f081856020860161334a565b6126f9816134b4565b840191505092915050565b600061270f82612f3f565b6127198185612f79565b935061272981856020860161334a565b612732816134b4565b840191505092915050565b600061274882612f3f565b6127528185612f8a565b935061276281856020860161334a565b80840191505092915050565b6000815461277b8161337d565b6127858186612f8a565b945060018216600081146127a057600181146127b1576127e4565b60ff198316865281860193506127e4565b6127ba85612f1f565b60005b838110156127dc578154818901526001820191506020810190506127bd565b838801955050505b50505092915050565b60006127fa601683612f8a565b91507f507265706172696e6720666f72204469737061746368000000000000000000006000830152601682019050919050565b600061283a601c83612f8a565b91507f207c2041737369676e656420746f206469737472696275746f723a20000000006000830152601c82019050919050565b600061287a602083612f79565b91507f4f72646572206973206e6f7420726561647920666f722064697370617463682e6000830152602082019050919050565b60006128ba600883612f79565b91507f43616e63656c65640000000000000000000000000000000000000000000000006000830152602082019050919050565b60006128fa601583612f8a565b91507f207c20537461747573207570646174656420746f2000000000000000000000006000830152601582019050919050565b600061293a602f83612f8a565b91507f207c204f726465722063616e63656c65642064756520746f206c61636b206f6660008301527f207472616e73706f72746174696f6e00000000000000000000000000000000006020830152602f82019050919050565b60006129a0601583612f79565b91507f4f7264657220646f6573206e6f742065786973742e00000000000000000000006000830152602082019050919050565b60006129e0602383612f79565b91507f57616974696e6720666f72206d616e756661637475726572206163636570746160008301527f6e636500000000000000000000000000000000000000000000000000000000006020830152604082019050919050565b60006060830160008301518482036000860152612a5682826126cb565b91505060208301518482036020860152612a7082826126cb565b91505060408301518482036040860152612a8a82826126cb565b9150508091505092915050565b60006060830160008301518482036000860152612ab482826126cb565b91505060208301518482036020860152612ace82826126cb565b91505060408301518482036040860152612ae882826126cb565b9150508091505092915050565b600061016083016000830151612b0e6000860182612bf2565b506020830151612b216020860182612638565b506040830151612b346040860182612638565b506060830151612b476060860182612bf2565b506080830151612b5a6080860182612bf2565b5060a0830151612b6d60a0860182612bf2565b5060c083015184820360c0860152612b858282612a39565b91505060e083015184820360e0860152612b9f82826126cb565b915050610100830151612bb6610100860182612638565b50610120830151612bcb610120860182612bf2565b50610140830151848203610140860152612be582826126cb565b9150508091505092915050565b612bfb81613324565b82525050565b612c0a81613324565b82525050565b6000612c1c828461276e565b915081905092915050565b6000612c33828561276e565b9150612c3e8261282d565b9150612c4a828461273d565b91508190509392505050565b6000612c62828561276e565b9150612c6d826128ed565b9150612c79828461273d565b91508190509392505050565b6000612c91828461276e565b9150612c9c8261292d565b915081905092915050565b6000612cb2826127ed565b9150819050919050565b60006020820190508181036000830152612cd68184612656565b905092915050565b60006020820190508181036000830152612cf78161286d565b9050919050565b60006020820190508181036000830152612d1781612993565b9050919050565b6000602082019050612d336000830184612c01565b92915050565b6000604082019050612d4e6000830185612c01565b612d5b6020830184612647565b9392505050565b600061016082019050612d78600083018e612c01565b612d85602083018d612647565b612d92604083018c612647565b612d9f606083018b612c01565b612dac608083018a612c01565b612db960a0830189612c01565b81810360c0830152612dcb8188612a97565b905081810360e0830152612ddf8187612704565b9050612def610100830186612647565b612dfd610120830185612c01565b818103610140830152612e108184612704565b90509c9b505050505050505050505050565b6000604082019050612e376000830185612c01565b8181036020830152612e498184612704565b90509392505050565b6000604082019050612e676000830184612c01565b8181036020830152612e78816128ad565b905092915050565b6000604082019050612e956000830184612c01565b8181036020830152612ea6816129d3565b905092915050565b6000604051905081810181811067ffffffffffffffff82111715612ed557612ed4613485565b5b8060405250919050565b600067ffffffffffffffff821115612efa57612ef9613485565b5b601f19601f8301169050602081019050919050565b6000819050602082019050919050565b60008190508160005260206000209050919050565b600081519050919050565b600081519050919050565b6000602082019050919050565b600082825260208201905092915050565b600082825260208201905092915050565b600082825260208201905092915050565b600081905092915050565b6000612fa082613324565b9150612fab83613324565b9250827fffffffffffffffffffffffffffffffffffffffffffffffffffffffffffffffff03821115612fe057612fdf6133f8565b5b828201905092915050565b6000612ff68261332e565b91506130018361332e565b92508260ff03821115613017576130166133f8565b5b828201905092915050565b600061302d82613324565b915061303883613324565b92508261304857613047613427565b5b828204905092915050565b600061305e8261332e565b91506130698361332e565b92508261307957613078613427565b5b828204905092915050565b6000808291508390505b60018511156130ce578086048111156130aa576130a96133f8565b5b60018516156130b95780820291505b80810290506130c7856134c5565b945061308e565b94509492505050565b60006130e282613324565b91506130ed83613324565b925061311a7fffffffffffffffffffffffffffffffffffffffffffffffffffffffffffffffff8484613122565b905092915050565b60008261313257600190506131ee565b8161314057600090506131ee565b816001811461315657600281146131605761318f565b60019150506131ee565b60ff841115613172576131716133f8565b5b8360020a915084821115613189576131886133f8565b5b506131ee565b5060208310610133831016604e8410600b84101617156131c45782820a9050838111156131bf576131be6133f8565b5b6131ee565b6131d18484846001613084565b925090508184048111156131e8576131e76133f8565b5b81810290505b9392505050565b600061320082613324565b915061320b83613324565b9250817fffffffffffffffffffffffffffffffffffffffffffffffffffffffffffffffff0483118215151615613244576132436133f8565b5b828202905092915050565b600061325a8261332e565b91506132658361332e565b92508160ff048311821515161561327f5761327e6133f8565b5b828202905092915050565b600061329582613324565b91506132a083613324565b9250828210156132b3576132b26133f8565b5b828203905092915050565b60006132c98261332e565b91506132d48361332e565b9250828210156132e7576132e66133f8565b5b828203905092915050565b60006132fd82613304565b9050919050565b600073ffffffffffffffffffffffffffffffffffffffff82169050919050565b6000819050919050565b600060ff82169050919050565b82818337600083830152505050565b60005b8381101561336857808201518184015260208101905061334d565b83811115613377576000848401525b50505050565b6000600282049050600182168061339557607f821691505b602082108114156133a9576133a8613456565b5b50919050565b60006133ba82613324565b91507fffffffffffffffffffffffffffffffffffffffffffffffffffffffffffffffff8214156133ed576133ec6133f8565b5b600182019050919050565b7f4e487b7100000000000000000000000000000000000000000000000000000000600052601160045260246000fd5b7f4e487b7100000000000000000000000000000000000000000000000000000000600052601260045260246000fd5b7f4e487b7100000000000000000000000000000000000000000000000000000000600052602260045260246000fd5b7f4e487b7100000000000000000000000000000000000000000000000000000000600052604160045260246000fd5b6000601f19601f8301169050919050565b60008160011c9050919050565b6134db816132f2565b81146134e657600080fd5b50565b6134f281613324565b81146134fd57600080fd5b5056fe4f72646572206372656174656420616e64207374617475732073657420746f2077616974696e6720666f72206d616e75666163747572657220616363657074616e636557616974696e6720666f72206d616e75666163747572657220616363657074616e6365a2646970667358221220f5c0062b734d6303bfe8ac5c76be4cdc840f1a619fe3a459c8d211538489efc464736f6c63430008000033",
  "immutableReferences": {},
  "source": "// SPDX-License-Identifier: MIT\r\npragma solidity ^0.8.0;\r\n\r\ncontract OrderContract {\r\n    struct Order {\r\n        uint orderId;\r\n        address retailer;\r\n        address manufacturer;\r\n        uint productId;\r\n        uint quantity;\r\n        uint price; // Total price of the order (product price * quantity)\r\n        DeliveryInfo deliveryInfo; // Struct for delivery-related info\r\n        string status;\r\n        address distributor;\r\n        uint temperature;\r\n        string orderHistory;\r\n    }\r\n\r\n    struct DeliveryInfo {\r\n        string deliveryDate;\r\n        string deliveryTime;\r\n        string shippingAddress;\r\n    }\r\n\r\n    Order[] public orders;\r\n    uint public orderCounter = 0;\r\n\r\n    event OrderStatusUpdated(uint orderId, string newStatus);\r\n    event DistributorAssigned(uint orderId, address distributor);\r\n\r\n    // Function to create a new order\r\n    function createOrder(\r\n        uint _productId,\r\n        uint _quantity,\r\n        address _manufacturer,\r\n        string memory _deliveryDate,\r\n        string memory _deliveryTime,\r\n        string memory _shippingAddress,\r\n        uint _productPrice // This will be fetched from the product contract\r\n    ) public {\r\n        orderCounter++;\r\n        uint totalPrice = _productPrice * _quantity;\r\n\r\n        DeliveryInfo memory delivery = DeliveryInfo({\r\n            deliveryDate: _deliveryDate,\r\n            deliveryTime: _deliveryTime,\r\n            shippingAddress: _shippingAddress\r\n        });\r\n\r\n        orders.push(Order({\r\n            orderId: orderCounter,\r\n            retailer: msg.sender,\r\n            manufacturer: _manufacturer,\r\n            productId: _productId,\r\n            quantity: _quantity,\r\n            price: totalPrice,\r\n            deliveryInfo: delivery,\r\n            status: \"Waiting for manufacturer acceptance\",  // Set initial status\r\n            distributor: address(0), // Default value for distributor\r\n            temperature: 0, // Default value for temperature\r\n            orderHistory: \"Order created and status set to waiting for manufacturer acceptance\"\r\n        }));\r\n\r\n        emit OrderStatusUpdated(orderCounter, \"Waiting for manufacturer acceptance\");\r\n    }\r\n\r\n    // Function to update the order status\r\n    function updateOrderStatus(uint _orderId, string memory _newStatus) public {\r\n        require(_orderId > 0 && _orderId <= orderCounter, \"Order does not exist.\");\r\n        Order storage order = orders[_orderId - 1];\r\n\r\n        // Update order status logic based on role (manufacturer, retailer, etc.) here\r\n        // For simplicity, we assume that the sender is allowed to change the status\r\n        order.status = _newStatus;\r\n        order.orderHistory = string(abi.encodePacked(order.orderHistory, \" | Status updated to \", _newStatus));\r\n\r\n        emit OrderStatusUpdated(_orderId, _newStatus);\r\n    }\r\n\r\n    // Function to assign a distributor to an order\r\n    function assignDistributor(uint _orderId, address _distributor) public {\r\n        require(_orderId > 0 && _orderId <= orderCounter, \"Order does not exist.\");\r\n        Order storage order = orders[_orderId - 1];\r\n        require(keccak256(abi.encodePacked(order.status)) == keccak256(abi.encodePacked(\"Preparing for Dispatch\")), \"Order is not ready for dispatch.\");\r\n        order.distributor = _distributor;\r\n        order.status = \"Dispatched\";\r\n        order.orderHistory = string(abi.encodePacked(order.orderHistory, \" | Assigned to distributor: \", toAsciiString(_distributor)));\r\n        emit DistributorAssigned(_orderId, _distributor);\r\n    }\r\n\r\n    // Function to cancel an order\r\n    function cancelOrder(uint _orderId) public {\r\n        require(_orderId > 0 && _orderId <= orderCounter, \"Order does not exist.\");\r\n        Order storage order = orders[_orderId - 1];\r\n        order.status = \"Canceled\";\r\n        order.orderHistory = string(abi.encodePacked(order.orderHistory, \" | Order canceled due to lack of transportation\"));\r\n        emit OrderStatusUpdated(_orderId, \"Canceled\");\r\n    }\r\n\r\n    // Helper function to convert address to string\r\n    function toAsciiString(address x) internal pure returns (string memory) {\r\n        bytes memory s = new bytes(40);\r\n        for (uint i = 0; i < 20; i++) {\r\n            bytes1 b = bytes1(uint8(uint(uint160(x)) / (2 ** (8 * (19 - i)))));\r\n            bytes1 hi = bytes1(uint8(b) / 16);\r\n            bytes1 lo = bytes1(uint8(b) - 16 * uint8(hi));\r\n            s[2 * i] = char(hi);\r\n            s[2 * i + 1] = char(lo);\r\n        }\r\n        return string(s);\r\n    }\r\n\r\n    function char(bytes1 b) internal pure returns (bytes1 c) {\r\n        if (uint8(b) < 10) return bytes1(uint8(b) + 0x30);\r\n        else return bytes1(uint8(b) + 0x57);\r\n    }\r\n\r\n    // Get orders by manufacturer\r\n    function getOrdersByManufacturer(address _manufacturer) public view returns (Order[] memory) {\r\n        uint orderCount = 0;\r\n        for (uint i = 0; i < orders.length; i++) {\r\n            if (orders[i].manufacturer == _manufacturer) {\r\n                orderCount++;\r\n            }\r\n        }\r\n        Order[] memory manufacturerOrders = new Order[](orderCount);\r\n        uint index = 0;\r\n        for (uint i = 0; i < orders.length; i++) {\r\n            if (orders[i].manufacturer == _manufacturer) {\r\n                manufacturerOrders[index] = orders[i];\r\n                index++;\r\n            }\r\n        }\r\n        return manufacturerOrders;\r\n    }\r\n\r\n    // Get all orders\r\n    function getAllOrders() public view returns (Order[] memory) {\r\n        return orders;\r\n    }\r\n\r\n    // Get orders by distributor\r\n    function getOrdersByDistributor(address _distributor) public view returns (Order[] memory) {\r\n        uint orderCount = 0;\r\n\r\n        // Count orders assigned to the given distributor\r\n        for (uint i = 0; i < orders.length; i++) {\r\n            if (orders[i].distributor == _distributor) {\r\n                orderCount++;\r\n            }\r\n        }\r\n\r\n        // Create an array to store distributor orders\r\n        Order[] memory distributorOrders = new Order[](orderCount);\r\n        uint index = 0;\r\n\r\n        // Populate the array with matching orders\r\n        for (uint i = 0; i < orders.length; i++) {\r\n            if (orders[i].distributor == _distributor) {\r\n                distributorOrders[index] = orders[i];\r\n                index++;\r\n            }\r\n        }\r\n\r\n        return distributorOrders;\r\n    }\r\n}\r\n",
  "sourcePath": "C:\\Users\\deem1\\OneDrive\\Desktop\\farm-to-fork sprint 1\\contracts\\Order.sol",
  "compiler": {
    "name": "solc",
    "version": "0.8.0+commit.c7dfd78e.Emscripten.clang"
  },
  "schemaVersion": "3.4.16",
  "updatedAt": "2024-11-25T13:47:02.283Z",
  "networkType": "ethereum",
  "devdoc": {
    "kind": "dev",
    "methods": {},
    "version": 1
  },
  "userdoc": {
    "kind": "user",
    "methods": {},
    "version": 1
  }
}