{
  "contractName": "OrderContract",
  "abi": [
    {
      "anonymous": false,
      "inputs": [
        {
          "indexed": false,
          "internalType": "uint256",
          "name": "orderId",
          "type": "uint256"
        },
        {
          "indexed": false,
          "internalType": "address",
          "name": "distributor",
          "type": "address"
        }
      ],
      "name": "DistributorAssigned",
      "type": "event"
    },
    {
      "anonymous": false,
      "inputs": [
        {
          "indexed": false,
          "internalType": "uint256",
          "name": "orderId",
          "type": "uint256"
        },
        {
          "indexed": false,
          "internalType": "string",
          "name": "newStatus",
          "type": "string"
        }
      ],
      "name": "OrderStatusUpdated",
      "type": "event"
    },
    {
      "inputs": [],
      "name": "orderCounter",
      "outputs": [
        {
          "internalType": "uint256",
          "name": "",
          "type": "uint256"
        }
      ],
      "stateMutability": "view",
      "type": "function",
      "constant": true
    },
    {
      "inputs": [
        {
          "internalType": "uint256",
          "name": "",
          "type": "uint256"
        }
      ],
      "name": "orders",
      "outputs": [
        {
          "internalType": "uint256",
          "name": "orderId",
          "type": "uint256"
        },
        {
          "internalType": "address",
          "name": "retailer",
          "type": "address"
        },
        {
          "internalType": "address",
          "name": "manufacturer",
          "type": "address"
        },
        {
          "internalType": "uint256",
          "name": "productId",
          "type": "uint256"
        },
        {
          "internalType": "uint256",
          "name": "quantity",
          "type": "uint256"
        },
        {
          "internalType": "uint256",
          "name": "price",
          "type": "uint256"
        },
        {
          "components": [
            {
              "internalType": "string",
              "name": "deliveryDate",
              "type": "string"
            },
            {
              "internalType": "string",
              "name": "deliveryTime",
              "type": "string"
            },
            {
              "internalType": "string",
              "name": "shippingAddress",
              "type": "string"
            }
          ],
          "internalType": "struct OrderContract.DeliveryInfo",
          "name": "deliveryInfo",
          "type": "tuple"
        },
        {
          "internalType": "string",
          "name": "status",
          "type": "string"
        },
        {
          "internalType": "address",
          "name": "distributor",
          "type": "address"
        },
        {
          "internalType": "uint256",
          "name": "temperature",
          "type": "uint256"
        },
        {
          "internalType": "string",
          "name": "orderHistory",
          "type": "string"
        }
      ],
      "stateMutability": "view",
      "type": "function",
      "constant": true
    },
    {
      "inputs": [
        {
          "internalType": "uint256",
          "name": "_productId",
          "type": "uint256"
        },
        {
          "internalType": "uint256",
          "name": "_quantity",
          "type": "uint256"
        },
        {
          "internalType": "address",
          "name": "_manufacturer",
          "type": "address"
        },
        {
          "internalType": "string",
          "name": "_deliveryDate",
          "type": "string"
        },
        {
          "internalType": "string",
          "name": "_deliveryTime",
          "type": "string"
        },
        {
          "internalType": "string",
          "name": "_shippingAddress",
          "type": "string"
        },
        {
          "internalType": "uint256",
          "name": "_productPrice",
          "type": "uint256"
        }
      ],
      "name": "createOrder",
      "outputs": [],
      "stateMutability": "nonpayable",
      "type": "function"
    },
    {
      "inputs": [
        {
          "internalType": "uint256",
          "name": "_orderId",
          "type": "uint256"
        },
        {
          "internalType": "string",
          "name": "_newStatus",
          "type": "string"
        }
      ],
      "name": "updateOrderStatus",
      "outputs": [],
      "stateMutability": "nonpayable",
      "type": "function"
    },
    {
      "inputs": [
        {
          "internalType": "uint256",
          "name": "_orderId",
          "type": "uint256"
        },
        {
          "internalType": "address",
          "name": "_distributor",
          "type": "address"
        }
      ],
      "name": "assignDistributor",
      "outputs": [],
      "stateMutability": "nonpayable",
      "type": "function"
    },
    {
      "inputs": [
        {
          "internalType": "uint256",
          "name": "_orderId",
          "type": "uint256"
        }
      ],
      "name": "cancelOrder",
      "outputs": [],
      "stateMutability": "nonpayable",
      "type": "function"
    },
    {
      "inputs": [
        {
          "internalType": "address",
          "name": "_manufacturer",
          "type": "address"
        }
      ],
      "name": "getOrdersByManufacturer",
      "outputs": [
        {
          "components": [
            {
              "internalType": "uint256",
              "name": "orderId",
              "type": "uint256"
            },
            {
              "internalType": "address",
              "name": "retailer",
              "type": "address"
            },
            {
              "internalType": "address",
              "name": "manufacturer",
              "type": "address"
            },
            {
              "internalType": "uint256",
              "name": "productId",
              "type": "uint256"
            },
            {
              "internalType": "uint256",
              "name": "quantity",
              "type": "uint256"
            },
            {
              "internalType": "uint256",
              "name": "price",
              "type": "uint256"
            },
            {
              "components": [
                {
                  "internalType": "string",
                  "name": "deliveryDate",
                  "type": "string"
                },
                {
                  "internalType": "string",
                  "name": "deliveryTime",
                  "type": "string"
                },
                {
                  "internalType": "string",
                  "name": "shippingAddress",
                  "type": "string"
                }
              ],
              "internalType": "struct OrderContract.DeliveryInfo",
              "name": "deliveryInfo",
              "type": "tuple"
            },
            {
              "internalType": "string",
              "name": "status",
              "type": "string"
            },
            {
              "internalType": "address",
              "name": "distributor",
              "type": "address"
            },
            {
              "internalType": "uint256",
              "name": "temperature",
              "type": "uint256"
            },
            {
              "internalType": "string",
              "name": "orderHistory",
              "type": "string"
            }
          ],
          "internalType": "struct OrderContract.Order[]",
          "name": "",
          "type": "tuple[]"
        }
      ],
      "stateMutability": "view",
      "type": "function",
      "constant": true
    },
    {
      "inputs": [],
      "name": "getAllOrders",
      "outputs": [
        {
          "components": [
            {
              "internalType": "uint256",
              "name": "orderId",
              "type": "uint256"
            },
            {
              "internalType": "address",
              "name": "retailer",
              "type": "address"
            },
            {
              "internalType": "address",
              "name": "manufacturer",
              "type": "address"
            },
            {
              "internalType": "uint256",
              "name": "productId",
              "type": "uint256"
            },
            {
              "internalType": "uint256",
              "name": "quantity",
              "type": "uint256"
            },
            {
              "internalType": "uint256",
              "name": "price",
              "type": "uint256"
            },
            {
              "components": [
                {
                  "internalType": "string",
                  "name": "deliveryDate",
                  "type": "string"
                },
                {
                  "internalType": "string",
                  "name": "deliveryTime",
                  "type": "string"
                },
                {
                  "internalType": "string",
                  "name": "shippingAddress",
                  "type": "string"
                }
              ],
              "internalType": "struct OrderContract.DeliveryInfo",
              "name": "deliveryInfo",
              "type": "tuple"
            },
            {
              "internalType": "string",
              "name": "status",
              "type": "string"
            },
            {
              "internalType": "address",
              "name": "distributor",
              "type": "address"
            },
            {
              "internalType": "uint256",
              "name": "temperature",
              "type": "uint256"
            },
            {
              "internalType": "string",
              "name": "orderHistory",
              "type": "string"
            }
          ],
          "internalType": "struct OrderContract.Order[]",
          "name": "",
          "type": "tuple[]"
        }
      ],
      "stateMutability": "view",
      "type": "function",
      "constant": true
    },
    {
      "inputs": [
        {
          "internalType": "address",
          "name": "_distributor",
          "type": "address"
        }
      ],
      "name": "getOrdersByDistributor",
      "outputs": [
        {
          "components": [
            {
              "internalType": "uint256",
              "name": "orderId",
              "type": "uint256"
            },
            {
              "internalType": "address",
              "name": "retailer",
              "type": "address"
            },
            {
              "internalType": "address",
              "name": "manufacturer",
              "type": "address"
            },
            {
              "internalType": "uint256",
              "name": "productId",
              "type": "uint256"
            },
            {
              "internalType": "uint256",
              "name": "quantity",
              "type": "uint256"
            },
            {
              "internalType": "uint256",
              "name": "price",
              "type": "uint256"
            },
            {
              "components": [
                {
                  "internalType": "string",
                  "name": "deliveryDate",
                  "type": "string"
                },
                {
                  "internalType": "string",
                  "name": "deliveryTime",
                  "type": "string"
                },
                {
                  "internalType": "string",
                  "name": "shippingAddress",
                  "type": "string"
                }
              ],
              "internalType": "struct OrderContract.DeliveryInfo",
              "name": "deliveryInfo",
              "type": "tuple"
            },
            {
              "internalType": "string",
              "name": "status",
              "type": "string"
            },
            {
              "internalType": "address",
              "name": "distributor",
              "type": "address"
            },
            {
              "internalType": "uint256",
              "name": "temperature",
              "type": "uint256"
            },
            {
              "internalType": "string",
              "name": "orderHistory",
              "type": "string"
            }
          ],
          "internalType": "struct OrderContract.Order[]",
          "name": "",
          "type": "tuple[]"
        }
      ],
      "stateMutability": "view",
      "type": "function",
      "constant": true
    }
  ],
  "bytecode": "0x6080604052600060015534801561001557600080fd5b5061373e806100256000396000f3fe608060405234801561001057600080fd5b50600436106100935760003560e01c80637bea0d1c116100665780637bea0d1c14610130578063a85c38ef1461014e578063a864ca6114610188578063aa9a533f146101a4578063b789bf52146101c057610093565b8063205fdde61461009857806332eb9b4b146100b45780634ecf93f9146100e4578063514fcac714610114575b600080fd5b6100b260048036038101906100ad91906125b1565b6101de565b005b6100ce60048036038101906100c99190612523565b61031a565b6040516100db9190612e3e565b60405180910390f35b6100fe60048036038101906100f99190612523565b610a05565b60405161010b9190612e3e565b60405180910390f35b61012e6004803603810190610129919061254c565b6110f0565b005b61013861125c565b6040516101459190612e3e565b60405180910390f35b6101686004803603810190610163919061254c565b6116de565b60405161017f9b9a99989796959493929190612f04565b60405180910390f35b6101a2600480360381019061019d9190612605565b611a78565b005b6101be60048036038101906101b99190612575565b611d98565b005b6101c86120aa565b6040516101d59190612ec0565b60405180910390f35b6000821180156101f057506001548211155b61022f576040517f08c379a000000000000000000000000000000000000000000000000000000000815260040161022690612e60565b60405180910390fd5b60008060018461023f919061342c565b81548110610276577f4e487b7100000000000000000000000000000000000000000000000000000000600052603260045260246000fd5b90600052602060002090600d020190508181600901908051906020019061029e92919061232b565b5080600c01826040516020016102b5929190612dc3565b60405160208183030381529060405281600c0190805190602001906102db92919061232b565b507f69cc2ff377f3eb15084b7510fd6ee5543db4f1e15b8385d9f0c804cbe9edd0fc838360405161030d929190612fc4565b60405180910390a1505050565b60606000805b6000805490508110156103ee578373ffffffffffffffffffffffffffffffffffffffff166000828154811061037e577f4e487b7100000000000000000000000000000000000000000000000000000000600052603260045260246000fd5b90600052602060002090600d0201600a0160009054906101000a900473ffffffffffffffffffffffffffffffffffffffff1673ffffffffffffffffffffffffffffffffffffffff1614156103db5781806103d790613551565b9250505b80806103e690613551565b915050610320565b5060008167ffffffffffffffff811115610431577f4e487b7100000000000000000000000000000000000000000000000000000000600052604160045260246000fd5b60405190808252806020026020018201604052801561046a57816020015b6104576123b1565b81526020019060019003908161044f5790505b5090506000805b6000805490508110156109f9578573ffffffffffffffffffffffffffffffffffffffff16600082815481106104cf577f4e487b7100000000000000000000000000000000000000000000000000000000600052603260045260246000fd5b90600052602060002090600d0201600a0160009054906101000a900473ffffffffffffffffffffffffffffffffffffffff1673ffffffffffffffffffffffffffffffffffffffff1614156109e65760008181548110610557577f4e487b7100000000000000000000000000000000000000000000000000000000600052603260045260246000fd5b90600052602060002090600d020160405180610160016040529081600082015481526020016001820160009054906101000a900473ffffffffffffffffffffffffffffffffffffffff1673ffffffffffffffffffffffffffffffffffffffff1673ffffffffffffffffffffffffffffffffffffffff1681526020016002820160009054906101000a900473ffffffffffffffffffffffffffffffffffffffff1673ffffffffffffffffffffffffffffffffffffffff1673ffffffffffffffffffffffffffffffffffffffff168152602001600382015481526020016004820154815260200160058201548152602001600682016040518060600160405290816000820180546106659061351f565b80601f01602080910402602001604051908101604052809291908181526020018280546106919061351f565b80156106de5780601f106106b3576101008083540402835291602001916106de565b820191906000526020600020905b8154815290600101906020018083116106c157829003601f168201915b505050505081526020016001820180546106f79061351f565b80601f01602080910402602001604051908101604052809291908181526020018280546107239061351f565b80156107705780601f1061074557610100808354040283529160200191610770565b820191906000526020600020905b81548152906001019060200180831161075357829003601f168201915b505050505081526020016002820180546107899061351f565b80601f01602080910402602001604051908101604052809291908181526020018280546107b59061351f565b80156108025780601f106107d757610100808354040283529160200191610802565b820191906000526020600020905b8154815290600101906020018083116107e557829003601f168201915b505050505081525050815260200160098201805461081f9061351f565b80601f016020809104026020016040519081016040528092919081815260200182805461084b9061351f565b80156108985780601f1061086d57610100808354040283529160200191610898565b820191906000526020600020905b81548152906001019060200180831161087b57829003601f168201915b50505050508152602001600a820160009054906101000a900473ffffffffffffffffffffffffffffffffffffffff1673ffffffffffffffffffffffffffffffffffffffff1673ffffffffffffffffffffffffffffffffffffffff168152602001600b8201548152602001600c820180546109119061351f565b80601f016020809104026020016040519081016040528092919081815260200182805461093d9061351f565b801561098a5780601f1061095f5761010080835404028352916020019161098a565b820191906000526020600020905b81548152906001019060200180831161096d57829003601f168201915b5050505050815250508383815181106109cc577f4e487b7100000000000000000000000000000000000000000000000000000000600052603260045260246000fd5b602002602001018190525081806109e290613551565b9250505b80806109f190613551565b915050610471565b50819350505050919050565b60606000805b600080549050811015610ad9578373ffffffffffffffffffffffffffffffffffffffff1660008281548110610a69577f4e487b7100000000000000000000000000000000000000000000000000000000600052603260045260246000fd5b90600052602060002090600d020160020160009054906101000a900473ffffffffffffffffffffffffffffffffffffffff1673ffffffffffffffffffffffffffffffffffffffff161415610ac6578180610ac290613551565b9250505b8080610ad190613551565b915050610a0b565b5060008167ffffffffffffffff811115610b1c577f4e487b7100000000000000000000000000000000000000000000000000000000600052604160045260246000fd5b604051908082528060200260200182016040528015610b5557816020015b610b426123b1565b815260200190600190039081610b3a5790505b5090506000805b6000805490508110156110e4578573ffffffffffffffffffffffffffffffffffffffff1660008281548110610bba577f4e487b7100000000000000000000000000000000000000000000000000000000600052603260045260246000fd5b90600052602060002090600d020160020160009054906101000a900473ffffffffffffffffffffffffffffffffffffffff1673ffffffffffffffffffffffffffffffffffffffff1614156110d15760008181548110610c42577f4e487b7100000000000000000000000000000000000000000000000000000000600052603260045260246000fd5b90600052602060002090600d020160405180610160016040529081600082015481526020016001820160009054906101000a900473ffffffffffffffffffffffffffffffffffffffff1673ffffffffffffffffffffffffffffffffffffffff1673ffffffffffffffffffffffffffffffffffffffff1681526020016002820160009054906101000a900473ffffffffffffffffffffffffffffffffffffffff1673ffffffffffffffffffffffffffffffffffffffff1673ffffffffffffffffffffffffffffffffffffffff16815260200160038201548152602001600482015481526020016005820154815260200160068201604051806060016040529081600082018054610d509061351f565b80601f0160208091040260200160405190810160405280929190818152602001828054610d7c9061351f565b8015610dc95780601f10610d9e57610100808354040283529160200191610dc9565b820191906000526020600020905b815481529060010190602001808311610dac57829003601f168201915b50505050508152602001600182018054610de29061351f565b80601f0160208091040260200160405190810160405280929190818152602001828054610e0e9061351f565b8015610e5b5780601f10610e3057610100808354040283529160200191610e5b565b820191906000526020600020905b815481529060010190602001808311610e3e57829003601f168201915b50505050508152602001600282018054610e749061351f565b80601f0160208091040260200160405190810160405280929190818152602001828054610ea09061351f565b8015610eed5780601f10610ec257610100808354040283529160200191610eed565b820191906000526020600020905b815481529060010190602001808311610ed057829003601f168201915b5050505050815250508152602001600982018054610f0a9061351f565b80601f0160208091040260200160405190810160405280929190818152602001828054610f369061351f565b8015610f835780601f10610f5857610100808354040283529160200191610f83565b820191906000526020600020905b815481529060010190602001808311610f6657829003601f168201915b50505050508152602001600a820160009054906101000a900473ffffffffffffffffffffffffffffffffffffffff1673ffffffffffffffffffffffffffffffffffffffff1673ffffffffffffffffffffffffffffffffffffffff168152602001600b8201548152602001600c82018054610ffc9061351f565b80601f01602080910402602001604051908101604052809291908181526020018280546110289061351f565b80156110755780601f1061104a57610100808354040283529160200191611075565b820191906000526020600020905b81548152906001019060200180831161105857829003601f168201915b5050505050815250508383815181106110b7577f4e487b7100000000000000000000000000000000000000000000000000000000600052603260045260246000fd5b602002602001018190525081806110cd90613551565b9250505b80806110dc90613551565b915050610b5c565b50819350505050919050565b60008111801561110257506001548111155b611141576040517f08c379a000000000000000000000000000000000000000000000000000000000815260040161113890612e60565b60405180910390fd5b600080600183611151919061342c565b81548110611188577f4e487b7100000000000000000000000000000000000000000000000000000000600052603260045260246000fd5b90600052602060002090600d020190506040518060400160405280600881526020017f43616e63656c65640000000000000000000000000000000000000000000000008152508160090190805190602001906111e592919061232b565b5080600c016040516020016111fa9190612df2565b60405160208183030381529060405281600c01908051906020019061122092919061232b565b507f69cc2ff377f3eb15084b7510fd6ee5543db4f1e15b8385d9f0c804cbe9edd0fc826040516112509190612ff4565b60405180910390a15050565b60606000805480602002602001604051908101604052809291908181526020016000905b828210156116d557838290600052602060002090600d020160405180610160016040529081600082015481526020016001820160009054906101000a900473ffffffffffffffffffffffffffffffffffffffff1673ffffffffffffffffffffffffffffffffffffffff1673ffffffffffffffffffffffffffffffffffffffff1681526020016002820160009054906101000a900473ffffffffffffffffffffffffffffffffffffffff1673ffffffffffffffffffffffffffffffffffffffff1673ffffffffffffffffffffffffffffffffffffffff168152602001600382015481526020016004820154815260200160058201548152602001600682016040518060600160405290816000820180546113989061351f565b80601f01602080910402602001604051908101604052809291908181526020018280546113c49061351f565b80156114115780601f106113e657610100808354040283529160200191611411565b820191906000526020600020905b8154815290600101906020018083116113f457829003601f168201915b5050505050815260200160018201805461142a9061351f565b80601f01602080910402602001604051908101604052809291908181526020018280546114569061351f565b80156114a35780601f10611478576101008083540402835291602001916114a3565b820191906000526020600020905b81548152906001019060200180831161148657829003601f168201915b505050505081526020016002820180546114bc9061351f565b80601f01602080910402602001604051908101604052809291908181526020018280546114e89061351f565b80156115355780601f1061150a57610100808354040283529160200191611535565b820191906000526020600020905b81548152906001019060200180831161151857829003601f168201915b50505050508152505081526020016009820180546115529061351f565b80601f016020809104026020016040519081016040528092919081815260200182805461157e9061351f565b80156115cb5780601f106115a0576101008083540402835291602001916115cb565b820191906000526020600020905b8154815290600101906020018083116115ae57829003601f168201915b50505050508152602001600a820160009054906101000a900473ffffffffffffffffffffffffffffffffffffffff1673ffffffffffffffffffffffffffffffffffffffff1673ffffffffffffffffffffffffffffffffffffffff168152602001600b8201548152602001600c820180546116449061351f565b80601f01602080910402602001604051908101604052809291908181526020018280546116709061351f565b80156116bd5780601f10611692576101008083540402835291602001916116bd565b820191906000526020600020905b8154815290600101906020018083116116a057829003601f168201915b50505050508152505081526020019060010190611280565b50505050905090565b600081815481106116ee57600080fd5b90600052602060002090600d02016000915090508060000154908060010160009054906101000a900473ffffffffffffffffffffffffffffffffffffffff16908060020160009054906101000a900473ffffffffffffffffffffffffffffffffffffffff1690806003015490806004015490806005015490806006016040518060600160405290816000820180546117859061351f565b80601f01602080910402602001604051908101604052809291908181526020018280546117b19061351f565b80156117fe5780601f106117d3576101008083540402835291602001916117fe565b820191906000526020600020905b8154815290600101906020018083116117e157829003601f168201915b505050505081526020016001820180546118179061351f565b80601f01602080910402602001604051908101604052809291908181526020018280546118439061351f565b80156118905780601f1061186557610100808354040283529160200191611890565b820191906000526020600020905b81548152906001019060200180831161187357829003601f168201915b505050505081526020016002820180546118a99061351f565b80601f01602080910402602001604051908101604052809291908181526020018280546118d59061351f565b80156119225780601f106118f757610100808354040283529160200191611922565b820191906000526020600020905b81548152906001019060200180831161190557829003601f168201915b5050505050815250509080600901805461193b9061351f565b80601f01602080910402602001604051908101604052809291908181526020018280546119679061351f565b80156119b45780601f10611989576101008083540402835291602001916119b4565b820191906000526020600020905b81548152906001019060200180831161199757829003601f168201915b50505050509080600a0160009054906101000a900473ffffffffffffffffffffffffffffffffffffffff169080600b01549080600c0180546119f59061351f565b80601f0160208091040260200160405190810160405280929190818152602001828054611a219061351f565b8015611a6e5780601f10611a4357610100808354040283529160200191611a6e565b820191906000526020600020905b815481529060010190602001808311611a5157829003601f168201915b505050505090508b565b60016000815480929190611a8b90613551565b919050555060008682611a9e9190613397565b905060006040518060600160405280878152602001868152602001858152509050600060405180610160016040528060015481526020013373ffffffffffffffffffffffffffffffffffffffff1681526020018973ffffffffffffffffffffffffffffffffffffffff1681526020018b81526020018a81526020018481526020018381526020016040518060600160405280602381526020016136e6602391398152602001600073ffffffffffffffffffffffffffffffffffffffff168152602001600081526020016040518060800160405280604381526020016136a36043913981525090806001815401808255809150506001900390600052602060002090600d02016000909190919091506000820151816000015560208201518160010160006101000a81548173ffffffffffffffffffffffffffffffffffffffff021916908373ffffffffffffffffffffffffffffffffffffffff16021790555060408201518160020160006101000a81548173ffffffffffffffffffffffffffffffffffffffff021916908373ffffffffffffffffffffffffffffffffffffffff160217905550606082015181600301556080820151816004015560a0820151816005015560c0820151816006016000820151816000019080519060200190611c8792919061232b565b506020820151816001019080519060200190611ca492919061232b565b506040820151816002019080519060200190611cc192919061232b565b50505060e0820151816009019080519060200190611ce092919061232b565b5061010082015181600a0160006101000a81548173ffffffffffffffffffffffffffffffffffffffff021916908373ffffffffffffffffffffffffffffffffffffffff16021790555061012082015181600b015561014082015181600c019080519060200190611d5192919061232b565b5050507f69cc2ff377f3eb15084b7510fd6ee5543db4f1e15b8385d9f0c804cbe9edd0fc600154604051611d859190613022565b60405180910390a1505050505050505050565b600082118015611daa57506001548211155b611de9576040517f08c379a0000000000000000000000000000000000000000000000000000000008152600401611de090612e60565b60405180910390fd5b600080600184611df9919061342c565b81548110611e30577f4e487b7100000000000000000000000000000000000000000000000000000000600052603260045260246000fd5b90600052602060002090600d02019050604051602001611e4f90612e14565b6040516020818303038152906040528051906020012081600901604051602001611e799190612d7d565b604051602081830303815290604052805190602001201480611ee75750604051602001611ea590612e29565b6040516020818303038152906040528051906020012081600901604051602001611ecf9190612d7d565b60405160208183030381529060405280519060200120145b611f26576040517f08c379a0000000000000000000000000000000000000000000000000000000008152600401611f1d90612e80565b60405180910390fd5b600073ffffffffffffffffffffffffffffffffffffffff168273ffffffffffffffffffffffffffffffffffffffff161415611f96576040517f08c379a0000000000000000000000000000000000000000000000000000000008152600401611f8d90612ea0565b60405180910390fd5b8181600a0160006101000a81548173ffffffffffffffffffffffffffffffffffffffff021916908373ffffffffffffffffffffffffffffffffffffffff1602179055506040518060400160405280600a81526020017f446973706174636865640000000000000000000000000000000000000000000081525081600901908051906020019061202692919061232b565b5080600c01612034836120b0565b604051602001612045929190612d94565b60405160208183030381529060405281600c01908051906020019061206b92919061232b565b507fab9167c6f05f892060dced4d5491dc6b7c07079dc2806d4353f77ca199d7149b838360405161209d929190612edb565b60405180910390a1505050565b60015481565b60606000602867ffffffffffffffff8111156120f5577f4e487b7100000000000000000000000000000000000000000000000000000000600052604160045260246000fd5b6040519080825280601f01601f1916602001820160405280156121275781602001600182028036833780820191505090505b50905060005b60148110156122db576000816013612145919061342c565b60086121519190613397565b600261215d9190613279565b8573ffffffffffffffffffffffffffffffffffffffff1661217e91906131c4565b60f81b9050600060108260f81c61219591906131f5565b60f81b905060008160f81c60106121ac91906133f1565b8360f81c6121ba9190613460565b60f81b90506121c8826122e5565b858560026121d69190613397565b8151811061220d577f4e487b7100000000000000000000000000000000000000000000000000000000600052603260045260246000fd5b60200101907effffffffffffffffffffffffffffffffffffffffffffffffffffffffffffff1916908160001a905350612245816122e5565b8560018660026122559190613397565b61225f9190613137565b81518110612296577f4e487b7100000000000000000000000000000000000000000000000000000000600052603260045260246000fd5b60200101907effffffffffffffffffffffffffffffffffffffffffffffffffffffffffffff1916908160001a90535050505080806122d390613551565b91505061212d565b5080915050919050565b6000600a8260f81c60ff1610156123105760308260f81c612306919061318d565b60f81b9050612326565b60578260f81c612320919061318d565b60f81b90505b919050565b8280546123379061351f565b90600052602060002090601f01602090048101928261235957600085556123a0565b82601f1061237257805160ff19168380011785556123a0565b828001600101855582156123a0579182015b8281111561239f578251825591602001919060010190612384565b5b5090506123ad9190612453565b5090565b60405180610160016040528060008152602001600073ffffffffffffffffffffffffffffffffffffffff168152602001600073ffffffffffffffffffffffffffffffffffffffff16815260200160008152602001600081526020016000815260200161241b612470565b815260200160608152602001600073ffffffffffffffffffffffffffffffffffffffff16815260200160008152602001606081525090565b5b8082111561246c576000816000905550600101612454565b5090565b60405180606001604052806060815260200160608152602001606081525090565b60006124a461249f84613081565b613050565b9050828152602081018484840111156124bc57600080fd5b6124c78482856134dd565b509392505050565b6000813590506124de81613674565b92915050565b600082601f8301126124f557600080fd5b8135612505848260208601612491565b91505092915050565b60008135905061251d8161368b565b92915050565b60006020828403121561253557600080fd5b6000612543848285016124cf565b91505092915050565b60006020828403121561255e57600080fd5b600061256c8482850161250e565b91505092915050565b6000806040838503121561258857600080fd5b60006125968582860161250e565b92505060206125a7858286016124cf565b9150509250929050565b600080604083850312156125c457600080fd5b60006125d28582860161250e565b925050602083013567ffffffffffffffff8111156125ef57600080fd5b6125fb858286016124e4565b9150509250929050565b600080600080600080600060e0888a03121561262057600080fd5b600061262e8a828b0161250e565b975050602061263f8a828b0161250e565b96505060406126508a828b016124cf565b955050606088013567ffffffffffffffff81111561266d57600080fd5b6126798a828b016124e4565b945050608088013567ffffffffffffffff81111561269657600080fd5b6126a28a828b016124e4565b93505060a088013567ffffffffffffffff8111156126bf57600080fd5b6126cb8a828b016124e4565b92505060c06126dc8a828b0161250e565b91505092959891949750929550565b60006126f78383612c62565b905092915050565b61270881613494565b82525050565b61271781613494565b82525050565b6000612728826130d6565b61273281856130f9565b935083602082028501612744856130b1565b8060005b85811015612780578484038952815161276185826126eb565b945061276c836130ec565b925060208a01995050600181019050612748565b50829750879550505050505092915050565b600061279d826130e1565b6127a7818561310a565b93506127b78185602086016134ec565b6127c081613656565b840191505092915050565b60006127d6826130e1565b6127e0818561311b565b93506127f08185602086016134ec565b6127f981613656565b840191505092915050565b600061280f826130e1565b612819818561312c565b93506128298185602086016134ec565b80840191505092915050565b600081546128428161351f565b61284c818661312c565b945060018216600081146128675760018114612878576128ab565b60ff198316865281860193506128ab565b612881856130c1565b60005b838110156128a357815481890152600182019150602081019050612884565b838801955050505b50505092915050565b60006128c160168361312c565b91507f507265706172696e6720666f72204469737061746368000000000000000000006000830152601682019050919050565b6000612901601c8361312c565b91507f207c2041737369676e656420746f206469737472696275746f723a20000000006000830152601c82019050919050565b600061294160088361311b565b91507f43616e63656c65640000000000000000000000000000000000000000000000006000830152602082019050919050565b600061298160158361312c565b91507f207c20537461747573207570646174656420746f2000000000000000000000006000830152601582019050919050565b60006129c1602f8361312c565b91507f207c204f726465722063616e63656c65642064756520746f206c61636b206f6660008301527f207472616e73706f72746174696f6e00000000000000000000000000000000006020830152602f82019050919050565b6000612a2760158361311b565b91507f4f7264657220646f6573206e6f742065786973742e00000000000000000000006000830152602082019050919050565b6000612a67603a8361311b565b91507f4f72646572206973206e6f7420696e20612076616c696420737461747573206660008301527f6f72206469737472696275746f722061737369676e6d656e742e0000000000006020830152604082019050919050565b6000612acd60238361311b565b91507f57616974696e6720666f72206d616e756661637475726572206163636570746160008301527f6e636500000000000000000000000000000000000000000000000000000000006020830152604082019050919050565b6000612b3360178361312c565b91507f52656a6563746564206279204469737472696275746f720000000000000000006000830152601782019050919050565b6000612b73601c8361311b565b91507f496e76616c6964206469737472696275746f7220616464726573732e000000006000830152602082019050919050565b60006060830160008301518482036000860152612bc38282612792565b91505060208301518482036020860152612bdd8282612792565b91505060408301518482036040860152612bf78282612792565b9150508091505092915050565b60006060830160008301518482036000860152612c218282612792565b91505060208301518482036020860152612c3b8282612792565b91505060408301518482036040860152612c558282612792565b9150508091505092915050565b600061016083016000830151612c7b6000860182612d5f565b506020830151612c8e60208601826126ff565b506040830151612ca160408601826126ff565b506060830151612cb46060860182612d5f565b506080830151612cc76080860182612d5f565b5060a0830151612cda60a0860182612d5f565b5060c083015184820360c0860152612cf28282612ba6565b91505060e083015184820360e0860152612d0c8282612792565b915050610100830151612d236101008601826126ff565b50610120830151612d38610120860182612d5f565b50610140830151848203610140860152612d528282612792565b9150508091505092915050565b612d68816134c6565b82525050565b612d77816134c6565b82525050565b6000612d898284612835565b915081905092915050565b6000612da08285612835565b9150612dab826128f4565b9150612db78284612804565b91508190509392505050565b6000612dcf8285612835565b9150612dda82612974565b9150612de68284612804565b91508190509392505050565b6000612dfe8284612835565b9150612e09826129b4565b915081905092915050565b6000612e1f826128b4565b9150819050919050565b6000612e3482612b26565b9150819050919050565b60006020820190508181036000830152612e58818461271d565b905092915050565b60006020820190508181036000830152612e7981612a1a565b9050919050565b60006020820190508181036000830152612e9981612a5a565b9050919050565b60006020820190508181036000830152612eb981612b66565b9050919050565b6000602082019050612ed56000830184612d6e565b92915050565b6000604082019050612ef06000830185612d6e565b612efd602083018461270e565b9392505050565b600061016082019050612f1a600083018e612d6e565b612f27602083018d61270e565b612f34604083018c61270e565b612f41606083018b612d6e565b612f4e608083018a612d6e565b612f5b60a0830189612d6e565b81810360c0830152612f6d8188612c04565b905081810360e0830152612f8181876127cb565b9050612f9161010083018661270e565b612f9f610120830185612d6e565b818103610140830152612fb281846127cb565b90509c9b505050505050505050505050565b6000604082019050612fd96000830185612d6e565b8181036020830152612feb81846127cb565b90509392505050565b60006040820190506130096000830184612d6e565b818103602083015261301a81612934565b905092915050565b60006040820190506130376000830184612d6e565b818103602083015261304881612ac0565b905092915050565b6000604051905081810181811067ffffffffffffffff8211171561307757613076613627565b5b8060405250919050565b600067ffffffffffffffff82111561309c5761309b613627565b5b601f19601f8301169050602081019050919050565b6000819050602082019050919050565b60008190508160005260206000209050919050565b600081519050919050565b600081519050919050565b6000602082019050919050565b600082825260208201905092915050565b600082825260208201905092915050565b600082825260208201905092915050565b600081905092915050565b6000613142826134c6565b915061314d836134c6565b9250827fffffffffffffffffffffffffffffffffffffffffffffffffffffffffffffffff038211156131825761318161359a565b5b828201905092915050565b6000613198826134d0565b91506131a3836134d0565b92508260ff038211156131b9576131b861359a565b5b828201905092915050565b60006131cf826134c6565b91506131da836134c6565b9250826131ea576131e96135c9565b5b828204905092915050565b6000613200826134d0565b915061320b836134d0565b92508261321b5761321a6135c9565b5b828204905092915050565b6000808291508390505b60018511156132705780860481111561324c5761324b61359a565b5b600185161561325b5780820291505b808102905061326985613667565b9450613230565b94509492505050565b6000613284826134c6565b915061328f836134c6565b92506132bc7fffffffffffffffffffffffffffffffffffffffffffffffffffffffffffffffff84846132c4565b905092915050565b6000826132d45760019050613390565b816132e25760009050613390565b81600181146132f8576002811461330257613331565b6001915050613390565b60ff8411156133145761331361359a565b5b8360020a91508482111561332b5761332a61359a565b5b50613390565b5060208310610133831016604e8410600b84101617156133665782820a9050838111156133615761336061359a565b5b613390565b6133738484846001613226565b9250905081840481111561338a5761338961359a565b5b81810290505b9392505050565b60006133a2826134c6565b91506133ad836134c6565b9250817fffffffffffffffffffffffffffffffffffffffffffffffffffffffffffffffff04831182151516156133e6576133e561359a565b5b828202905092915050565b60006133fc826134d0565b9150613407836134d0565b92508160ff04831182151516156134215761342061359a565b5b828202905092915050565b6000613437826134c6565b9150613442836134c6565b9250828210156134555761345461359a565b5b828203905092915050565b600061346b826134d0565b9150613476836134d0565b9250828210156134895761348861359a565b5b828203905092915050565b600061349f826134a6565b9050919050565b600073ffffffffffffffffffffffffffffffffffffffff82169050919050565b6000819050919050565b600060ff82169050919050565b82818337600083830152505050565b60005b8381101561350a5780820151818401526020810190506134ef565b83811115613519576000848401525b50505050565b6000600282049050600182168061353757607f821691505b6020821081141561354b5761354a6135f8565b5b50919050565b600061355c826134c6565b91507fffffffffffffffffffffffffffffffffffffffffffffffffffffffffffffffff82141561358f5761358e61359a565b5b600182019050919050565b7f4e487b7100000000000000000000000000000000000000000000000000000000600052601160045260246000fd5b7f4e487b7100000000000000000000000000000000000000000000000000000000600052601260045260246000fd5b7f4e487b7100000000000000000000000000000000000000000000000000000000600052602260045260246000fd5b7f4e487b7100000000000000000000000000000000000000000000000000000000600052604160045260246000fd5b6000601f19601f8301169050919050565b60008160011c9050919050565b61367d81613494565b811461368857600080fd5b50565b613694816134c6565b811461369f57600080fd5b5056fe4f72646572206372656174656420616e64207374617475732073657420746f2077616974696e6720666f72206d616e75666163747572657220616363657074616e636557616974696e6720666f72206d616e75666163747572657220616363657074616e6365a26469706673582212208fee8a49c3a4a087992b36c748dfd6f16d7f29cf5a832539b692d8716f74b77164736f6c63430008000033",
  "immutableReferences": {},
  "source": "// SPDX-License-Identifier: MIT\r\npragma solidity ^0.8.0;\r\n\r\ncontract OrderContract {\r\n    struct Order {\r\n        uint orderId;\r\n        address retailer;\r\n        address manufacturer;\r\n        uint productId;\r\n        uint quantity;\r\n        uint price; // Total price of the order (product price * quantity)\r\n        DeliveryInfo deliveryInfo; // Struct for delivery-related info\r\n        string status;\r\n        address distributor;\r\n        uint temperature;\r\n        string orderHistory;\r\n    }\r\n\r\n    struct DeliveryInfo {\r\n        string deliveryDate;\r\n        string deliveryTime;\r\n        string shippingAddress;\r\n    }\r\n\r\n    Order[] public orders;\r\n    uint public orderCounter = 0;\r\n\r\n    event OrderStatusUpdated(uint orderId, string newStatus);\r\n    event DistributorAssigned(uint orderId, address distributor);\r\n\r\n    // Function to create a new order\r\n    function createOrder(\r\n        uint _productId,\r\n        uint _quantity,\r\n        address _manufacturer,\r\n        string memory _deliveryDate,\r\n        string memory _deliveryTime,\r\n        string memory _shippingAddress,\r\n        uint _productPrice // This will be fetched from the product contract\r\n    ) public {\r\n        orderCounter++;\r\n        uint totalPrice = _productPrice * _quantity;\r\n\r\n        DeliveryInfo memory delivery = DeliveryInfo({\r\n            deliveryDate: _deliveryDate,\r\n            deliveryTime: _deliveryTime,\r\n            shippingAddress: _shippingAddress\r\n        });\r\n\r\n        orders.push(Order({\r\n            orderId: orderCounter,\r\n            retailer: msg.sender,\r\n            manufacturer: _manufacturer,\r\n            productId: _productId,\r\n            quantity: _quantity,\r\n            price: totalPrice,\r\n            deliveryInfo: delivery,\r\n            status: \"Waiting for manufacturer acceptance\",  // Set initial status\r\n            distributor: address(0), // Default value for distributor\r\n            temperature: 0, // Default value for temperature\r\n            orderHistory: \"Order created and status set to waiting for manufacturer acceptance\"\r\n        }));\r\n\r\n        emit OrderStatusUpdated(orderCounter, \"Waiting for manufacturer acceptance\");\r\n    }\r\n\r\n    // Function to update the order status\r\n    function updateOrderStatus(uint _orderId, string memory _newStatus) public {\r\n        require(_orderId > 0 && _orderId <= orderCounter, \"Order does not exist.\");\r\n        Order storage order = orders[_orderId - 1];\r\n\r\n        // Update order status logic based on role (manufacturer, retailer, etc.) here\r\n        // For simplicity, we assume that the sender is allowed to change the status\r\n        order.status = _newStatus;\r\n        order.orderHistory = string(abi.encodePacked(order.orderHistory, \" | Status updated to \", _newStatus));\r\n\r\n        emit OrderStatusUpdated(_orderId, _newStatus);\r\n    }\r\n\r\n   function assignDistributor(uint _orderId, address _distributor) public {\r\n        require(_orderId > 0 && _orderId <= orderCounter, \"Order does not exist.\");\r\n        Order storage order = orders[_orderId - 1];\r\n\r\n        // Allow assigning a distributor for specific statuses\r\n        require(\r\n            keccak256(abi.encodePacked(order.status)) == keccak256(abi.encodePacked(\"Preparing for Dispatch\")) ||\r\n            keccak256(abi.encodePacked(order.status)) == keccak256(abi.encodePacked(\"Rejected by Distributor\")),\r\n            \"Order is not in a valid status for distributor assignment.\"\r\n        );\r\n\r\n        require(_distributor != address(0), \"Invalid distributor address.\");\r\n        order.distributor = _distributor;\r\n        order.status = \"Dispatched\";\r\n        order.orderHistory = string(abi.encodePacked(order.orderHistory, \" | Assigned to distributor: \", toAsciiString(_distributor)));\r\n        \r\n        emit DistributorAssigned(_orderId, _distributor);\r\n    }\r\n\r\n\r\n    // Function to cancel an order\r\n    function cancelOrder(uint _orderId) public {\r\n        require(_orderId > 0 && _orderId <= orderCounter, \"Order does not exist.\");\r\n        Order storage order = orders[_orderId - 1];\r\n        order.status = \"Canceled\";\r\n        order.orderHistory = string(abi.encodePacked(order.orderHistory, \" | Order canceled due to lack of transportation\"));\r\n        emit OrderStatusUpdated(_orderId, \"Canceled\");\r\n    }\r\n\r\n    // Helper function to convert address to string\r\n    function toAsciiString(address x) internal pure returns (string memory) {\r\n        bytes memory s = new bytes(40);\r\n        for (uint i = 0; i < 20; i++) {\r\n            bytes1 b = bytes1(uint8(uint(uint160(x)) / (2 ** (8 * (19 - i)))));\r\n            bytes1 hi = bytes1(uint8(b) / 16);\r\n            bytes1 lo = bytes1(uint8(b) - 16 * uint8(hi));\r\n            s[2 * i] = char(hi);\r\n            s[2 * i + 1] = char(lo);\r\n        }\r\n        return string(s);\r\n    }\r\n\r\n    function char(bytes1 b) internal pure returns (bytes1 c) {\r\n        if (uint8(b) < 10) return bytes1(uint8(b) + 0x30);\r\n        else return bytes1(uint8(b) + 0x57);\r\n    }\r\n\r\n    // Get orders by manufacturer\r\n    function getOrdersByManufacturer(address _manufacturer) public view returns (Order[] memory) {\r\n        uint orderCount = 0;\r\n        for (uint i = 0; i < orders.length; i++) {\r\n            if (orders[i].manufacturer == _manufacturer) {\r\n                orderCount++;\r\n            }\r\n        }\r\n        Order[] memory manufacturerOrders = new Order[](orderCount);\r\n        uint index = 0;\r\n        for (uint i = 0; i < orders.length; i++) {\r\n            if (orders[i].manufacturer == _manufacturer) {\r\n                manufacturerOrders[index] = orders[i];\r\n                index++;\r\n            }\r\n        }\r\n        return manufacturerOrders;\r\n    }\r\n\r\n    // Get all orders\r\n    function getAllOrders() public view returns (Order[] memory) {\r\n        return orders;\r\n    }\r\n\r\n    // Get orders by distributor\r\n    function getOrdersByDistributor(address _distributor) public view returns (Order[] memory) {\r\n        uint orderCount = 0;\r\n\r\n        // Count orders assigned to the given distributor\r\n        for (uint i = 0; i < orders.length; i++) {\r\n            if (orders[i].distributor == _distributor) {\r\n                orderCount++;\r\n            }\r\n        }\r\n\r\n        // Create an array to store distributor orders\r\n        Order[] memory distributorOrders = new Order[](orderCount);\r\n        uint index = 0;\r\n\r\n        // Populate the array with matching orders\r\n        for (uint i = 0; i < orders.length; i++) {\r\n            if (orders[i].distributor == _distributor) {\r\n                distributorOrders[index] = orders[i];\r\n                index++;\r\n            }\r\n        }\r\n\r\n        return distributorOrders;\r\n    }\r\n}",
  "sourcePath": "C:\\Users\\deem1\\OneDrive\\Desktop\\farm-to-fork sprint 1\\contracts\\Order.sol",
  "compiler": {
    "name": "solc",
    "version": "0.8.0+commit.c7dfd78e.Emscripten.clang"
  },
  "schemaVersion": "3.4.16",
  "updatedAt": "2024-11-30T18:30:22.815Z",
  "networkType": "ethereum",
  "devdoc": {
    "kind": "dev",
    "methods": {},
    "version": 1
  },
  "userdoc": {
    "kind": "user",
    "methods": {},
    "version": 1
  }
}