{
  "contractName": "OrderContract",
  "abi": [
    {
      "inputs": [
        {
          "internalType": "address",
          "name": "_roleContractAddress",
          "type": "address"
        }
      ],
      "stateMutability": "nonpayable",
      "type": "constructor"
    },
    {
      "anonymous": false,
      "inputs": [
        {
          "indexed": false,
          "internalType": "uint256",
          "name": "orderId",
          "type": "uint256"
        },
        {
          "indexed": false,
          "internalType": "address",
          "name": "distributor",
          "type": "address"
        }
      ],
      "name": "DistributorAssigned",
      "type": "event"
    },
    {
      "anonymous": false,
      "inputs": [
        {
          "indexed": false,
          "internalType": "uint256",
          "name": "orderId",
          "type": "uint256"
        },
        {
          "indexed": false,
          "internalType": "string",
          "name": "newStatus",
          "type": "string"
        }
      ],
      "name": "OrderStatusUpdated",
      "type": "event"
    },
    {
      "inputs": [],
      "name": "orderCounter",
      "outputs": [
        {
          "internalType": "uint256",
          "name": "",
          "type": "uint256"
        }
      ],
      "stateMutability": "view",
      "type": "function",
      "constant": true
    },
    {
      "inputs": [
        {
          "internalType": "uint256",
          "name": "",
          "type": "uint256"
        }
      ],
      "name": "orders",
      "outputs": [
        {
          "internalType": "uint256",
          "name": "orderId",
          "type": "uint256"
        },
        {
          "internalType": "address",
          "name": "retailer",
          "type": "address"
        },
        {
          "internalType": "address",
          "name": "manufacturer",
          "type": "address"
        },
        {
          "internalType": "uint256",
          "name": "productId",
          "type": "uint256"
        },
        {
          "internalType": "uint256",
          "name": "quantity",
          "type": "uint256"
        },
        {
          "internalType": "uint256",
          "name": "price",
          "type": "uint256"
        },
        {
          "components": [
            {
              "internalType": "string",
              "name": "deliveryDate",
              "type": "string"
            },
            {
              "internalType": "string",
              "name": "deliveryTime",
              "type": "string"
            },
            {
              "internalType": "string",
              "name": "shippingAddress",
              "type": "string"
            }
          ],
          "internalType": "struct OrderContract.DeliveryInfo",
          "name": "deliveryInfo",
          "type": "tuple"
        },
        {
          "internalType": "string",
          "name": "status",
          "type": "string"
        },
        {
          "internalType": "address",
          "name": "distributor",
          "type": "address"
        },
        {
          "internalType": "uint256",
          "name": "temperature",
          "type": "uint256"
        },
        {
          "internalType": "string",
          "name": "orderHistory",
          "type": "string"
        },
        {
          "internalType": "string",
          "name": "rejectionReason",
          "type": "string"
        }
      ],
      "stateMutability": "view",
      "type": "function",
      "constant": true
    },
    {
      "inputs": [],
      "name": "roleContract",
      "outputs": [
        {
          "internalType": "contract IRoleContract",
          "name": "",
          "type": "address"
        }
      ],
      "stateMutability": "view",
      "type": "function",
      "constant": true
    },
    {
      "inputs": [
        {
          "internalType": "uint256",
          "name": "_productId",
          "type": "uint256"
        },
        {
          "internalType": "uint256",
          "name": "_quantity",
          "type": "uint256"
        },
        {
          "internalType": "address",
          "name": "_manufacturer",
          "type": "address"
        },
        {
          "internalType": "string",
          "name": "_deliveryDate",
          "type": "string"
        },
        {
          "internalType": "string",
          "name": "_deliveryTime",
          "type": "string"
        },
        {
          "internalType": "string",
          "name": "_shippingAddress",
          "type": "string"
        },
        {
          "internalType": "uint256",
          "name": "_productPrice",
          "type": "uint256"
        },
        {
          "internalType": "uint256",
          "name": "_temperature",
          "type": "uint256"
        }
      ],
      "name": "createOrder",
      "outputs": [],
      "stateMutability": "nonpayable",
      "type": "function"
    },
    {
      "inputs": [
        {
          "internalType": "uint256",
          "name": "_orderId",
          "type": "uint256"
        },
        {
          "internalType": "string",
          "name": "_newStatus",
          "type": "string"
        }
      ],
      "name": "updateOrderStatus",
      "outputs": [],
      "stateMutability": "nonpayable",
      "type": "function"
    },
    {
      "inputs": [
        {
          "internalType": "uint256",
          "name": "_orderId",
          "type": "uint256"
        },
        {
          "internalType": "string",
          "name": "_reason",
          "type": "string"
        }
      ],
      "name": "rejectOrderWithReason",
      "outputs": [],
      "stateMutability": "nonpayable",
      "type": "function"
    },
    {
      "inputs": [
        {
          "internalType": "uint256",
          "name": "_orderId",
          "type": "uint256"
        },
        {
          "internalType": "address",
          "name": "_distributor",
          "type": "address"
        }
      ],
      "name": "assignDistributor",
      "outputs": [],
      "stateMutability": "nonpayable",
      "type": "function"
    },
    {
      "inputs": [
        {
          "internalType": "uint256",
          "name": "_orderId",
          "type": "uint256"
        }
      ],
      "name": "cancelOrder",
      "outputs": [],
      "stateMutability": "nonpayable",
      "type": "function"
    },
    {
      "inputs": [],
      "name": "getAllOrders",
      "outputs": [
        {
          "components": [
            {
              "internalType": "uint256",
              "name": "orderId",
              "type": "uint256"
            },
            {
              "internalType": "address",
              "name": "retailer",
              "type": "address"
            },
            {
              "internalType": "address",
              "name": "manufacturer",
              "type": "address"
            },
            {
              "internalType": "uint256",
              "name": "productId",
              "type": "uint256"
            },
            {
              "internalType": "uint256",
              "name": "quantity",
              "type": "uint256"
            },
            {
              "internalType": "uint256",
              "name": "price",
              "type": "uint256"
            },
            {
              "components": [
                {
                  "internalType": "string",
                  "name": "deliveryDate",
                  "type": "string"
                },
                {
                  "internalType": "string",
                  "name": "deliveryTime",
                  "type": "string"
                },
                {
                  "internalType": "string",
                  "name": "shippingAddress",
                  "type": "string"
                }
              ],
              "internalType": "struct OrderContract.DeliveryInfo",
              "name": "deliveryInfo",
              "type": "tuple"
            },
            {
              "internalType": "string",
              "name": "status",
              "type": "string"
            },
            {
              "internalType": "address",
              "name": "distributor",
              "type": "address"
            },
            {
              "internalType": "uint256",
              "name": "temperature",
              "type": "uint256"
            },
            {
              "internalType": "string",
              "name": "orderHistory",
              "type": "string"
            },
            {
              "internalType": "string",
              "name": "rejectionReason",
              "type": "string"
            }
          ],
          "internalType": "struct OrderContract.Order[]",
          "name": "",
          "type": "tuple[]"
        }
      ],
      "stateMutability": "view",
      "type": "function",
      "constant": true
    },
    {
      "inputs": [
        {
          "internalType": "address",
          "name": "_manufacturer",
          "type": "address"
        }
      ],
      "name": "getOrdersByManufacturer",
      "outputs": [
        {
          "components": [
            {
              "internalType": "uint256",
              "name": "orderId",
              "type": "uint256"
            },
            {
              "internalType": "address",
              "name": "retailer",
              "type": "address"
            },
            {
              "internalType": "address",
              "name": "manufacturer",
              "type": "address"
            },
            {
              "internalType": "uint256",
              "name": "productId",
              "type": "uint256"
            },
            {
              "internalType": "uint256",
              "name": "quantity",
              "type": "uint256"
            },
            {
              "internalType": "uint256",
              "name": "price",
              "type": "uint256"
            },
            {
              "components": [
                {
                  "internalType": "string",
                  "name": "deliveryDate",
                  "type": "string"
                },
                {
                  "internalType": "string",
                  "name": "deliveryTime",
                  "type": "string"
                },
                {
                  "internalType": "string",
                  "name": "shippingAddress",
                  "type": "string"
                }
              ],
              "internalType": "struct OrderContract.DeliveryInfo",
              "name": "deliveryInfo",
              "type": "tuple"
            },
            {
              "internalType": "string",
              "name": "status",
              "type": "string"
            },
            {
              "internalType": "address",
              "name": "distributor",
              "type": "address"
            },
            {
              "internalType": "uint256",
              "name": "temperature",
              "type": "uint256"
            },
            {
              "internalType": "string",
              "name": "orderHistory",
              "type": "string"
            },
            {
              "internalType": "string",
              "name": "rejectionReason",
              "type": "string"
            }
          ],
          "internalType": "struct OrderContract.Order[]",
          "name": "",
          "type": "tuple[]"
        }
      ],
      "stateMutability": "view",
      "type": "function",
      "constant": true
    },
    {
      "inputs": [
        {
          "internalType": "address",
          "name": "_distributor",
          "type": "address"
        }
      ],
      "name": "getOrdersByDistributor",
      "outputs": [
        {
          "components": [
            {
              "internalType": "uint256",
              "name": "orderId",
              "type": "uint256"
            },
            {
              "internalType": "address",
              "name": "retailer",
              "type": "address"
            },
            {
              "internalType": "address",
              "name": "manufacturer",
              "type": "address"
            },
            {
              "internalType": "uint256",
              "name": "productId",
              "type": "uint256"
            },
            {
              "internalType": "uint256",
              "name": "quantity",
              "type": "uint256"
            },
            {
              "internalType": "uint256",
              "name": "price",
              "type": "uint256"
            },
            {
              "components": [
                {
                  "internalType": "string",
                  "name": "deliveryDate",
                  "type": "string"
                },
                {
                  "internalType": "string",
                  "name": "deliveryTime",
                  "type": "string"
                },
                {
                  "internalType": "string",
                  "name": "shippingAddress",
                  "type": "string"
                }
              ],
              "internalType": "struct OrderContract.DeliveryInfo",
              "name": "deliveryInfo",
              "type": "tuple"
            },
            {
              "internalType": "string",
              "name": "status",
              "type": "string"
            },
            {
              "internalType": "address",
              "name": "distributor",
              "type": "address"
            },
            {
              "internalType": "uint256",
              "name": "temperature",
              "type": "uint256"
            },
            {
              "internalType": "string",
              "name": "orderHistory",
              "type": "string"
            },
            {
              "internalType": "string",
              "name": "rejectionReason",
              "type": "string"
            }
          ],
          "internalType": "struct OrderContract.Order[]",
          "name": "",
          "type": "tuple[]"
        }
      ],
      "stateMutability": "view",
      "type": "function",
      "constant": true
    },
    {
      "inputs": [
        {
          "internalType": "uint256",
          "name": "_orderId",
          "type": "uint256"
        }
      ],
      "name": "getOrderById",
      "outputs": [
        {
          "internalType": "uint256",
          "name": "orderId",
          "type": "uint256"
        },
        {
          "internalType": "address",
          "name": "retailer",
          "type": "address"
        },
        {
          "internalType": "address",
          "name": "manufacturer",
          "type": "address"
        },
        {
          "internalType": "uint256",
          "name": "productId",
          "type": "uint256"
        },
        {
          "internalType": "uint256",
          "name": "quantity",
          "type": "uint256"
        },
        {
          "internalType": "uint256",
          "name": "price",
          "type": "uint256"
        },
        {
          "components": [
            {
              "internalType": "string",
              "name": "deliveryDate",
              "type": "string"
            },
            {
              "internalType": "string",
              "name": "deliveryTime",
              "type": "string"
            },
            {
              "internalType": "string",
              "name": "shippingAddress",
              "type": "string"
            }
          ],
          "internalType": "struct OrderContract.DeliveryInfo",
          "name": "deliveryInfo",
          "type": "tuple"
        },
        {
          "internalType": "string",
          "name": "status",
          "type": "string"
        },
        {
          "internalType": "address",
          "name": "distributor",
          "type": "address"
        },
        {
          "internalType": "uint256",
          "name": "temperature",
          "type": "uint256"
        },
        {
          "internalType": "string",
          "name": "orderHistory",
          "type": "string"
        },
        {
          "internalType": "string",
          "name": "rejectionReason",
          "type": "string"
        }
      ],
      "stateMutability": "view",
      "type": "function",
      "constant": true
    },
    {
      "inputs": [
        {
          "internalType": "uint256",
          "name": "_orderId",
          "type": "uint256"
        },
        {
          "internalType": "uint256",
          "name": "_temperature",
          "type": "uint256"
        }
      ],
      "name": "updateOrderTemperature",
      "outputs": [],
      "stateMutability": "nonpayable",
      "type": "function"
    }
  ],
  "bytecode": "0x608060405260006001553480156200001657600080fd5b50604051620045ac380380620045ac83398181016040528101906200003c91906200009b565b80600260006101000a81548173ffffffffffffffffffffffffffffffffffffffff021916908373ffffffffffffffffffffffffffffffffffffffff1602179055505062000115565b6000815190506200009581620000fb565b92915050565b600060208284031215620000ae57600080fd5b6000620000be8482850162000084565b91505092915050565b6000620000d482620000db565b9050919050565b600073ffffffffffffffffffffffffffffffffffffffff82169050919050565b6200010681620000c7565b81146200011257600080fd5b50565b61448780620001256000396000f3fe608060405234801561001057600080fd5b50600436106100cf5760003560e01c806362abc8711161008c578063aa9a533f11610066578063aa9a533f14610238578063b789bf5214610254578063e7a58a6714610272578063f89723b81461028e576100cf565b806362abc871146101c35780637bea0d1c146101df578063a85c38ef146101fd576100cf565b8063205fdde6146100d457806332eb9b4b146100f057806342b50a7a146101205780634ecf93f91461015b578063514fcac71461018b5780635f29f5b3146101a7575b600080fd5b6100ee60048036038101906100e99190613395565b6102ac565b005b61010a60048036038101906101059190613307565b610496565b6040516101179190613d38565b60405180910390f35b61013a60048036038101906101359190613330565b610c13565b6040516101529c9b9a99989796959493929190613e39565b60405180910390f35b61017560048036038101906101709190613307565b6110fc565b6040516101829190613d38565b60405180910390f35b6101a560048036038101906101a09190613330565b611879565b005b6101c160048036038101906101bc9190613395565b6119f5565b005b6101dd60048036038101906101d89190613425565b611ddb565b005b6101e7612143565b6040516101f49190613d38565b60405180910390f35b61021760048036038101906102129190613330565b612657565b60405161022f9c9b9a99989796959493929190613e39565b60405180910390f35b610252600480360381019061024d9190613359565b612a7f565b005b61025c612dd0565b6040516102699190613df5565b60405180910390f35b61028c600480360381019061028791906133e9565b612dd6565b005b610296612e8c565b6040516102a39190613d5a565b60405180910390f35b6000821180156102be57506001548211155b6102fd576040517f08c379a00000000000000000000000000000000000000000000000000000000081526004016102f490613d75565b60405180910390fd5b60008060018461030d91906141b1565b81548110610344577f4e487b7100000000000000000000000000000000000000000000000000000000600052603260045260246000fd5b90600052602060002090600e0201905081805190602001208160090160405161036d9190613c35565b604051809103902014156103815750610492565b600042905060008083600c01805461039890614287565b9050146103da576040518060400160405280600181526020017f2c000000000000000000000000000000000000000000000000000000000000008152506103eb565b604051806020016040528060008152505b9050600083600c01826103fd85612eb2565b876040516020016104119493929190613c6e565b60405160208183030381529060405290508484600901908051906020019061043a929190613108565b508084600c019080519060200190610453929190613108565b507f69cc2ff377f3eb15084b7510fd6ee5543db4f1e15b8385d9f0c804cbe9edd0fc8686604051610485929190613f0f565b60405180910390a1505050505b5050565b60606000805b60008054905081101561056a578373ffffffffffffffffffffffffffffffffffffffff16600082815481106104fa577f4e487b7100000000000000000000000000000000000000000000000000000000600052603260045260246000fd5b90600052602060002090600e0201600a0160009054906101000a900473ffffffffffffffffffffffffffffffffffffffff1673ffffffffffffffffffffffffffffffffffffffff161415610557578180610553906142b9565b9250505b8080610562906142b9565b91505061049c565b5060008167ffffffffffffffff8111156105ad577f4e487b7100000000000000000000000000000000000000000000000000000000600052604160045260246000fd5b6040519080825280602002602001820160405280156105e657816020015b6105d361318e565b8152602001906001900390816105cb5790505b5090506000805b600080549050811015610c07578573ffffffffffffffffffffffffffffffffffffffff166000828154811061064b577f4e487b7100000000000000000000000000000000000000000000000000000000600052603260045260246000fd5b90600052602060002090600e0201600a0160009054906101000a900473ffffffffffffffffffffffffffffffffffffffff1673ffffffffffffffffffffffffffffffffffffffff161415610bf457600081815481106106d3577f4e487b7100000000000000000000000000000000000000000000000000000000600052603260045260246000fd5b90600052602060002090600e020160405180610180016040529081600082015481526020016001820160009054906101000a900473ffffffffffffffffffffffffffffffffffffffff1673ffffffffffffffffffffffffffffffffffffffff1673ffffffffffffffffffffffffffffffffffffffff1681526020016002820160009054906101000a900473ffffffffffffffffffffffffffffffffffffffff1673ffffffffffffffffffffffffffffffffffffffff1673ffffffffffffffffffffffffffffffffffffffff168152602001600382015481526020016004820154815260200160058201548152602001600682016040518060600160405290816000820180546107e190614287565b80601f016020809104026020016040519081016040528092919081815260200182805461080d90614287565b801561085a5780601f1061082f5761010080835404028352916020019161085a565b820191906000526020600020905b81548152906001019060200180831161083d57829003601f168201915b5050505050815260200160018201805461087390614287565b80601f016020809104026020016040519081016040528092919081815260200182805461089f90614287565b80156108ec5780601f106108c1576101008083540402835291602001916108ec565b820191906000526020600020905b8154815290600101906020018083116108cf57829003601f168201915b5050505050815260200160028201805461090590614287565b80601f016020809104026020016040519081016040528092919081815260200182805461093190614287565b801561097e5780601f106109535761010080835404028352916020019161097e565b820191906000526020600020905b81548152906001019060200180831161096157829003601f168201915b505050505081525050815260200160098201805461099b90614287565b80601f01602080910402602001604051908101604052809291908181526020018280546109c790614287565b8015610a145780601f106109e957610100808354040283529160200191610a14565b820191906000526020600020905b8154815290600101906020018083116109f757829003601f168201915b50505050508152602001600a820160009054906101000a900473ffffffffffffffffffffffffffffffffffffffff1673ffffffffffffffffffffffffffffffffffffffff1673ffffffffffffffffffffffffffffffffffffffff168152602001600b8201548152602001600c82018054610a8d90614287565b80601f0160208091040260200160405190810160405280929190818152602001828054610ab990614287565b8015610b065780601f10610adb57610100808354040283529160200191610b06565b820191906000526020600020905b815481529060010190602001808311610ae957829003601f168201915b50505050508152602001600d82018054610b1f90614287565b80601f0160208091040260200160405190810160405280929190818152602001828054610b4b90614287565b8015610b985780601f10610b6d57610100808354040283529160200191610b98565b820191906000526020600020905b815481529060010190602001808311610b7b57829003601f168201915b505050505081525050838381518110610bda577f4e487b7100000000000000000000000000000000000000000000000000000000600052603260045260246000fd5b60200260200101819052508180610bf0906142b9565b9250505b8080610bff906142b9565b9150506105ed565b50819350505050919050565b600080600080600080610c24613237565b606060008060608060008d118015610c3e57506001548d11155b610c7d576040517f08c379a0000000000000000000000000000000000000000000000000000000008152600401610c7490613d75565b60405180910390fd5b60008060018f610c8d91906141b1565b81548110610cc4577f4e487b7100000000000000000000000000000000000000000000000000000000600052603260045260246000fd5b90600052602060002090600e0201905080600001548160010160009054906101000a900473ffffffffffffffffffffffffffffffffffffffff168260020160009054906101000a900473ffffffffffffffffffffffffffffffffffffffff16836003015484600401548560050154866006018760090188600a0160009054906101000a900473ffffffffffffffffffffffffffffffffffffffff1689600b01548a600c018b600d0185604051806060016040529081600082018054610d8890614287565b80601f0160208091040260200160405190810160405280929190818152602001828054610db490614287565b8015610e015780601f10610dd657610100808354040283529160200191610e01565b820191906000526020600020905b815481529060010190602001808311610de457829003601f168201915b50505050508152602001600182018054610e1a90614287565b80601f0160208091040260200160405190810160405280929190818152602001828054610e4690614287565b8015610e935780601f10610e6857610100808354040283529160200191610e93565b820191906000526020600020905b815481529060010190602001808311610e7657829003601f168201915b50505050508152602001600282018054610eac90614287565b80601f0160208091040260200160405190810160405280929190818152602001828054610ed890614287565b8015610f255780601f10610efa57610100808354040283529160200191610f25565b820191906000526020600020905b815481529060010190602001808311610f0857829003601f168201915b5050505050815250509550848054610f3c90614287565b80601f0160208091040260200160405190810160405280929190818152602001828054610f6890614287565b8015610fb55780601f10610f8a57610100808354040283529160200191610fb5565b820191906000526020600020905b815481529060010190602001808311610f9857829003601f168201915b50505050509450818054610fc890614287565b80601f0160208091040260200160405190810160405280929190818152602001828054610ff490614287565b80156110415780601f1061101657610100808354040283529160200191611041565b820191906000526020600020905b81548152906001019060200180831161102457829003601f168201915b5050505050915080805461105490614287565b80601f016020809104026020016040519081016040528092919081815260200182805461108090614287565b80156110cd5780601f106110a2576101008083540402835291602001916110cd565b820191906000526020600020905b8154815290600101906020018083116110b057829003601f168201915b505050505090509c509c509c509c509c509c509c509c509c509c509c509c505091939597999b5091939597999b565b60606000805b6000805490508110156111d0578373ffffffffffffffffffffffffffffffffffffffff1660008281548110611160577f4e487b7100000000000000000000000000000000000000000000000000000000600052603260045260246000fd5b90600052602060002090600e020160020160009054906101000a900473ffffffffffffffffffffffffffffffffffffffff1673ffffffffffffffffffffffffffffffffffffffff1614156111bd5781806111b9906142b9565b9250505b80806111c8906142b9565b915050611102565b5060008167ffffffffffffffff811115611213577f4e487b7100000000000000000000000000000000000000000000000000000000600052604160045260246000fd5b60405190808252806020026020018201604052801561124c57816020015b61123961318e565b8152602001906001900390816112315790505b5090506000805b60008054905081101561186d578573ffffffffffffffffffffffffffffffffffffffff16600082815481106112b1577f4e487b7100000000000000000000000000000000000000000000000000000000600052603260045260246000fd5b90600052602060002090600e020160020160009054906101000a900473ffffffffffffffffffffffffffffffffffffffff1673ffffffffffffffffffffffffffffffffffffffff16141561185a5760008181548110611339577f4e487b7100000000000000000000000000000000000000000000000000000000600052603260045260246000fd5b90600052602060002090600e020160405180610180016040529081600082015481526020016001820160009054906101000a900473ffffffffffffffffffffffffffffffffffffffff1673ffffffffffffffffffffffffffffffffffffffff1673ffffffffffffffffffffffffffffffffffffffff1681526020016002820160009054906101000a900473ffffffffffffffffffffffffffffffffffffffff1673ffffffffffffffffffffffffffffffffffffffff1673ffffffffffffffffffffffffffffffffffffffff1681526020016003820154815260200160048201548152602001600582015481526020016006820160405180606001604052908160008201805461144790614287565b80601f016020809104026020016040519081016040528092919081815260200182805461147390614287565b80156114c05780601f10611495576101008083540402835291602001916114c0565b820191906000526020600020905b8154815290600101906020018083116114a357829003601f168201915b505050505081526020016001820180546114d990614287565b80601f016020809104026020016040519081016040528092919081815260200182805461150590614287565b80156115525780601f1061152757610100808354040283529160200191611552565b820191906000526020600020905b81548152906001019060200180831161153557829003601f168201915b5050505050815260200160028201805461156b90614287565b80601f016020809104026020016040519081016040528092919081815260200182805461159790614287565b80156115e45780601f106115b9576101008083540402835291602001916115e4565b820191906000526020600020905b8154815290600101906020018083116115c757829003601f168201915b505050505081525050815260200160098201805461160190614287565b80601f016020809104026020016040519081016040528092919081815260200182805461162d90614287565b801561167a5780601f1061164f5761010080835404028352916020019161167a565b820191906000526020600020905b81548152906001019060200180831161165d57829003601f168201915b50505050508152602001600a820160009054906101000a900473ffffffffffffffffffffffffffffffffffffffff1673ffffffffffffffffffffffffffffffffffffffff1673ffffffffffffffffffffffffffffffffffffffff168152602001600b8201548152602001600c820180546116f390614287565b80601f016020809104026020016040519081016040528092919081815260200182805461171f90614287565b801561176c5780601f106117415761010080835404028352916020019161176c565b820191906000526020600020905b81548152906001019060200180831161174f57829003601f168201915b50505050508152602001600d8201805461178590614287565b80601f01602080910402602001604051908101604052809291908181526020018280546117b190614287565b80156117fe5780601f106117d3576101008083540402835291602001916117fe565b820191906000526020600020905b8154815290600101906020018083116117e157829003601f168201915b505050505081525050838381518110611840577f4e487b7100000000000000000000000000000000000000000000000000000000600052603260045260246000fd5b60200260200101819052508180611856906142b9565b9250505b8080611865906142b9565b915050611253565b50819350505050919050565b60008111801561188b57506001548111155b6118ca576040517f08c379a00000000000000000000000000000000000000000000000000000000081526004016118c190613d75565b60405180910390fd5b6000806001836118da91906141b1565b81548110611911577f4e487b7100000000000000000000000000000000000000000000000000000000600052603260045260246000fd5b90600052602060002090600e020190506040518060400160405280600881526020017f43616e63656c656400000000000000000000000000000000000000000000000081525081600901908051906020019061196e929190613108565b50600081600c0161197e42612eb2565b60405160200161198f929190613cfe565b60405160208183030381529060405290508082600c0190805190602001906119b8929190613108565b507f69cc2ff377f3eb15084b7510fd6ee5543db4f1e15b8385d9f0c804cbe9edd0fc836040516119e89190613f6d565b60405180910390a1505050565b600082118015611a0757506001548211155b611a46576040517f08c379a0000000000000000000000000000000000000000000000000000000008152600401611a3d90613d75565b60405180910390fd5b600080600184611a5691906141b1565b81548110611a8d577f4e487b7100000000000000000000000000000000000000000000000000000000600052603260045260246000fd5b90600052602060002090600e0201905060008160020160009054906101000a900473ffffffffffffffffffffffffffffffffffffffff16905060008260010160009054906101000a900473ffffffffffffffffffffffffffffffffffffffff169050600083600a0160009054906101000a900473ffffffffffffffffffffffffffffffffffffffff16905060608373ffffffffffffffffffffffffffffffffffffffff163373ffffffffffffffffffffffffffffffffffffffff161415611b8b576040518060400160405280601881526020017f52656a6563746564206279204d616e75666163747572657200000000000000008152509050611caa565b8273ffffffffffffffffffffffffffffffffffffffff163373ffffffffffffffffffffffffffffffffffffffff161415611bfc576040518060400160405280601481526020017f52656a65637465642062792052657461696c65720000000000000000000000008152509050611ca9565b8173ffffffffffffffffffffffffffffffffffffffff163373ffffffffffffffffffffffffffffffffffffffff161415611c6d576040518060400160405280601781526020017f52656a6563746564206279204469737472696275746f720000000000000000008152509050611ca8565b6040517f08c379a0000000000000000000000000000000000000000000000000000000008152600401611c9f90613db5565b60405180910390fd5b5b5b80856009019080519060200190611cc2929190613108565b508585600d019080519060200190611cdb929190613108565b50600042905060008087600c018054611cf390614287565b905014611d35576040518060400160405280600181526020017f2c00000000000000000000000000000000000000000000000000000000000000815250611d46565b604051806020016040528060008152505b9050600087600c0182611d5885612eb2565b86604051602001611d6c9493929190613c6e565b60405160208183030381529060405290508088600c019080519060200190611d95929190613108565b507f69cc2ff377f3eb15084b7510fd6ee5543db4f1e15b8385d9f0c804cbe9edd0fc8a85604051611dc7929190613f0f565b60405180910390a150505050505050505050565b60016000815480929190611dee906142b9565b919050555060008783611e019190614157565b9050600060405180606001604052808881526020018781526020018681525090506000611e2d42612eb2565b604051602001611e3d9190613c4c565b6040516020818303038152906040529050600060405180610180016040528060015481526020013373ffffffffffffffffffffffffffffffffffffffff1681526020018b73ffffffffffffffffffffffffffffffffffffffff1681526020018d81526020018c815260200185815260200184815260200160405180606001604052806023815260200161442f602391398152602001600073ffffffffffffffffffffffffffffffffffffffff1681526020018681526020018381526020016040518060200160405280600081525081525090806001815401808255809150506001900390600052602060002090600e02016000909190919091506000820151816000015560208201518160010160006101000a81548173ffffffffffffffffffffffffffffffffffffffff021916908373ffffffffffffffffffffffffffffffffffffffff16021790555060408201518160020160006101000a81548173ffffffffffffffffffffffffffffffffffffffff021916908373ffffffffffffffffffffffffffffffffffffffff160217905550606082015181600301556080820151816004015560a0820151816005015560c0820151816006016000820151816000019080519060200190612012929190613108565b50602082015181600101908051906020019061202f929190613108565b50604082015181600201908051906020019061204c929190613108565b50505060e082015181600901908051906020019061206b929190613108565b5061010082015181600a0160006101000a81548173ffffffffffffffffffffffffffffffffffffffff021916908373ffffffffffffffffffffffffffffffffffffffff16021790555061012082015181600b015561014082015181600c0190805190602001906120dc929190613108565b5061016082015181600d0190805190602001906120fa929190613108565b5050507f69cc2ff377f3eb15084b7510fd6ee5543db4f1e15b8385d9f0c804cbe9edd0fc60015460405161212e9190613f9b565b60405180910390a15050505050505050505050565b60606000805480602002602001604051908101604052809291908181526020016000905b8282101561264e57838290600052602060002090600e020160405180610180016040529081600082015481526020016001820160009054906101000a900473ffffffffffffffffffffffffffffffffffffffff1673ffffffffffffffffffffffffffffffffffffffff1673ffffffffffffffffffffffffffffffffffffffff1681526020016002820160009054906101000a900473ffffffffffffffffffffffffffffffffffffffff1673ffffffffffffffffffffffffffffffffffffffff1673ffffffffffffffffffffffffffffffffffffffff1681526020016003820154815260200160048201548152602001600582015481526020016006820160405180606001604052908160008201805461227f90614287565b80601f01602080910402602001604051908101604052809291908181526020018280546122ab90614287565b80156122f85780601f106122cd576101008083540402835291602001916122f8565b820191906000526020600020905b8154815290600101906020018083116122db57829003601f168201915b5050505050815260200160018201805461231190614287565b80601f016020809104026020016040519081016040528092919081815260200182805461233d90614287565b801561238a5780601f1061235f5761010080835404028352916020019161238a565b820191906000526020600020905b81548152906001019060200180831161236d57829003601f168201915b505050505081526020016002820180546123a390614287565b80601f01602080910402602001604051908101604052809291908181526020018280546123cf90614287565b801561241c5780601f106123f15761010080835404028352916020019161241c565b820191906000526020600020905b8154815290600101906020018083116123ff57829003601f168201915b505050505081525050815260200160098201805461243990614287565b80601f016020809104026020016040519081016040528092919081815260200182805461246590614287565b80156124b25780601f10612487576101008083540402835291602001916124b2565b820191906000526020600020905b81548152906001019060200180831161249557829003601f168201915b50505050508152602001600a820160009054906101000a900473ffffffffffffffffffffffffffffffffffffffff1673ffffffffffffffffffffffffffffffffffffffff1673ffffffffffffffffffffffffffffffffffffffff168152602001600b8201548152602001600c8201805461252b90614287565b80601f016020809104026020016040519081016040528092919081815260200182805461255790614287565b80156125a45780601f10612579576101008083540402835291602001916125a4565b820191906000526020600020905b81548152906001019060200180831161258757829003601f168201915b50505050508152602001600d820180546125bd90614287565b80601f01602080910402602001604051908101604052809291908181526020018280546125e990614287565b80156126365780601f1061260b57610100808354040283529160200191612636565b820191906000526020600020905b81548152906001019060200180831161261957829003601f168201915b50505050508152505081526020019060010190612167565b50505050905090565b6000818154811061266757600080fd5b90600052602060002090600e02016000915090508060000154908060010160009054906101000a900473ffffffffffffffffffffffffffffffffffffffff16908060020160009054906101000a900473ffffffffffffffffffffffffffffffffffffffff1690806003015490806004015490806005015490806006016040518060600160405290816000820180546126fe90614287565b80601f016020809104026020016040519081016040528092919081815260200182805461272a90614287565b80156127775780601f1061274c57610100808354040283529160200191612777565b820191906000526020600020905b81548152906001019060200180831161275a57829003601f168201915b5050505050815260200160018201805461279090614287565b80601f01602080910402602001604051908101604052809291908181526020018280546127bc90614287565b80156128095780601f106127de57610100808354040283529160200191612809565b820191906000526020600020905b8154815290600101906020018083116127ec57829003601f168201915b5050505050815260200160028201805461282290614287565b80601f016020809104026020016040519081016040528092919081815260200182805461284e90614287565b801561289b5780601f106128705761010080835404028352916020019161289b565b820191906000526020600020905b81548152906001019060200180831161287e57829003601f168201915b505050505081525050908060090180546128b490614287565b80601f01602080910402602001604051908101604052809291908181526020018280546128e090614287565b801561292d5780601f106129025761010080835404028352916020019161292d565b820191906000526020600020905b81548152906001019060200180831161291057829003601f168201915b50505050509080600a0160009054906101000a900473ffffffffffffffffffffffffffffffffffffffff169080600b01549080600c01805461296e90614287565b80601f016020809104026020016040519081016040528092919081815260200182805461299a90614287565b80156129e75780601f106129bc576101008083540402835291602001916129e7565b820191906000526020600020905b8154815290600101906020018083116129ca57829003601f168201915b50505050509080600d0180546129fc90614287565b80601f0160208091040260200160405190810160405280929190818152602001828054612a2890614287565b8015612a755780601f10612a4a57610100808354040283529160200191612a75565b820191906000526020600020905b815481529060010190602001808311612a5857829003601f168201915b505050505090508c565b600082118015612a9157506001548211155b612ad0576040517f08c379a0000000000000000000000000000000000000000000000000000000008152600401612ac790613d75565b60405180910390fd5b600080600184612ae091906141b1565b81548110612b17577f4e487b7100000000000000000000000000000000000000000000000000000000600052603260045260246000fd5b90600052602060002090600e020190506040518060400160405280601681526020017f507265706172696e6720666f72204469737061746368000000000000000000008152508051906020012081600901604051612b759190613c35565b60405180910390201480612bdc57506040518060400160405280601781526020017f52656a6563746564206279204469737472696275746f720000000000000000008152508051906020012081600901604051612bd29190613c35565b6040518091039020145b612c1b576040517f08c379a0000000000000000000000000000000000000000000000000000000008152600401612c1290613d95565b60405180910390fd5b600073ffffffffffffffffffffffffffffffffffffffff168273ffffffffffffffffffffffffffffffffffffffff161415612c8b576040517f08c379a0000000000000000000000000000000000000000000000000000000008152600401612c8290613dd5565b60405180910390fd5b8181600a0160006101000a81548173ffffffffffffffffffffffffffffffffffffffff021916908373ffffffffffffffffffffffffffffffffffffffff1602179055506040518060400160405280600a81526020017f4469737061746368656400000000000000000000000000000000000000000000815250816009019080519060200190612d1b929190613108565b50612d5b836040518060400160405280601781526020017f41737369676e656420746f206469737472696275746f7200000000000000000081525061305f565b7f69cc2ff377f3eb15084b7510fd6ee5543db4f1e15b8385d9f0c804cbe9edd0fc83604051612d8a9190613f3f565b60405180910390a17fab9167c6f05f892060dced4d5491dc6b7c07079dc2806d4353f77ca199d7149b8383604051612dc3929190613e10565b60405180910390a1505050565b60015481565b600082118015612de857506001548211155b612e27576040517f08c379a0000000000000000000000000000000000000000000000000000000008152600401612e1e90613d75565b60405180910390fd5b600080600184612e3791906141b1565b81548110612e6e577f4e487b7100000000000000000000000000000000000000000000000000000000600052603260045260246000fd5b90600052602060002090600e020190508181600b0181905550505050565b600260009054906101000a900473ffffffffffffffffffffffffffffffffffffffff1681565b60606000821415612efa576040518060400160405280600181526020017f3000000000000000000000000000000000000000000000000000000000000000815250905061305a565b600082905060005b60008214612f2c578080612f15906142b9565b915050600a82612f259190614126565b9150612f02565b60008167ffffffffffffffff811115612f6e577f4e487b7100000000000000000000000000000000000000000000000000000000600052604160045260246000fd5b6040519080825280601f01601f191660200182016040528015612fa05781602001600182028036833780820191505090505b5090505b6000851461305357600182612fb991906141b1565b9150600a85612fc89190614302565b6030612fd491906140d0565b60f81b818381518110613010577f4e487b7100000000000000000000000000000000000000000000000000000000600052603260045260246000fd5b60200101907effffffffffffffffffffffffffffffffffffffffffffffffffffffffffffff1916908160001a905350600a8561304c9190614126565b9450612fa4565b8093505050505b919050565b60008060018461306f91906141b1565b815481106130a6577f4e487b7100000000000000000000000000000000000000000000000000000000600052603260045260246000fd5b90600052602060002090600e02019050600042905081600c016130c882612eb2565b846040516020016130db93929190613cb7565b60405160208183030381529060405282600c019080519060200190613101929190613108565b5050505050565b82805461311490614287565b90600052602060002090601f016020900481019282613136576000855561317d565b82601f1061314f57805160ff191683800117855561317d565b8280016001018555821561317d579182015b8281111561317c578251825591602001919060010190613161565b5b50905061318a9190613258565b5090565b60405180610180016040528060008152602001600073ffffffffffffffffffffffffffffffffffffffff168152602001600073ffffffffffffffffffffffffffffffffffffffff1681526020016000815260200160008152602001600081526020016131f8613237565b815260200160608152602001600073ffffffffffffffffffffffffffffffffffffffff1681526020016000815260200160608152602001606081525090565b60405180606001604052806060815260200160608152602001606081525090565b5b80821115613271576000816000905550600101613259565b5090565b600061328861328384613ffa565b613fc9565b9050828152602081018484840111156132a057600080fd5b6132ab848285614245565b509392505050565b6000813590506132c281614400565b92915050565b600082601f8301126132d957600080fd5b81356132e9848260208601613275565b91505092915050565b60008135905061330181614417565b92915050565b60006020828403121561331957600080fd5b6000613327848285016132b3565b91505092915050565b60006020828403121561334257600080fd5b6000613350848285016132f2565b91505092915050565b6000806040838503121561336c57600080fd5b600061337a858286016132f2565b925050602061338b858286016132b3565b9150509250929050565b600080604083850312156133a857600080fd5b60006133b6858286016132f2565b925050602083013567ffffffffffffffff8111156133d357600080fd5b6133df858286016132c8565b9150509250929050565b600080604083850312156133fc57600080fd5b600061340a858286016132f2565b925050602061341b858286016132f2565b9150509250929050565b600080600080600080600080610100898b03121561344257600080fd5b60006134508b828c016132f2565b98505060206134618b828c016132f2565b97505060406134728b828c016132b3565b965050606089013567ffffffffffffffff81111561348f57600080fd5b61349b8b828c016132c8565b955050608089013567ffffffffffffffff8111156134b857600080fd5b6134c48b828c016132c8565b94505060a089013567ffffffffffffffff8111156134e157600080fd5b6134ed8b828c016132c8565b93505060c06134fe8b828c016132f2565b92505060e061350f8b828c016132f2565b9150509295985092959890939650565b600061352b8383613afe565b905092915050565b61353c816141e5565b82525050565b61354b816141e5565b82525050565b600061355c82614064565b6135668185614087565b9350836020820285016135788561402a565b8060005b858110156135b45784840389528151613595858261351f565b94506135a08361407a565b925060208a0199505060018101905061357c565b50829750879550505050505092915050565b600081546135d381614287565b6135dd8186614098565b945060018216600081146135f857600181146136095761363c565b60ff1983168652818601935061363c565b6136128561403a565b60005b8381101561363457815481890152600182019150602081019050613615565b838801955050505b50505092915050565b61364e81614221565b82525050565b600061365f8261406f565b61366981856140a3565b9350613679818560208601614254565b613682816143ef565b840191505092915050565b60006136988261406f565b6136a281856140b4565b93506136b2818560208601614254565b6136bb816143ef565b840191505092915050565b60006136d18261406f565b6136db81856140c5565b93506136eb818560208601614254565b80840191505092915050565b6000815461370481614287565b61370e81866140c5565b94506001821660008114613729576001811461373a5761376d565b60ff1983168652818601935061376d565b6137438561404f565b60005b8381101561376557815481890152600182019150602081019050613746565b838801955050505b50505092915050565b60006137836001836140c5565b91507f2c000000000000000000000000000000000000000000000000000000000000006000830152600182019050919050565b60006137c3600a836140b4565b91507f44697370617463686564000000000000000000000000000000000000000000006000830152602082019050919050565b60006138036008836140b4565b91507f43616e63656c65640000000000000000000000000000000000000000000000006000830152602082019050919050565b60006138436015836140b4565b91507f4f7264657220646f6573206e6f742065786973742e00000000000000000000006000830152602082019050919050565b6000613883603a836140b4565b91507f4f72646572206973206e6f7420696e20612076616c696420737461747573206660008301527f6f72206469737472696275746f722061737369676e6d656e742e0000000000006020830152604082019050919050565b60006138e96017836140b4565b91507f556e617574686f72697a65642072656a656374696f6e2e0000000000000000006000830152602082019050919050565b60006139296023836140b4565b91507f57616974696e6720666f72206d616e756661637475726572206163636570746160008301527f6e636500000000000000000000000000000000000000000000000000000000006020830152604082019050919050565b600061398f6009836140c5565b91507f2c43616e63656c656400000000000000000000000000000000000000000000006000830152600982019050919050565b60006139cf600e836140c5565b91507f2c4f7264657220437265617465640000000000000000000000000000000000006000830152600e82019050919050565b6000613a0f601c836140b4565b91507f496e76616c6964206469737472696275746f7220616464726573732e000000006000830152602082019050919050565b60006060830160008301518482036000860152613a5f8282613654565b91505060208301518482036020860152613a798282613654565b91505060408301518482036040860152613a938282613654565b9150508091505092915050565b60006060830160008301518482036000860152613abd8282613654565b91505060208301518482036020860152613ad78282613654565b91505060408301518482036040860152613af18282613654565b9150508091505092915050565b600061018083016000830151613b176000860182613c17565b506020830151613b2a6020860182613533565b506040830151613b3d6040860182613533565b506060830151613b506060860182613c17565b506080830151613b636080860182613c17565b5060a0830151613b7660a0860182613c17565b5060c083015184820360c0860152613b8e8282613a42565b91505060e083015184820360e0860152613ba88282613654565b915050610100830151613bbf610100860182613533565b50610120830151613bd4610120860182613c17565b50610140830151848203610140860152613bee8282613654565b915050610160830151848203610160860152613c0a8282613654565b9150508091505092915050565b613c2081614217565b82525050565b613c2f81614217565b82525050565b6000613c4182846135c6565b915081905092915050565b6000613c5882846136c6565b9150613c63826139c2565b915081905092915050565b6000613c7a82876136f7565b9150613c8682866136c6565b9150613c9282856136c6565b9150613c9d82613776565b9150613ca982846136c6565b915081905095945050505050565b6000613cc382866136f7565b9150613cce82613776565b9150613cda82856136c6565b9150613ce582613776565b9150613cf182846136c6565b9150819050949350505050565b6000613d0a82856136f7565b9150613d1582613776565b9150613d2182846136c6565b9150613d2c82613982565b91508190509392505050565b60006020820190508181036000830152613d528184613551565b905092915050565b6000602082019050613d6f6000830184613645565b92915050565b60006020820190508181036000830152613d8e81613836565b9050919050565b60006020820190508181036000830152613dae81613876565b9050919050565b60006020820190508181036000830152613dce816138dc565b9050919050565b60006020820190508181036000830152613dee81613a02565b9050919050565b6000602082019050613e0a6000830184613c26565b92915050565b6000604082019050613e256000830185613c26565b613e326020830184613542565b9392505050565b600061018082019050613e4f600083018f613c26565b613e5c602083018e613542565b613e69604083018d613542565b613e76606083018c613c26565b613e83608083018b613c26565b613e9060a083018a613c26565b81810360c0830152613ea28189613aa0565b905081810360e0830152613eb6818861368d565b9050613ec6610100830187613542565b613ed4610120830186613c26565b818103610140830152613ee7818561368d565b9050818103610160830152613efc818461368d565b90509d9c50505050505050505050505050565b6000604082019050613f246000830185613c26565b8181036020830152613f36818461368d565b90509392505050565b6000604082019050613f546000830184613c26565b8181036020830152613f65816137b6565b905092915050565b6000604082019050613f826000830184613c26565b8181036020830152613f93816137f6565b905092915050565b6000604082019050613fb06000830184613c26565b8181036020830152613fc18161391c565b905092915050565b6000604051905081810181811067ffffffffffffffff82111715613ff057613fef6143c0565b5b8060405250919050565b600067ffffffffffffffff821115614015576140146143c0565b5b601f19601f8301169050602081019050919050565b6000819050602082019050919050565b60008190508160005260206000209050919050565b60008190508160005260206000209050919050565b600081519050919050565b600081519050919050565b6000602082019050919050565b600082825260208201905092915050565b600081905092915050565b600082825260208201905092915050565b600082825260208201905092915050565b600081905092915050565b60006140db82614217565b91506140e683614217565b9250827fffffffffffffffffffffffffffffffffffffffffffffffffffffffffffffffff0382111561411b5761411a614333565b5b828201905092915050565b600061413182614217565b915061413c83614217565b92508261414c5761414b614362565b5b828204905092915050565b600061416282614217565b915061416d83614217565b9250817fffffffffffffffffffffffffffffffffffffffffffffffffffffffffffffffff04831182151516156141a6576141a5614333565b5b828202905092915050565b60006141bc82614217565b91506141c783614217565b9250828210156141da576141d9614333565b5b828203905092915050565b60006141f0826141f7565b9050919050565b600073ffffffffffffffffffffffffffffffffffffffff82169050919050565b6000819050919050565b600061422c82614233565b9050919050565b600061423e826141f7565b9050919050565b82818337600083830152505050565b60005b83811015614272578082015181840152602081019050614257565b83811115614281576000848401525b50505050565b6000600282049050600182168061429f57607f821691505b602082108114156142b3576142b2614391565b5b50919050565b60006142c482614217565b91507fffffffffffffffffffffffffffffffffffffffffffffffffffffffffffffffff8214156142f7576142f6614333565b5b600182019050919050565b600061430d82614217565b915061431883614217565b92508261432857614327614362565b5b828206905092915050565b7f4e487b7100000000000000000000000000000000000000000000000000000000600052601160045260246000fd5b7f4e487b7100000000000000000000000000000000000000000000000000000000600052601260045260246000fd5b7f4e487b7100000000000000000000000000000000000000000000000000000000600052602260045260246000fd5b7f4e487b7100000000000000000000000000000000000000000000000000000000600052604160045260246000fd5b6000601f19601f8301169050919050565b614409816141e5565b811461441457600080fd5b50565b61442081614217565b811461442b57600080fd5b5056fe57616974696e6720666f72206d616e75666163747572657220616363657074616e6365a2646970667358221220bd2ded0b5d405adb990651df765cc9cc5a1b37abb74e233948b5a6f5200c915364736f6c63430008000033",
  "immutableReferences": {},
  "source": "// SPDX-License-Identifier: MIT\r\npragma solidity ^0.8.0;\r\n\r\n\r\n// RoleContract interface\r\ninterface IRoleContract {\r\n    function getManufacturerAddress(address _manufacturer) external view returns (string memory);\r\n    function getDistributorAddress(address _distributor) external view returns (string memory);\r\n    function getRetailerAddress() external view returns (string memory);\r\n    function getDistributorName(address _distributor) external view returns (string memory);\r\n\r\n}\r\ncontract OrderContract {\r\n    struct Order {\r\n        uint orderId;\r\n        address retailer;\r\n        address manufacturer;\r\n        uint productId;\r\n        uint quantity;\r\n        uint price; \r\n        DeliveryInfo deliveryInfo; \r\n        string status;\r\n        address distributor;\r\n        uint temperature;\r\n        string orderHistory;\r\n        string rejectionReason;\r\n    }\r\n\r\n    struct DeliveryInfo {\r\n        string deliveryDate;\r\n        string deliveryTime;\r\n        string shippingAddress;\r\n    }\r\n\r\n    Order[] public orders;\r\n    uint public orderCounter = 0;\r\n    IRoleContract public roleContract; // Instance of the role contract\r\n\r\n    event OrderStatusUpdated(uint orderId, string newStatus);\r\n    event DistributorAssigned(uint orderId, address distributor);\r\n\r\n\r\n    constructor(address _roleContractAddress) {\r\n        roleContract = IRoleContract(_roleContractAddress);\r\n    }\r\n    // Function to create a new order\r\n    function createOrder(\r\n    uint _productId,\r\n    uint _quantity,\r\n    address _manufacturer,\r\n    string memory _deliveryDate,\r\n    string memory _deliveryTime,\r\n    string memory _shippingAddress,\r\n    uint _productPrice, \r\n    uint _temperature // Accepting real-time temperature reading from the sensors\r\n) public {\r\n    orderCounter++;\r\n    uint totalPrice = _productPrice * _quantity;\r\n\r\n    DeliveryInfo memory delivery = DeliveryInfo({\r\n        deliveryDate: _deliveryDate,\r\n        deliveryTime: _deliveryTime,\r\n        shippingAddress: _shippingAddress\r\n    });\r\n    \r\n string memory orderHistoryEntry = string(\r\n    abi.encodePacked(\r\n        uintToString(block.timestamp),\r\n        \",Order Created\"\r\n     )\r\n );\r\n\r\n    orders.push(Order({\r\n        orderId: orderCounter,\r\n        retailer: msg.sender,\r\n        manufacturer: _manufacturer,\r\n        productId: _productId,\r\n        quantity: _quantity,\r\n        price: totalPrice,\r\n        deliveryInfo: delivery,\r\n        status: \"Waiting for manufacturer acceptance\",  // Set initial status\r\n        distributor: address(0), // Default value for distributor\r\n        temperature: _temperature, // Storing real-time temperature\r\n        orderHistory: orderHistoryEntry,\r\n        rejectionReason: \"\"\r\n    }));\r\n\r\n    emit OrderStatusUpdated(orderCounter, \"Waiting for manufacturer acceptance\");\r\n}\r\n\r\n\r\n\r\n    // Function to update the order status with timestamp and history tracking\r\n    function updateOrderStatus(uint _orderId, string memory _newStatus) public {\r\n    require(_orderId > 0 && _orderId <= orderCounter, \"Order does not exist.\");\r\n    Order storage order = orders[_orderId - 1];\r\n\r\n    //  Check if status is already the same\r\n    if (keccak256(bytes(order.status)) == keccak256(bytes(_newStatus))) {\r\n        return; \r\n    }\r\n\r\n    uint currentTime = block.timestamp;\r\n\r\n    string memory separator = bytes(order.orderHistory).length == 0 ? \"\" : \",\";\r\n    string memory newHistoryEntry = string(\r\n        abi.encodePacked(\r\n            order.orderHistory,\r\n            separator,\r\n            uintToString(currentTime),\r\n            \",\",\r\n            _newStatus\r\n        )\r\n    );\r\n\r\n    order.status = _newStatus;\r\n    order.orderHistory = newHistoryEntry;\r\n\r\n    emit OrderStatusUpdated(_orderId, _newStatus);\r\n}\r\n\r\nfunction rejectOrderWithReason(uint _orderId, string memory _reason) public {\r\n    require(_orderId > 0 && _orderId <= orderCounter, \"Order does not exist.\");\r\n\r\n    Order storage order = orders[_orderId - 1];\r\n\r\n    address manufacturer = order.manufacturer;\r\n    address retailer = order.retailer;\r\n    address distributor = order.distributor;\r\n\r\n    string memory rejectionStatus;\r\n\r\n    if (msg.sender == manufacturer) {\r\n        rejectionStatus = \"Rejected by Manufacturer\";\r\n    } else if (msg.sender == retailer) {\r\n        rejectionStatus = \"Rejected by Retailer\";\r\n    } else if (msg.sender == distributor) {\r\n        rejectionStatus = \"Rejected by Distributor\";\r\n    } else {\r\n        revert(\"Unauthorized rejection.\");\r\n    }\r\n\r\n    order.status = rejectionStatus;\r\n    order.rejectionReason = _reason;\r\n\r\n    uint currentTime = block.timestamp;\r\n\r\n    string memory separator = bytes(order.orderHistory).length == 0 ? \"\" : \",\";\r\n    string memory newHistoryEntry = string(\r\n        abi.encodePacked(\r\n            order.orderHistory,\r\n            separator,\r\n            uintToString(currentTime),\r\n            \",\",\r\n            rejectionStatus\r\n        )\r\n    );\r\n    order.orderHistory = newHistoryEntry;\r\n\r\n    emit OrderStatusUpdated(_orderId, rejectionStatus);\r\n}\r\n\r\n   \r\nfunction assignDistributor(uint _orderId, address _distributor) public {\r\n    require(_orderId > 0 && _orderId <= orderCounter, \"Order does not exist.\");\r\n    Order storage order = orders[_orderId - 1]; // Use zero-based index\r\n\r\n    // Validate that the order is in a correct state for distributor assignment\r\n    require(\r\n        keccak256(bytes(order.status)) == keccak256(bytes(\"Preparing for Dispatch\")) ||\r\n        keccak256(bytes(order.status)) == keccak256(bytes(\"Rejected by Distributor\")),\r\n        \"Order is not in a valid status for distributor assignment.\"\r\n    );\r\n\r\n    // Ensure a valid distributor address is provided\r\n    require(_distributor != address(0), \"Invalid distributor address.\");\r\n\r\n    // Update the order's distributor and status\r\n    order.distributor = _distributor;\r\n    order.status = \"Dispatched\";\r\n\r\n    // Simplify history update by not including distributor name to save on gas and complexity\r\n    // If it's essential to have the distributor's name, consider fetching and displaying it off-chain\r\n    updateOrderHistory(_orderId, \"Assigned to distributor\");\r\n\r\n    // Emitting events for changes\r\n    emit OrderStatusUpdated(_orderId, \"Dispatched\");\r\n    emit DistributorAssigned(_orderId, _distributor);\r\n}\r\n\r\n\r\n    // Function to cancel an order\r\n    function cancelOrder(uint _orderId) public {\r\n        require(_orderId > 0 && _orderId <= orderCounter, \"Order does not exist.\");\r\n        Order storage order = orders[_orderId - 1];\r\n        order.status = \"Canceled\";\r\n\r\n        string memory newHistoryEntry = string(\r\n            abi.encodePacked(order.orderHistory, \",\", uintToString(block.timestamp), \",Canceled\")\r\n        );\r\n\r\n        order.orderHistory = newHistoryEntry;\r\n        emit OrderStatusUpdated(_orderId, \"Canceled\");\r\n    }\r\n\r\n    \r\n// Helper function to update order history with new event\r\nfunction updateOrderHistory(uint _orderId, string memory action) internal {\r\n    Order storage order = orders[_orderId - 1];\r\n    uint currentTime = block.timestamp;\r\n    order.orderHistory = string(abi.encodePacked(\r\n        order.orderHistory,\r\n        \",\",\r\n        uintToString(currentTime),\r\n        \",\",\r\n        action\r\n    ));\r\n}\r\n\r\n// Helper function to convert uint to string, more concise than the previous version\r\nfunction uintToString(uint _value) internal pure returns (string memory) {\r\n    if (_value == 0) {\r\n        return \"0\";\r\n    }\r\n    uint temp = _value;\r\n    uint digits;\r\n    while (temp != 0) {\r\n        digits++;\r\n        temp /= 10;\r\n    }\r\n    bytes memory buffer = new bytes(digits);\r\n    while (_value != 0) {\r\n        digits -= 1;\r\n        buffer[digits] = bytes1(uint8(48 + _value % 10));\r\n        _value /= 10;\r\n    }\r\n    return string(buffer);\r\n}\r\n\r\n   \r\n    // Function to get the address based on order status\r\n    function getAddressForStatus(\r\n        string memory _status,\r\n        address _manufacturer,\r\n        address _distributor\r\n    ) internal view returns (string memory) {\r\n        if (\r\n            keccak256(abi.encodePacked(_status)) == keccak256(abi.encodePacked(\"Waiting for manufacturer acceptance\")) ||\r\n            keccak256(abi.encodePacked(_status)) == keccak256(abi.encodePacked(\"Paid\")) ||\r\n            keccak256(abi.encodePacked(_status)) == keccak256(abi.encodePacked(\"Waiting for payment\"))\r\n        ) {\r\n            return roleContract.getManufacturerAddress(_manufacturer);\r\n        } else if (\r\n            keccak256(abi.encodePacked(_status)) == keccak256(abi.encodePacked(\"Delivered to retailer\")) ||\r\n            keccak256(abi.encodePacked(_status)) == keccak256(abi.encodePacked(\"Completed\"))\r\n        ) {\r\n            return roleContract.getRetailerAddress();\r\n        } else {\r\n            return roleContract.getDistributorAddress(_distributor);\r\n        }\r\n    }\r\n\r\n\r\n    // Helper function to convert address to string\r\n    function toAsciiString(address x) internal pure returns (string memory) {\r\n        bytes memory s = new bytes(40);\r\n        for (uint i = 0; i < 20; i++) {\r\n            bytes1 b = bytes1(uint8(uint(uint160(x)) / (2 ** (8 * (19 - i)))));\r\n            bytes1 hi = bytes1(uint8(b) / 16);\r\n            bytes1 lo = bytes1(uint8(b) - 16 * uint8(hi));\r\n            s[2 * i] = char(hi);\r\n            s[2 * i + 1] = char(lo);\r\n        }\r\n        return string(s);\r\n    }\r\n\r\n    function char(bytes1 b) internal pure returns (bytes1 c) {\r\n        if (uint8(b) < 10) return bytes1(uint8(b) + 0x30);\r\n        else return bytes1(uint8(b) + 0x57);\r\n    }\r\n  // Function to get all orders\r\n    function getAllOrders() public view returns (Order[] memory) {\r\n        return orders;\r\n    }\r\n    // Get orders by manufacturer\r\n    function getOrdersByManufacturer(address _manufacturer) public view returns (Order[] memory) {\r\n        uint orderCount = 0;\r\n        for (uint i = 0; i < orders.length; i++) {\r\n            if (orders[i].manufacturer == _manufacturer) {\r\n                orderCount++;\r\n            }\r\n        }\r\n        Order[] memory manufacturerOrders = new Order[](orderCount);\r\n        uint index = 0;\r\n        for (uint i = 0; i < orders.length; i++) {\r\n            if (orders[i].manufacturer == _manufacturer) {\r\n                manufacturerOrders[index] = orders[i];\r\n                index++;\r\n            }\r\n        }\r\n        return manufacturerOrders;\r\n    }\r\n\r\n   \r\n\r\n    // Get orders by distributor\r\n    function getOrdersByDistributor(address _distributor) public view returns (Order[] memory) {\r\n        uint orderCount = 0;\r\n\r\n        // Count orders assigned to the given distributor\r\n        for (uint i = 0; i < orders.length; i++) {\r\n            if (orders[i].distributor == _distributor) {\r\n                orderCount++;\r\n            }\r\n        }\r\n\r\n        // Create an array to store distributor orders\r\n        Order[] memory distributorOrders = new Order[](orderCount);\r\n        uint index = 0;\r\n\r\n        // Populate the array with matching orders\r\n        for (uint i = 0; i < orders.length; i++) {\r\n            if (orders[i].distributor == _distributor) {\r\n                distributorOrders[index] = orders[i];\r\n                index++;\r\n            }\r\n        }\r\n\r\n        return distributorOrders;\r\n    }\r\n    \r\n    // Get a single order by ID\r\nfunction getOrderById(uint _orderId) public view returns (\r\n    uint orderId,\r\n    address retailer,\r\n    address manufacturer,\r\n    uint productId,\r\n    uint quantity,\r\n    uint price,\r\n    DeliveryInfo memory deliveryInfo,\r\n    string memory status,\r\n    address distributor,\r\n    uint temperature,\r\n    string memory orderHistory,\r\n    string memory rejectionReason\r\n) {\r\n    require(_orderId > 0 && _orderId <= orderCounter, \"Order does not exist.\");\r\n    Order storage order = orders[_orderId - 1];\r\n    return (\r\n        order.orderId,\r\n        order.retailer,\r\n        order.manufacturer,\r\n        order.productId,\r\n        order.quantity,\r\n        order.price,\r\n        order.deliveryInfo,\r\n        order.status,\r\n        order.distributor,\r\n        order.temperature,\r\n        order.orderHistory,\r\n        order.rejectionReason\r\n    );\r\n}\r\n\r\n    // Function to update the temperature of an order\r\nfunction updateOrderTemperature(uint _orderId, uint _temperature) public {\r\n    require(_orderId > 0 && _orderId <= orderCounter, \"Order does not exist.\");\r\n    \r\n    Order storage order = orders[_orderId - 1];\r\n    order.temperature = _temperature; // Update the temperature\r\n    \r\n}\r\n\r\n\r\n}\r\n\r\n",
  "sourcePath": "C:\\Users\\noram\\Downloads\\farm-to-fork sprint 1\\contracts\\Order.sol",
  "compiler": {
    "name": "solc",
    "version": "0.8.0+commit.c7dfd78e.Emscripten.clang"
  },
  "schemaVersion": "3.4.16",
  "updatedAt": "2025-05-10T10:27:09.172Z",
  "networkType": "ethereum",
  "devdoc": {
    "kind": "dev",
    "methods": {},
    "version": 1
  },
  "userdoc": {
    "kind": "user",
    "methods": {},
    "version": 1
  }
}