{
  "contractName": "ProductContract",
  "abi": [
    {
      "inputs": [
        {
          "internalType": "address",
          "name": "_roleContractAddress",
          "type": "address"
        }
      ],
      "stateMutability": "nonpayable",
      "type": "constructor"
    },
    {
      "anonymous": false,
      "inputs": [
        {
          "indexed": false,
          "internalType": "uint256",
          "name": "productId",
          "type": "uint256"
        },
        {
          "indexed": false,
          "internalType": "string",
          "name": "name",
          "type": "string"
        },
        {
          "indexed": false,
          "internalType": "address",
          "name": "manufacturer",
          "type": "address"
        }
      ],
      "name": "ProductAdded",
      "type": "event"
    },
    {
      "inputs": [],
      "name": "productCounter",
      "outputs": [
        {
          "internalType": "uint256",
          "name": "",
          "type": "uint256"
        }
      ],
      "stateMutability": "view",
      "type": "function",
      "constant": true
    },
    {
      "inputs": [
        {
          "internalType": "uint256",
          "name": "",
          "type": "uint256"
        }
      ],
      "name": "products",
      "outputs": [
        {
          "internalType": "uint256",
          "name": "productId",
          "type": "uint256"
        },
        {
          "internalType": "string",
          "name": "name",
          "type": "string"
        },
        {
          "internalType": "string",
          "name": "description",
          "type": "string"
        },
        {
          "internalType": "int256",
          "name": "maxTemp",
          "type": "int256"
        },
        {
          "internalType": "int256",
          "name": "minTemp",
          "type": "int256"
        },
        {
          "components": [
            {
              "internalType": "uint256",
              "name": "weight",
              "type": "uint256"
            },
            {
              "internalType": "uint256",
              "name": "price",
              "type": "uint256"
            },
            {
              "internalType": "uint256",
              "name": "itemsPerPack",
              "type": "uint256"
            },
            {
              "internalType": "enum ProductContract.TransportMode",
              "name": "transportMode",
              "type": "uint8"
            },
            {
              "internalType": "uint256",
              "name": "minOrderQuantity",
              "type": "uint256"
            },
            {
              "internalType": "uint256",
              "name": "maxOrderQuantity",
              "type": "uint256"
            }
          ],
          "internalType": "struct ProductContract.ProductDetails",
          "name": "details",
          "type": "tuple"
        },
        {
          "internalType": "address",
          "name": "manufacturer",
          "type": "address"
        },
        {
          "internalType": "string",
          "name": "status",
          "type": "string"
        }
      ],
      "stateMutability": "view",
      "type": "function",
      "constant": true
    },
    {
      "inputs": [],
      "name": "roleContract",
      "outputs": [
        {
          "internalType": "contract IRoleContract",
          "name": "",
          "type": "address"
        }
      ],
      "stateMutability": "view",
      "type": "function",
      "constant": true
    },
    {
      "inputs": [
        {
          "components": [
            {
              "internalType": "string",
              "name": "name",
              "type": "string"
            },
            {
              "internalType": "string",
              "name": "description",
              "type": "string"
            },
            {
              "components": [
                {
                  "internalType": "uint256",
                  "name": "weight",
                  "type": "uint256"
                },
                {
                  "internalType": "uint256",
                  "name": "price",
                  "type": "uint256"
                },
                {
                  "internalType": "uint256",
                  "name": "itemsPerPack",
                  "type": "uint256"
                },
                {
                  "internalType": "enum ProductContract.TransportMode",
                  "name": "transportMode",
                  "type": "uint8"
                },
                {
                  "internalType": "uint256",
                  "name": "minOrderQuantity",
                  "type": "uint256"
                },
                {
                  "internalType": "uint256",
                  "name": "maxOrderQuantity",
                  "type": "uint256"
                }
              ],
              "internalType": "struct ProductContract.ProductDetails",
              "name": "details",
              "type": "tuple"
            }
          ],
          "internalType": "struct ProductContract.NewProductInput",
          "name": "input",
          "type": "tuple"
        }
      ],
      "name": "addProduct",
      "outputs": [],
      "stateMutability": "nonpayable",
      "type": "function"
    },
    {
      "inputs": [
        {
          "internalType": "address",
          "name": "_manufacturer",
          "type": "address"
        }
      ],
      "name": "getProductsByManufacturer",
      "outputs": [
        {
          "components": [
            {
              "internalType": "uint256",
              "name": "productId",
              "type": "uint256"
            },
            {
              "internalType": "string",
              "name": "name",
              "type": "string"
            },
            {
              "internalType": "string",
              "name": "description",
              "type": "string"
            },
            {
              "internalType": "int256",
              "name": "maxTemp",
              "type": "int256"
            },
            {
              "internalType": "int256",
              "name": "minTemp",
              "type": "int256"
            },
            {
              "components": [
                {
                  "internalType": "uint256",
                  "name": "weight",
                  "type": "uint256"
                },
                {
                  "internalType": "uint256",
                  "name": "price",
                  "type": "uint256"
                },
                {
                  "internalType": "uint256",
                  "name": "itemsPerPack",
                  "type": "uint256"
                },
                {
                  "internalType": "enum ProductContract.TransportMode",
                  "name": "transportMode",
                  "type": "uint8"
                },
                {
                  "internalType": "uint256",
                  "name": "minOrderQuantity",
                  "type": "uint256"
                },
                {
                  "internalType": "uint256",
                  "name": "maxOrderQuantity",
                  "type": "uint256"
                }
              ],
              "internalType": "struct ProductContract.ProductDetails",
              "name": "details",
              "type": "tuple"
            },
            {
              "internalType": "address",
              "name": "manufacturer",
              "type": "address"
            },
            {
              "internalType": "string",
              "name": "status",
              "type": "string"
            }
          ],
          "internalType": "struct ProductContract.Product[]",
          "name": "",
          "type": "tuple[]"
        }
      ],
      "stateMutability": "view",
      "type": "function",
      "constant": true
    },
    {
      "inputs": [
        {
          "internalType": "uint256",
          "name": "_productId",
          "type": "uint256"
        }
      ],
      "name": "getProductById",
      "outputs": [
        {
          "components": [
            {
              "internalType": "uint256",
              "name": "productId",
              "type": "uint256"
            },
            {
              "internalType": "string",
              "name": "name",
              "type": "string"
            },
            {
              "internalType": "string",
              "name": "description",
              "type": "string"
            },
            {
              "internalType": "int256",
              "name": "maxTemp",
              "type": "int256"
            },
            {
              "internalType": "int256",
              "name": "minTemp",
              "type": "int256"
            },
            {
              "components": [
                {
                  "internalType": "uint256",
                  "name": "weight",
                  "type": "uint256"
                },
                {
                  "internalType": "uint256",
                  "name": "price",
                  "type": "uint256"
                },
                {
                  "internalType": "uint256",
                  "name": "itemsPerPack",
                  "type": "uint256"
                },
                {
                  "internalType": "enum ProductContract.TransportMode",
                  "name": "transportMode",
                  "type": "uint8"
                },
                {
                  "internalType": "uint256",
                  "name": "minOrderQuantity",
                  "type": "uint256"
                },
                {
                  "internalType": "uint256",
                  "name": "maxOrderQuantity",
                  "type": "uint256"
                }
              ],
              "internalType": "struct ProductContract.ProductDetails",
              "name": "details",
              "type": "tuple"
            },
            {
              "internalType": "address",
              "name": "manufacturer",
              "type": "address"
            },
            {
              "internalType": "string",
              "name": "status",
              "type": "string"
            }
          ],
          "internalType": "struct ProductContract.Product",
          "name": "",
          "type": "tuple"
        }
      ],
      "stateMutability": "view",
      "type": "function",
      "constant": true
    },
    {
      "inputs": [
        {
          "internalType": "uint256",
          "name": "_productId",
          "type": "uint256"
        },
        {
          "internalType": "string",
          "name": "_newStatus",
          "type": "string"
        }
      ],
      "name": "updateProductStatus",
      "outputs": [],
      "stateMutability": "nonpayable",
      "type": "function"
    }
  ],
  "bytecode": "0x608060405260006001553480156200001657600080fd5b50604051620024e9380380620024e983398181016040528101906200003c91906200009b565b80600260006101000a81548173ffffffffffffffffffffffffffffffffffffffff021916908373ffffffffffffffffffffffffffffffffffffffff1602179055505062000115565b6000815190506200009581620000fb565b92915050565b600060208284031215620000ae57600080fd5b6000620000be8482850162000084565b91505092915050565b6000620000d482620000db565b9050919050565b600073ffffffffffffffffffffffffffffffffffffffff82169050919050565b6200010681620000c7565b81146200011257600080fd5b50565b6123c480620001256000396000f3fe608060405234801561001057600080fd5b506004361061007d5760003560e01c8063849df74a1161005b578063849df74a14610107578063b4bc441114610137578063ba42957814610153578063f89723b81461016f5761007d565b80631f16653b146100825780633f70c2b4146100a05780637acc0b20146100d0575b600080fd5b61008a61018d565b6040516100979190611f4b565b60405180910390f35b6100ba60048036038101906100b5919061183f565b610193565b6040516100c79190611f29565b60405180910390f35b6100ea60048036038101906100e5919061183f565b610508565b6040516100fe989796959493929190611fa4565b60405180910390f35b610121600480360381019061011c91906117ac565b6107cb565b60405161012e9190611e4c565b60405180910390f35b610151600480360381019061014c91906117fe565b610ce9565b005b61016d60048036038101906101689190611868565b611061565b005b6101776111c7565b6040516101849190611e6e565b60405180910390f35b60015481565b61019b611437565b6000821180156101ad57506001548211155b6101ec576040517f08c379a00000000000000000000000000000000000000000000000000000000081526004016101e390611ea9565b60405180910390fd5b6000808381526020019081526020016000206040518061010001604052908160008201548152602001600182018054610224906121dd565b80601f0160208091040260200160405190810160405280929190818152602001828054610250906121dd565b801561029d5780601f106102725761010080835404028352916020019161029d565b820191906000526020600020905b81548152906001019060200180831161028057829003601f168201915b505050505081526020016002820180546102b6906121dd565b80601f01602080910402602001604051908101604052809291908181526020018280546102e2906121dd565b801561032f5780601f106103045761010080835404028352916020019161032f565b820191906000526020600020905b81548152906001019060200180831161031257829003601f168201915b505050505081526020016003820154815260200160048201548152602001600582016040518060c00160405290816000820154815260200160018201548152602001600282015481526020016003820160009054906101000a900460ff1660028111156103c5577f4e487b7100000000000000000000000000000000000000000000000000000000600052602160045260246000fd5b60028111156103fd577f4e487b7100000000000000000000000000000000000000000000000000000000600052602160045260246000fd5b8152602001600482015481526020016005820154815250508152602001600b820160009054906101000a900473ffffffffffffffffffffffffffffffffffffffff1673ffffffffffffffffffffffffffffffffffffffff1673ffffffffffffffffffffffffffffffffffffffff168152602001600c8201805461047f906121dd565b80601f01602080910402602001604051908101604052809291908181526020018280546104ab906121dd565b80156104f85780601f106104cd576101008083540402835291602001916104f8565b820191906000526020600020905b8154815290600101906020018083116104db57829003601f168201915b5050505050815250509050919050565b6000602052806000526040600020600091509050806000015490806001018054610531906121dd565b80601f016020809104026020016040519081016040528092919081815260200182805461055d906121dd565b80156105aa5780601f1061057f576101008083540402835291602001916105aa565b820191906000526020600020905b81548152906001019060200180831161058d57829003601f168201915b5050505050908060020180546105bf906121dd565b80601f01602080910402602001604051908101604052809291908181526020018280546105eb906121dd565b80156106385780601f1061060d57610100808354040283529160200191610638565b820191906000526020600020905b81548152906001019060200180831161061b57829003601f168201915b505050505090806003015490806004015490806005016040518060c00160405290816000820154815260200160018201548152602001600282015481526020016003820160009054906101000a900460ff1660028111156106c2577f4e487b7100000000000000000000000000000000000000000000000000000000600052602160045260246000fd5b60028111156106fa577f4e487b7100000000000000000000000000000000000000000000000000000000600052602160045260246000fd5b8152602001600482015481526020016005820154815250509080600b0160009054906101000a900473ffffffffffffffffffffffffffffffffffffffff169080600c018054610748906121dd565b80601f0160208091040260200160405190810160405280929190818152602001828054610774906121dd565b80156107c15780601f10610796576101008083540402835291602001916107c1565b820191906000526020600020905b8154815290600101906020018083116107a457829003601f168201915b5050505050905088565b6060600080600190505b6001548111610869578373ffffffffffffffffffffffffffffffffffffffff16600080838152602001908152602001600020600b0160009054906101000a900473ffffffffffffffffffffffffffffffffffffffff1673ffffffffffffffffffffffffffffffffffffffff1614156108565781806108529061220f565b9250505b80806108619061220f565b9150506107d5565b5060008167ffffffffffffffff8111156108ac577f4e487b7100000000000000000000000000000000000000000000000000000000600052604160045260246000fd5b6040519080825280602002602001820160405280156108e557816020015b6108d2611437565b8152602001906001900390816108ca5790505b509050600080600190505b6001548111610cdd578573ffffffffffffffffffffffffffffffffffffffff16600080838152602001908152602001600020600b0160009054906101000a900473ffffffffffffffffffffffffffffffffffffffff1673ffffffffffffffffffffffffffffffffffffffff161415610cca57600080828152602001908152602001600020604051806101000160405290816000820154815260200160018201805461099a906121dd565b80601f01602080910402602001604051908101604052809291908181526020018280546109c6906121dd565b8015610a135780601f106109e857610100808354040283529160200191610a13565b820191906000526020600020905b8154815290600101906020018083116109f657829003601f168201915b50505050508152602001600282018054610a2c906121dd565b80601f0160208091040260200160405190810160405280929190818152602001828054610a58906121dd565b8015610aa55780601f10610a7a57610100808354040283529160200191610aa5565b820191906000526020600020905b815481529060010190602001808311610a8857829003601f168201915b505050505081526020016003820154815260200160048201548152602001600582016040518060c00160405290816000820154815260200160018201548152602001600282015481526020016003820160009054906101000a900460ff166002811115610b3b577f4e487b7100000000000000000000000000000000000000000000000000000000600052602160045260246000fd5b6002811115610b73577f4e487b7100000000000000000000000000000000000000000000000000000000600052602160045260246000fd5b8152602001600482015481526020016005820154815250508152602001600b820160009054906101000a900473ffffffffffffffffffffffffffffffffffffffff1673ffffffffffffffffffffffffffffffffffffffff1673ffffffffffffffffffffffffffffffffffffffff168152602001600c82018054610bf5906121dd565b80601f0160208091040260200160405190810160405280929190818152602001828054610c21906121dd565b8015610c6e5780601f10610c4357610100808354040283529160200191610c6e565b820191906000526020600020905b815481529060010190602001808311610c5157829003601f168201915b505050505081525050838381518110610cb0577f4e487b7100000000000000000000000000000000000000000000000000000000600052603260045260246000fd5b60200260200101819052508180610cc69061220f565b9250505b8080610cd59061220f565b9150506108f0565b50819350505050919050565b600260009054906101000a900473ffffffffffffffffffffffffffffffffffffffff1673ffffffffffffffffffffffffffffffffffffffff1663c74ced1c336040518263ffffffff1660e01b8152600401610d449190611e31565b60206040518083038186803b158015610d5c57600080fd5b505afa158015610d70573d6000803e3d6000fd5b505050506040513d601f19601f82011682018060405250810190610d9491906117d5565b610dd3576040517f08c379a0000000000000000000000000000000000000000000000000000000008152600401610dca90611e89565b60405180910390fd5b6000610de68260400151606001516111ed565b905060016000815480929190610dfb9061220f565b9190505550600154600080600154815260200190815260200160002060000181905550816000015160008060015481526020019081526020016000206001019080519060200190610e4d929190611498565b50816020015160008060015481526020019081526020016000206002019080519060200190610e7d929190611498565b50806000015160008060015481526020019081526020016000206003018190555080602001516000806001548152602001908152602001600020600401819055508160400151600080600154815260200190815260200160002060050160008201518160000155602082015181600101556040820151816002015560608201518160030160006101000a81548160ff02191690836002811115610f49577f4e487b7100000000000000000000000000000000000000000000000000000000600052602160045260246000fd5b02179055506080820151816004015560a08201518160050155905050336000806001548152602001908152602001600020600b0160006101000a81548173ffffffffffffffffffffffffffffffffffffffff021916908373ffffffffffffffffffffffffffffffffffffffff1602179055506040518060400160405280600881526020017f496e2053746f636b0000000000000000000000000000000000000000000000008152506000806001548152602001908152602001600020600c01908051906020019061101b929190611498565b507f8193aac6f424277fc758106db15a98f50eaf850bfd0b9178fbfa308e153b049560015483600001513360405161105593929190611f66565b60405180910390a15050565b60008211801561107357506001548211155b6110b2576040517f08c379a00000000000000000000000000000000000000000000000000000000081526004016110a990611ea9565b60405180910390fd5b3373ffffffffffffffffffffffffffffffffffffffff16600080848152602001908152602001600020600b0160009054906101000a900473ffffffffffffffffffffffffffffffffffffffff1673ffffffffffffffffffffffffffffffffffffffff1614611155576040517f08c379a000000000000000000000000000000000000000000000000000000000815260040161114c90611ec9565b60405180910390fd5b6000815111611199576040517f08c379a000000000000000000000000000000000000000000000000000000000815260040161119090611ee9565b60405180910390fd5b80600080848152602001908152602001600020600c0190805190602001906111c2929190611498565b505050565b600260009054906101000a900473ffffffffffffffffffffffffffffffffffffffff1681565b6111f561151e565b6001600281111561122f577f4e487b7100000000000000000000000000000000000000000000000000000000600052602160045260246000fd5b826002811115611268577f4e487b7100000000000000000000000000000000000000000000000000000000600052602160045260246000fd5b14156112ca5760405180604001604052807ffffffffffffffffffffffffffffffffffffffffffffffffffffffffffffffff181526020017fffffffffffffffffffffffffffffffffffffffffffffffffffffffffffffffe78152509050611432565b60006002811115611304577f4e487b7100000000000000000000000000000000000000000000000000000000600052602160045260246000fd5b82600281111561133d577f4e487b7100000000000000000000000000000000000000000000000000000000600052602160045260246000fd5b14156113615760405180604001604052806004815260200160008152509050611432565b60028081111561139a577f4e487b7100000000000000000000000000000000000000000000000000000000600052602160045260246000fd5b8260028111156113d3577f4e487b7100000000000000000000000000000000000000000000000000000000600052602160045260246000fd5b14156113f757604051806040016040528060198152602001600f8152509050611432565b6040517f08c379a000000000000000000000000000000000000000000000000000000000815260040161142990611f09565b60405180910390fd5b919050565b604051806101000160405280600081526020016060815260200160608152602001600081526020016000815260200161146e611538565b8152602001600073ffffffffffffffffffffffffffffffffffffffff168152602001606081525090565b8280546114a4906121dd565b90600052602060002090601f0160209004810192826114c6576000855561150d565b82601f106114df57805160ff191683800117855561150d565b8280016001018555821561150d579182015b8281111561150c5782518255916020019190600101906114f1565b5b50905061151a91906115a6565b5090565b604051806040016040528060008152602001600081525090565b6040518060c0016040528060008152602001600081526020016000815260200160006002811115611592577f4e487b7100000000000000000000000000000000000000000000000000000000600052602160045260246000fd5b815260200160008152602001600081525090565b5b808211156115bf5760008160009055506001016115a7565b5090565b60006115d66115d18461206a565b612039565b9050828152602081018484840111156115ee57600080fd5b6115f984828561219b565b509392505050565b60008135905061161081612339565b92915050565b60008151905061162581612350565b92915050565b60008135905061163a81612367565b92915050565b600082601f83011261165157600080fd5b81356116618482602086016115c3565b91505092915050565b6000610100828403121561167d57600080fd5b6116876060612039565b9050600082013567ffffffffffffffff8111156116a357600080fd5b6116af84828501611640565b600083015250602082013567ffffffffffffffff8111156116cf57600080fd5b6116db84828501611640565b60208301525060406116ef848285016116fb565b60408301525092915050565b600060c0828403121561170d57600080fd5b61171760c0612039565b9050600061172784828501611797565b600083015250602061173b84828501611797565b602083015250604061174f84828501611797565b60408301525060606117638482850161162b565b606083015250608061177784828501611797565b60808301525060a061178b84828501611797565b60a08301525092915050565b6000813590506117a681612377565b92915050565b6000602082840312156117be57600080fd5b60006117cc84828501611601565b91505092915050565b6000602082840312156117e757600080fd5b60006117f584828501611616565b91505092915050565b60006020828403121561181057600080fd5b600082013567ffffffffffffffff81111561182a57600080fd5b6118368482850161166a565b91505092915050565b60006020828403121561185157600080fd5b600061185f84828501611797565b91505092915050565b6000806040838503121561187b57600080fd5b600061188985828601611797565b925050602083013567ffffffffffffffff8111156118a657600080fd5b6118b285828601611640565b9150509250929050565b60006118c88383611c93565b905092915050565b6118d981612100565b82525050565b6118e881612100565b82525050565b60006118f9826120aa565b61190381856120cd565b9350836020820285016119158561209a565b8060005b85811015611951578484038952815161193285826118bc565b945061193d836120c0565b925060208a01995050600181019050611919565b50829750879550505050505092915050565b61196c81612165565b82525050565b61197b81612189565b82525050565b61198a81612131565b82525050565b61199981612131565b82525050565b60006119aa826120b5565b6119b481856120de565b93506119c48185602086016121aa565b6119cd81612314565b840191505092915050565b60006119e3826120b5565b6119ed81856120ef565b93506119fd8185602086016121aa565b611a0681612314565b840191505092915050565b6000611a1e602f836120ef565b91507f4f6e6c792072656769737465726564206d616e7566616374757265727320636160008301527f6e206164642070726f64756374732e00000000000000000000000000000000006020830152604082019050919050565b6000611a846017836120ef565b91507f50726f6475637420646f6573206e6f742065786973742e0000000000000000006000830152602082019050919050565b6000611ac4602c836120ef565b91507f4f6e6c7920746865206d616e7566616374757265722063616e2075706461746560008301527f20746865207374617475732e00000000000000000000000000000000000000006020830152604082019050919050565b6000611b2a6017836120ef565b91507f5374617475732063616e6e6f7420626520656d7074792e0000000000000000006000830152602082019050919050565b6000611b6a6016836120ef565b91507f496e76616c6964207472616e73706f7274206d6f6465000000000000000000006000830152602082019050919050565b60c082016000820151611bb36000850182611e13565b506020820151611bc66020850182611e13565b506040820151611bd96040850182611e13565b506060820151611bec6060850182611972565b506080820151611bff6080850182611e13565b5060a0820151611c1260a0850182611e13565b50505050565b60c082016000820151611c2e6000850182611e13565b506020820151611c416020850182611e13565b506040820151611c546040850182611e13565b506060820151611c676060850182611972565b506080820151611c7a6080850182611e13565b5060a0820151611c8d60a0850182611e13565b50505050565b60006101a083016000830151611cac6000860182611e13565b5060208301518482036020860152611cc4828261199f565b91505060408301518482036040860152611cde828261199f565b9150506060830151611cf36060860182611981565b506080830151611d066080860182611981565b5060a0830151611d1960a0860182611b9d565b5060c0830151611d2d6101608601826118d0565b5060e0830151848203610180860152611d46828261199f565b9150508091505092915050565b60006101a083016000830151611d6c6000860182611e13565b5060208301518482036020860152611d84828261199f565b91505060408301518482036040860152611d9e828261199f565b9150506060830151611db36060860182611981565b506080830151611dc66080860182611981565b5060a0830151611dd960a0860182611b9d565b5060c0830151611ded6101608601826118d0565b5060e0830151848203610180860152611e06828261199f565b9150508091505092915050565b611e1c8161215b565b82525050565b611e2b8161215b565b82525050565b6000602082019050611e4660008301846118df565b92915050565b60006020820190508181036000830152611e6681846118ee565b905092915050565b6000602082019050611e836000830184611963565b92915050565b60006020820190508181036000830152611ea281611a11565b9050919050565b60006020820190508181036000830152611ec281611a77565b9050919050565b60006020820190508181036000830152611ee281611ab7565b9050919050565b60006020820190508181036000830152611f0281611b1d565b9050919050565b60006020820190508181036000830152611f2281611b5d565b9050919050565b60006020820190508181036000830152611f438184611d53565b905092915050565b6000602082019050611f606000830184611e22565b92915050565b6000606082019050611f7b6000830186611e22565b8181036020830152611f8d81856119d8565b9050611f9c60408301846118df565b949350505050565b60006101a082019050611fba600083018b611e22565b8181036020830152611fcc818a6119d8565b90508181036040830152611fe081896119d8565b9050611fef6060830188611990565b611ffc6080830187611990565b61200960a0830186611c18565b6120176101608301856118df565b81810361018083015261202a81846119d8565b90509998505050505050505050565b6000604051905081810181811067ffffffffffffffff821117156120605761205f6122e5565b5b8060405250919050565b600067ffffffffffffffff821115612085576120846122e5565b5b601f19601f8301169050602081019050919050565b6000819050602082019050919050565b600081519050919050565b600081519050919050565b6000602082019050919050565b600082825260208201905092915050565b600082825260208201905092915050565b600082825260208201905092915050565b600061210b8261213b565b9050919050565b60008115159050919050565b600081905061212c82612325565b919050565b6000819050919050565b600073ffffffffffffffffffffffffffffffffffffffff82169050919050565b6000819050919050565b600061217082612177565b9050919050565b60006121828261213b565b9050919050565b60006121948261211e565b9050919050565b82818337600083830152505050565b60005b838110156121c85780820151818401526020810190506121ad565b838111156121d7576000848401525b50505050565b600060028204905060018216806121f557607f821691505b60208210811415612209576122086122b6565b5b50919050565b600061221a8261215b565b91507fffffffffffffffffffffffffffffffffffffffffffffffffffffffffffffffff82141561224d5761224c612258565b5b600182019050919050565b7f4e487b7100000000000000000000000000000000000000000000000000000000600052601160045260246000fd5b7f4e487b7100000000000000000000000000000000000000000000000000000000600052602160045260246000fd5b7f4e487b7100000000000000000000000000000000000000000000000000000000600052602260045260246000fd5b7f4e487b7100000000000000000000000000000000000000000000000000000000600052604160045260246000fd5b6000601f19601f8301169050919050565b6003811061233657612335612287565b5b50565b61234281612100565b811461234d57600080fd5b50565b61235981612112565b811461236457600080fd5b50565b6003811061237457600080fd5b50565b6123808161215b565b811461238b57600080fd5b5056fea26469706673582212202494b6b296af6f4f7f77a6ab3cb5e5ba167440297c4e1ad3e28d4b4ee7b5ebdc64736f6c63430008000033",
  "immutableReferences": {},
  "source": "// SPDX-License-Identifier: MIT\r\npragma solidity ^0.8.0;\r\n\r\ninterface IRoleContract {\r\n    function checkManufacturer(address _address) external view returns (bool);\r\n}\r\n\r\ncontract ProductContract {\r\n    enum TransportMode { Refrigerated, Frozen, Ambient }\r\n\r\n    struct ProductDetails {\r\n        uint weight;\r\n        uint price;\r\n        uint itemsPerPack;\r\n        TransportMode transportMode;\r\n        uint256 minOrderQuantity;\r\n        uint256 maxOrderQuantity;\r\n    }\r\n\r\n    struct Product {\r\n        uint productId;\r\n        string name;\r\n        string description;\r\n        int maxTemp;\r\n        int minTemp;\r\n        ProductDetails details;\r\n        address manufacturer;\r\n        string status;\r\n    }\r\n\r\n    struct NewProductInput {\r\n        string name;\r\n        string description;\r\n        ProductDetails details;\r\n    }\r\n\r\n    struct TemperatureRange {\r\n        int maxTemp;\r\n        int minTemp;\r\n    }\r\n\r\n    mapping(uint => Product) public products;\r\n    uint public productCounter = 0;\r\n    IRoleContract public roleContract;\r\n\r\n    event ProductAdded(uint productId, string name, address manufacturer);\r\n\r\n    constructor(address _roleContractAddress) {\r\n        roleContract = IRoleContract(_roleContractAddress);\r\n    }\r\n\r\n    function addProduct(NewProductInput memory input) public {\r\n        require(roleContract.checkManufacturer(msg.sender), \"Only registered manufacturers can add products.\");\r\n\r\n        TemperatureRange memory tempRange = getTemperatureRange(input.details.transportMode);\r\n\r\n        productCounter++;\r\n\r\n        products[productCounter].productId = productCounter;\r\n        products[productCounter].name = input.name;\r\n        products[productCounter].description = input.description;\r\n        products[productCounter].maxTemp = tempRange.maxTemp;\r\n        products[productCounter].minTemp = tempRange.minTemp;\r\n        products[productCounter].details = input.details;\r\n        products[productCounter].manufacturer = msg.sender;\r\n        products[productCounter].status = \"In Stock\";\r\n\r\n        emit ProductAdded(productCounter, input.name, msg.sender);\r\n    }\r\n\r\n    function getTemperatureRange(TransportMode mode) internal pure returns (TemperatureRange memory) {\r\n        if (mode == TransportMode.Frozen) {\r\n            return TemperatureRange(-15, -25);\r\n        } else if (mode == TransportMode.Refrigerated) {\r\n            return TemperatureRange(4, 0);\r\n        } else if (mode == TransportMode.Ambient) {\r\n            return TemperatureRange(25, 15);\r\n        } else {\r\n            revert(\"Invalid transport mode\");\r\n        }\r\n    }\r\n\r\n    function getProductsByManufacturer(address _manufacturer) public view returns (Product[] memory) {\r\n        uint count = 0;\r\n        for (uint i = 1; i <= productCounter; i++) {\r\n            if (products[i].manufacturer == _manufacturer) {\r\n                count++;\r\n            }\r\n        }\r\n\r\n        Product[] memory result = new Product[](count);\r\n        uint index = 0;\r\n        for (uint i = 1; i <= productCounter; i++) {\r\n            if (products[i].manufacturer == _manufacturer) {\r\n                result[index] = products[i];\r\n                index++;\r\n            }\r\n        }\r\n\r\n        return result;\r\n    }\r\n\r\n    function getProductById(uint _productId) public view returns (Product memory) {\r\n        require(_productId > 0 && _productId <= productCounter, \"Product does not exist.\");\r\n        return products[_productId];\r\n    }\r\n\r\n    function updateProductStatus(uint _productId, string memory _newStatus) public {\r\n        require(_productId > 0 && _productId <= productCounter, \"Product does not exist.\");\r\n        require(products[_productId].manufacturer == msg.sender, \"Only the manufacturer can update the status.\");\r\n        require(bytes(_newStatus).length > 0, \"Status cannot be empty.\");\r\n\r\n        products[_productId].status = _newStatus;\r\n    }\r\n}\r\n",
  "sourcePath": "C:\\Users\\noram\\Downloads\\farm-to-fork sprint 1\\contracts\\Product.sol",
  "compiler": {
    "name": "solc",
    "version": "0.8.0+commit.c7dfd78e.Emscripten.clang"
  },
  "schemaVersion": "3.4.16",
  "updatedAt": "2025-05-10T10:27:09.148Z",
  "networkType": "ethereum",
  "devdoc": {
    "kind": "dev",
    "methods": {},
    "version": 1
  },
  "userdoc": {
    "kind": "user",
    "methods": {},
    "version": 1
  }
}