{
  "contractName": "ProductContract",
  "abi": [
    {
      "inputs": [
        {
          "internalType": "address",
          "name": "_roleContractAddress",
          "type": "address"
        }
      ],
      "stateMutability": "nonpayable",
      "type": "constructor"
    },
    {
      "anonymous": false,
      "inputs": [
        {
          "indexed": false,
          "internalType": "uint256",
          "name": "productId",
          "type": "uint256"
        },
        {
          "indexed": false,
          "internalType": "string",
          "name": "name",
          "type": "string"
        },
        {
          "indexed": false,
          "internalType": "address",
          "name": "manufacturer",
          "type": "address"
        }
      ],
      "name": "ProductAdded",
      "type": "event"
    },
    {
      "inputs": [],
      "name": "productCounter",
      "outputs": [
        {
          "internalType": "uint256",
          "name": "",
          "type": "uint256"
        }
      ],
      "stateMutability": "view",
      "type": "function",
      "constant": true
    },
    {
      "inputs": [
        {
          "internalType": "uint256",
          "name": "",
          "type": "uint256"
        }
      ],
      "name": "products",
      "outputs": [
        {
          "internalType": "uint256",
          "name": "productId",
          "type": "uint256"
        },
        {
          "internalType": "string",
          "name": "name",
          "type": "string"
        },
        {
          "internalType": "string",
          "name": "description",
          "type": "string"
        },
        {
          "internalType": "int256",
          "name": "maxTemp",
          "type": "int256"
        },
        {
          "internalType": "int256",
          "name": "minTemp",
          "type": "int256"
        },
        {
          "internalType": "uint256",
          "name": "weight",
          "type": "uint256"
        },
        {
          "internalType": "uint256",
          "name": "price",
          "type": "uint256"
        },
        {
          "internalType": "uint256",
          "name": "itemsPerPack",
          "type": "uint256"
        },
        {
          "internalType": "address",
          "name": "manufacturer",
          "type": "address"
        },
        {
          "internalType": "string",
          "name": "status",
          "type": "string"
        },
        {
          "internalType": "enum ProductContract.TransportMode",
          "name": "transportMode",
          "type": "uint8"
        }
      ],
      "stateMutability": "view",
      "type": "function",
      "constant": true
    },
    {
      "inputs": [],
      "name": "roleContract",
      "outputs": [
        {
          "internalType": "contract IRoleContract",
          "name": "",
          "type": "address"
        }
      ],
      "stateMutability": "view",
      "type": "function",
      "constant": true
    },
    {
      "inputs": [
        {
          "internalType": "string",
          "name": "_name",
          "type": "string"
        },
        {
          "internalType": "string",
          "name": "_description",
          "type": "string"
        },
        {
          "internalType": "uint256",
          "name": "_weight",
          "type": "uint256"
        },
        {
          "internalType": "uint256",
          "name": "_price",
          "type": "uint256"
        },
        {
          "internalType": "uint256",
          "name": "_itemsPerPack",
          "type": "uint256"
        },
        {
          "internalType": "enum ProductContract.TransportMode",
          "name": "_transportMode",
          "type": "uint8"
        }
      ],
      "name": "addProduct",
      "outputs": [],
      "stateMutability": "nonpayable",
      "type": "function"
    },
    {
      "inputs": [
        {
          "internalType": "address",
          "name": "_manufacturer",
          "type": "address"
        }
      ],
      "name": "getProductsByManufacturer",
      "outputs": [
        {
          "components": [
            {
              "internalType": "uint256",
              "name": "productId",
              "type": "uint256"
            },
            {
              "internalType": "string",
              "name": "name",
              "type": "string"
            },
            {
              "internalType": "string",
              "name": "description",
              "type": "string"
            },
            {
              "internalType": "int256",
              "name": "maxTemp",
              "type": "int256"
            },
            {
              "internalType": "int256",
              "name": "minTemp",
              "type": "int256"
            },
            {
              "internalType": "uint256",
              "name": "weight",
              "type": "uint256"
            },
            {
              "internalType": "uint256",
              "name": "price",
              "type": "uint256"
            },
            {
              "internalType": "uint256",
              "name": "itemsPerPack",
              "type": "uint256"
            },
            {
              "internalType": "address",
              "name": "manufacturer",
              "type": "address"
            },
            {
              "internalType": "string",
              "name": "status",
              "type": "string"
            },
            {
              "internalType": "enum ProductContract.TransportMode",
              "name": "transportMode",
              "type": "uint8"
            }
          ],
          "internalType": "struct ProductContract.Product[]",
          "name": "",
          "type": "tuple[]"
        }
      ],
      "stateMutability": "view",
      "type": "function",
      "constant": true
    },
    {
      "inputs": [
        {
          "internalType": "uint256",
          "name": "_productId",
          "type": "uint256"
        }
      ],
      "name": "getProductById",
      "outputs": [
        {
          "components": [
            {
              "internalType": "uint256",
              "name": "productId",
              "type": "uint256"
            },
            {
              "internalType": "string",
              "name": "name",
              "type": "string"
            },
            {
              "internalType": "string",
              "name": "description",
              "type": "string"
            },
            {
              "internalType": "int256",
              "name": "maxTemp",
              "type": "int256"
            },
            {
              "internalType": "int256",
              "name": "minTemp",
              "type": "int256"
            },
            {
              "internalType": "uint256",
              "name": "weight",
              "type": "uint256"
            },
            {
              "internalType": "uint256",
              "name": "price",
              "type": "uint256"
            },
            {
              "internalType": "uint256",
              "name": "itemsPerPack",
              "type": "uint256"
            },
            {
              "internalType": "address",
              "name": "manufacturer",
              "type": "address"
            },
            {
              "internalType": "string",
              "name": "status",
              "type": "string"
            },
            {
              "internalType": "enum ProductContract.TransportMode",
              "name": "transportMode",
              "type": "uint8"
            }
          ],
          "internalType": "struct ProductContract.Product",
          "name": "",
          "type": "tuple"
        }
      ],
      "stateMutability": "view",
      "type": "function",
      "constant": true
    }
  ],
  "bytecode": "0x608060405260006001553480156200001657600080fd5b50604051620020eb380380620020eb83398181016040528101906200003c91906200009b565b80600260006101000a81548173ffffffffffffffffffffffffffffffffffffffff021916908373ffffffffffffffffffffffffffffffffffffffff1602179055505062000115565b6000815190506200009581620000fb565b92915050565b600060208284031215620000ae57600080fd5b6000620000be8482850162000084565b91505092915050565b6000620000d482620000db565b9050919050565b600073ffffffffffffffffffffffffffffffffffffffff82169050919050565b6200010681620000c7565b81146200011257600080fd5b50565b611fc680620001256000396000f3fe608060405234801561001057600080fd5b50600436106100625760003560e01c80631c5cc14d146100675780631f16653b146100835780633f70c2b4146100a15780637acc0b20146100d1578063849df74a1461010b578063f89723b81461013b575b600080fd5b610081600480360381019061007c91906114d0565b610159565b005b61008b6104e3565b6040516100989190611aee565b60405180910390f35b6100bb60048036038101906100b69190611589565b6104e9565b6040516100c89190611acc565b60405180910390f35b6100eb60048036038101906100e69190611589565b610878565b6040516101029b9a99989796959493929190611b47565b60405180910390f35b6101256004803603810190610120919061147e565b610aa7565b6040516101329190611a2f565b60405180910390f35b61014361103f565b6040516101509190611a51565b60405180910390f35b600260009054906101000a900473ffffffffffffffffffffffffffffffffffffffff1673ffffffffffffffffffffffffffffffffffffffff1663c74ced1c336040518263ffffffff1660e01b81526004016101b49190611a14565b60206040518083038186803b1580156101cc57600080fd5b505afa1580156101e0573d6000803e3d6000fd5b505050506040513d601f19601f8201168201806040525081019061020491906114a7565b610243576040517f08c379a000000000000000000000000000000000000000000000000000000000815260040161023a90611a6c565b60405180910390fd5b60008061024f83611065565b915091506001600081548092919061026690611e11565b9190505550600060405180610160016040528060015481526020018a81526020018981526020018481526020018381526020018881526020018781526020018681526020013373ffffffffffffffffffffffffffffffffffffffff1681526020016040518060400160405280600881526020017f496e2053746f636b000000000000000000000000000000000000000000000000815250815260200185600281111561033b577f4e487b7100000000000000000000000000000000000000000000000000000000600052602160045260246000fd5b81525090806001815401808255809150506001900390600052602060002090600b020160009091909190915060008201518160000155602082015181600101908051906020019061038d929190611277565b5060408201518160020190805190602001906103aa929190611277565b50606082015181600301556080820151816004015560a0820151816005015560c0820151816006015560e082015181600701556101008201518160080160006101000a81548173ffffffffffffffffffffffffffffffffffffffff021916908373ffffffffffffffffffffffffffffffffffffffff160217905550610120820151816009019080519060200190610442929190611277565b5061014082015181600a0160006101000a81548160ff02191690836002811115610495577f4e487b7100000000000000000000000000000000000000000000000000000000600052602160045260246000fd5b021790555050507f8193aac6f424277fc758106db15a98f50eaf850bfd0b9178fbfa308e153b049560015489336040516104d193929190611b09565b60405180910390a15050505050505050565b60015481565b6104f16112fd565b60008211801561050357506001548211155b610542576040517f08c379a000000000000000000000000000000000000000000000000000000000815260040161053990611a8c565b60405180910390fd5b60006001836105519190611cce565b81548110610588577f4e487b7100000000000000000000000000000000000000000000000000000000600052603260045260246000fd5b90600052602060002090600b020160405180610160016040529081600082015481526020016001820180546105bc90611ddf565b80601f01602080910402602001604051908101604052809291908181526020018280546105e890611ddf565b80156106355780601f1061060a57610100808354040283529160200191610635565b820191906000526020600020905b81548152906001019060200180831161061857829003601f168201915b5050505050815260200160028201805461064e90611ddf565b80601f016020809104026020016040519081016040528092919081815260200182805461067a90611ddf565b80156106c75780601f1061069c576101008083540402835291602001916106c7565b820191906000526020600020905b8154815290600101906020018083116106aa57829003601f168201915b5050505050815260200160038201548152602001600482015481526020016005820154815260200160068201548152602001600782015481526020016008820160009054906101000a900473ffffffffffffffffffffffffffffffffffffffff1673ffffffffffffffffffffffffffffffffffffffff1673ffffffffffffffffffffffffffffffffffffffff16815260200160098201805461076890611ddf565b80601f016020809104026020016040519081016040528092919081815260200182805461079490611ddf565b80156107e15780601f106107b6576101008083540402835291602001916107e1565b820191906000526020600020905b8154815290600101906020018083116107c457829003601f168201915b50505050508152602001600a820160009054906101000a900460ff166002811115610835577f4e487b7100000000000000000000000000000000000000000000000000000000600052602160045260246000fd5b600281111561086d577f4e487b7100000000000000000000000000000000000000000000000000000000600052602160045260246000fd5b815250509050919050565b6000818154811061088857600080fd5b90600052602060002090600b02016000915090508060000154908060010180546108b190611ddf565b80601f01602080910402602001604051908101604052809291908181526020018280546108dd90611ddf565b801561092a5780601f106108ff5761010080835404028352916020019161092a565b820191906000526020600020905b81548152906001019060200180831161090d57829003601f168201915b50505050509080600201805461093f90611ddf565b80601f016020809104026020016040519081016040528092919081815260200182805461096b90611ddf565b80156109b85780601f1061098d576101008083540402835291602001916109b8565b820191906000526020600020905b81548152906001019060200180831161099b57829003601f168201915b5050505050908060030154908060040154908060050154908060060154908060070154908060080160009054906101000a900473ffffffffffffffffffffffffffffffffffffffff1690806009018054610a1190611ddf565b80601f0160208091040260200160405190810160405280929190818152602001828054610a3d90611ddf565b8015610a8a5780601f10610a5f57610100808354040283529160200191610a8a565b820191906000526020600020905b815481529060010190602001808311610a6d57829003601f168201915b50505050509080600a0160009054906101000a900460ff1690508b565b60606000805b600080549050811015610b7b578373ffffffffffffffffffffffffffffffffffffffff1660008281548110610b0b577f4e487b7100000000000000000000000000000000000000000000000000000000600052603260045260246000fd5b90600052602060002090600b020160080160009054906101000a900473ffffffffffffffffffffffffffffffffffffffff1673ffffffffffffffffffffffffffffffffffffffff161415610b68578180610b6490611e11565b9250505b8080610b7390611e11565b915050610aad565b5060008167ffffffffffffffff811115610bbe577f4e487b7100000000000000000000000000000000000000000000000000000000600052604160045260246000fd5b604051908082528060200260200182016040528015610bf757816020015b610be46112fd565b815260200190600190039081610bdc5790505b5090506000805b600080549050811015611033578573ffffffffffffffffffffffffffffffffffffffff1660008281548110610c5c577f4e487b7100000000000000000000000000000000000000000000000000000000600052603260045260246000fd5b90600052602060002090600b020160080160009054906101000a900473ffffffffffffffffffffffffffffffffffffffff1673ffffffffffffffffffffffffffffffffffffffff1614156110205760008181548110610ce4577f4e487b7100000000000000000000000000000000000000000000000000000000600052603260045260246000fd5b90600052602060002090600b02016040518061016001604052908160008201548152602001600182018054610d1890611ddf565b80601f0160208091040260200160405190810160405280929190818152602001828054610d4490611ddf565b8015610d915780601f10610d6657610100808354040283529160200191610d91565b820191906000526020600020905b815481529060010190602001808311610d7457829003601f168201915b50505050508152602001600282018054610daa90611ddf565b80601f0160208091040260200160405190810160405280929190818152602001828054610dd690611ddf565b8015610e235780601f10610df857610100808354040283529160200191610e23565b820191906000526020600020905b815481529060010190602001808311610e0657829003601f168201915b5050505050815260200160038201548152602001600482015481526020016005820154815260200160068201548152602001600782015481526020016008820160009054906101000a900473ffffffffffffffffffffffffffffffffffffffff1673ffffffffffffffffffffffffffffffffffffffff1673ffffffffffffffffffffffffffffffffffffffff168152602001600982018054610ec490611ddf565b80601f0160208091040260200160405190810160405280929190818152602001828054610ef090611ddf565b8015610f3d5780601f10610f1257610100808354040283529160200191610f3d565b820191906000526020600020905b815481529060010190602001808311610f2057829003601f168201915b50505050508152602001600a820160009054906101000a900460ff166002811115610f91577f4e487b7100000000000000000000000000000000000000000000000000000000600052602160045260246000fd5b6002811115610fc9577f4e487b7100000000000000000000000000000000000000000000000000000000600052602160045260246000fd5b81525050838381518110611006577f4e487b7100000000000000000000000000000000000000000000000000000000600052603260045260246000fd5b6020026020010181905250818061101c90611e11565b9250505b808061102b90611e11565b915050610bfe565b50819350505050919050565b600260009054906101000a900473ffffffffffffffffffffffffffffffffffffffff1681565b600080600160028111156110a2577f4e487b7100000000000000000000000000000000000000000000000000000000600052602160045260246000fd5b8360028111156110db577f4e487b7100000000000000000000000000000000000000000000000000000000600052602160045260246000fd5b141561112c577ffffffffffffffffffffffffffffffffffffffffffffffffffffffffffffffff17fffffffffffffffffffffffffffffffffffffffffffffffffffffffffffffffe791509150611272565b60006002811115611166577f4e487b7100000000000000000000000000000000000000000000000000000000600052602160045260246000fd5b83600281111561119f577f4e487b7100000000000000000000000000000000000000000000000000000000600052602160045260246000fd5b14156111b2576004600091509150611272565b6002808111156111eb577f4e487b7100000000000000000000000000000000000000000000000000000000600052602160045260246000fd5b836002811115611224577f4e487b7100000000000000000000000000000000000000000000000000000000600052602160045260246000fd5b1415611237576019600f91509150611272565b6040517f08c379a000000000000000000000000000000000000000000000000000000000815260040161126990611aac565b60405180910390fd5b915091565b82805461128390611ddf565b90600052602060002090601f0160209004810192826112a557600085556112ec565b82601f106112be57805160ff19168380011785556112ec565b828001600101855582156112ec579182015b828111156112eb5782518255916020019190600101906112d0565b5b5090506112f991906113a5565b5090565b6040518061016001604052806000815260200160608152602001606081526020016000815260200160008152602001600081526020016000815260200160008152602001600073ffffffffffffffffffffffffffffffffffffffff168152602001606081526020016000600281111561139f577f4e487b7100000000000000000000000000000000000000000000000000000000600052602160045260246000fd5b81525090565b5b808211156113be5760008160009055506001016113a6565b5090565b60006113d56113d084611c38565b611c07565b9050828152602081018484840111156113ed57600080fd5b6113f8848285611d9d565b509392505050565b60008135905061140f81611f3b565b92915050565b60008151905061142481611f52565b92915050565b60008135905061143981611f69565b92915050565b600082601f83011261145057600080fd5b81356114608482602086016113c2565b91505092915050565b60008135905061147881611f79565b92915050565b60006020828403121561149057600080fd5b600061149e84828501611400565b91505092915050565b6000602082840312156114b957600080fd5b60006114c784828501611415565b91505092915050565b60008060008060008060c087890312156114e957600080fd5b600087013567ffffffffffffffff81111561150357600080fd5b61150f89828a0161143f565b965050602087013567ffffffffffffffff81111561152c57600080fd5b61153889828a0161143f565b955050604061154989828a01611469565b945050606061155a89828a01611469565b935050608061156b89828a01611469565b92505060a061157c89828a0161142a565b9150509295509295509295565b60006020828403121561159b57600080fd5b60006115a984828501611469565b91505092915050565b60006115be83836117fc565b905092915050565b6115cf81611d02565b82525050565b6115de81611d02565b82525050565b60006115ef82611c78565b6115f98185611c9b565b93508360208202850161160b85611c68565b8060005b85811015611647578484038952815161162885826115b2565b945061163383611c8e565b925060208a0199505060018101905061160f565b50829750879550505050505092915050565b61166281611d67565b82525050565b61167181611d8b565b82525050565b61168081611d8b565b82525050565b61168f81611d33565b82525050565b61169e81611d33565b82525050565b60006116af82611c83565b6116b98185611cac565b93506116c9818560208601611dac565b6116d281611f16565b840191505092915050565b60006116e882611c83565b6116f28185611cbd565b9350611702818560208601611dac565b61170b81611f16565b840191505092915050565b6000611723602f83611cbd565b91507f4f6e6c792072656769737465726564206d616e7566616374757265727320636160008301527f6e206164642070726f64756374732e00000000000000000000000000000000006020830152604082019050919050565b6000611789601783611cbd565b91507f50726f6475637420646f6573206e6f742065786973742e0000000000000000006000830152602082019050919050565b60006117c9601683611cbd565b91507f496e76616c6964207472616e73706f7274206d6f6465000000000000000000006000830152602082019050919050565b60006101608301600083015161181560008601826119f6565b506020830151848203602086015261182d82826116a4565b9150506040830151848203604086015261184782826116a4565b915050606083015161185c6060860182611686565b50608083015161186f6080860182611686565b5060a083015161188260a08601826119f6565b5060c083015161189560c08601826119f6565b5060e08301516118a860e08601826119f6565b506101008301516118bd6101008601826115c6565b506101208301518482036101208601526118d782826116a4565b9150506101408301516118ee610140860182611668565b508091505092915050565b60006101608301600083015161191260008601826119f6565b506020830151848203602086015261192a82826116a4565b9150506040830151848203604086015261194482826116a4565b91505060608301516119596060860182611686565b50608083015161196c6080860182611686565b5060a083015161197f60a08601826119f6565b5060c083015161199260c08601826119f6565b5060e08301516119a560e08601826119f6565b506101008301516119ba6101008601826115c6565b506101208301518482036101208601526119d482826116a4565b9150506101408301516119eb610140860182611668565b508091505092915050565b6119ff81611d5d565b82525050565b611a0e81611d5d565b82525050565b6000602082019050611a2960008301846115d5565b92915050565b60006020820190508181036000830152611a4981846115e4565b905092915050565b6000602082019050611a666000830184611659565b92915050565b60006020820190508181036000830152611a8581611716565b9050919050565b60006020820190508181036000830152611aa58161177c565b9050919050565b60006020820190508181036000830152611ac5816117bc565b9050919050565b60006020820190508181036000830152611ae681846118f9565b905092915050565b6000602082019050611b036000830184611a05565b92915050565b6000606082019050611b1e6000830186611a05565b8181036020830152611b3081856116dd565b9050611b3f60408301846115d5565b949350505050565b600061016082019050611b5d600083018e611a05565b8181036020830152611b6f818d6116dd565b90508181036040830152611b83818c6116dd565b9050611b92606083018b611695565b611b9f608083018a611695565b611bac60a0830189611a05565b611bb960c0830188611a05565b611bc660e0830187611a05565b611bd46101008301866115d5565b818103610120830152611be781856116dd565b9050611bf7610140830184611677565b9c9b505050505050505050505050565b6000604051905081810181811067ffffffffffffffff82111715611c2e57611c2d611ee7565b5b8060405250919050565b600067ffffffffffffffff821115611c5357611c52611ee7565b5b601f19601f8301169050602081019050919050565b6000819050602082019050919050565b600081519050919050565b600081519050919050565b6000602082019050919050565b600082825260208201905092915050565b600082825260208201905092915050565b600082825260208201905092915050565b6000611cd982611d5d565b9150611ce483611d5d565b925082821015611cf757611cf6611e5a565b5b828203905092915050565b6000611d0d82611d3d565b9050919050565b60008115159050919050565b6000819050611d2e82611f27565b919050565b6000819050919050565b600073ffffffffffffffffffffffffffffffffffffffff82169050919050565b6000819050919050565b6000611d7282611d79565b9050919050565b6000611d8482611d3d565b9050919050565b6000611d9682611d20565b9050919050565b82818337600083830152505050565b60005b83811015611dca578082015181840152602081019050611daf565b83811115611dd9576000848401525b50505050565b60006002820490506001821680611df757607f821691505b60208210811415611e0b57611e0a611eb8565b5b50919050565b6000611e1c82611d5d565b91507fffffffffffffffffffffffffffffffffffffffffffffffffffffffffffffffff821415611e4f57611e4e611e5a565b5b600182019050919050565b7f4e487b7100000000000000000000000000000000000000000000000000000000600052601160045260246000fd5b7f4e487b7100000000000000000000000000000000000000000000000000000000600052602160045260246000fd5b7f4e487b7100000000000000000000000000000000000000000000000000000000600052602260045260246000fd5b7f4e487b7100000000000000000000000000000000000000000000000000000000600052604160045260246000fd5b6000601f19601f8301169050919050565b60038110611f3857611f37611e89565b5b50565b611f4481611d02565b8114611f4f57600080fd5b50565b611f5b81611d14565b8114611f6657600080fd5b50565b60038110611f7657600080fd5b50565b611f8281611d5d565b8114611f8d57600080fd5b5056fea2646970667358221220cde44b2ef1b348edc4236570eac311c58855d70da2434328811a9d2256ce68e264736f6c63430008000033",
  "immutableReferences": {},
  "source": "// SPDX-License-Identifier: MIT\r\npragma solidity ^0.8.0;\r\n\r\ninterface IRoleContract {\r\n    function checkManufacturer(address _address) external view returns (bool);\r\n}\r\n\r\ncontract ProductContract {\r\n    enum TransportMode { Refrigerated, Frozen, Ambient }\r\n\r\n    struct Product {\r\n        uint productId;\r\n        string name;\r\n        string description;\r\n        int maxTemp;\r\n        int minTemp;\r\n        uint weight;\r\n        uint price;\r\n        uint itemsPerPack; // Number of items per pack\r\n        address manufacturer;  // Ethereum address of the manufacturer\r\n        string status;  // Product status (e.g., \"In Stock\", \"Out of Stock\")\r\n        TransportMode transportMode; // Transport mode\r\n    }\r\n\r\n    Product[] public products;\r\n    uint public productCounter = 0;\r\n    IRoleContract public roleContract;  // Interface to the RoleContract\r\n\r\n    event ProductAdded(uint productId, string name, address manufacturer);\r\n\r\n    constructor(address _roleContractAddress) {\r\n        roleContract = IRoleContract(_roleContractAddress);\r\n    }\r\n\r\n    // Add a new product\r\n    function addProduct(\r\n        string memory _name,\r\n        string memory _description,\r\n        uint _weight,\r\n        uint _price,\r\n        uint _itemsPerPack,\r\n        TransportMode _transportMode\r\n    ) public {\r\n        require(roleContract.checkManufacturer(msg.sender), \"Only registered manufacturers can add products.\");\r\n\r\n        (int _maxTemp, int _minTemp) = getTemperatureRange(_transportMode);\r\n\r\n        productCounter++;\r\n        products.push(Product(\r\n            productCounter,\r\n            _name,\r\n            _description,\r\n            _maxTemp,\r\n            _minTemp,\r\n            _weight,\r\n            _price,\r\n            _itemsPerPack,\r\n            msg.sender,\r\n            \"In Stock\",\r\n            _transportMode\r\n        ));\r\n\r\n        emit ProductAdded(productCounter, _name, msg.sender);\r\n    }\r\n\r\n    // Helper function to get temperature range based on TransportMode\r\n    function getTemperatureRange(TransportMode mode) internal pure returns (int, int) {\r\n        if (mode == TransportMode.Frozen) {\r\n            return (-15, -25);  // Min and Max temperatures for Frozen in Celsius\r\n        } else if (mode == TransportMode.Refrigerated) {\r\n            return (4, 0);  // Min and Max temperatures for Refrigerated in Celsius\r\n        } else if (mode == TransportMode.Ambient) {\r\n            return (25, 15);  // Min and Max temperatures for Ambient in Celsius\r\n        } else {\r\n            revert(\"Invalid transport mode\");\r\n        }\r\n    }\r\n\r\n    // Get all products by manufacturer\r\n    function getProductsByManufacturer(address _manufacturer) public view returns (Product[] memory) {\r\n        uint productCount = 0;\r\n        for (uint i = 0; i < products.length; i++) {\r\n            if (products[i].manufacturer == _manufacturer) {\r\n                productCount++;\r\n            }\r\n        }\r\n        Product[] memory manufacturerProducts = new Product[](productCount);\r\n        uint index = 0;\r\n        for (uint i = 0; i < products.length; i++) {\r\n            if (products[i].manufacturer == _manufacturer) {\r\n                manufacturerProducts[index] = products[i];\r\n                index++;\r\n            }\r\n        }\r\n        return manufacturerProducts;\r\n    }\r\n\r\n    // Get product by product ID\r\n    function getProductById(uint _productId) public view returns (Product memory) {\r\n        require(_productId > 0 && _productId <= productCounter, \"Product does not exist.\");\r\n        return products[_productId - 1];\r\n    }\r\n}\r\n",
  "sourcePath": "C:\\Users\\deem1\\OneDrive\\Desktop\\farm-to-fork sprint 1\\contracts\\Product.sol",
  "compiler": {
    "name": "solc",
    "version": "0.8.0+commit.c7dfd78e.Emscripten.clang"
  },
  "schemaVersion": "3.4.16",
  "updatedAt": "2024-11-30T18:30:22.786Z",
  "networkType": "ethereum",
  "devdoc": {
    "kind": "dev",
    "methods": {},
    "version": 1
  },
  "userdoc": {
    "kind": "user",
    "methods": {},
    "version": 1
  }
}