{
  "contractName": "RoleContract",
  "abi": [
    {
      "anonymous": false,
      "inputs": [
        {
          "indexed": true,
          "internalType": "address",
          "name": "distributorAddress",
          "type": "address"
        },
        {
          "indexed": false,
          "internalType": "string",
          "name": "name",
          "type": "string"
        }
      ],
      "name": "DistributorAdded",
      "type": "event"
    },
    {
      "anonymous": false,
      "inputs": [
        {
          "indexed": false,
          "internalType": "address",
          "name": "distributor",
          "type": "address"
        }
      ],
      "name": "DistributorUpdated",
      "type": "event"
    },
    {
      "anonymous": false,
      "inputs": [
        {
          "indexed": true,
          "internalType": "address",
          "name": "manufacturerAddress",
          "type": "address"
        },
        {
          "indexed": false,
          "internalType": "string",
          "name": "name",
          "type": "string"
        }
      ],
      "name": "ManufacturerAdded",
      "type": "event"
    },
    {
      "anonymous": false,
      "inputs": [
        {
          "indexed": false,
          "internalType": "address",
          "name": "manufacturer",
          "type": "address"
        }
      ],
      "name": "ManufacturerAdded",
      "type": "event"
    },
    {
      "anonymous": false,
      "inputs": [
        {
          "indexed": false,
          "internalType": "address",
          "name": "manufacturer",
          "type": "address"
        }
      ],
      "name": "ManufacturerUpdated",
      "type": "event"
    },
    {
      "anonymous": false,
      "inputs": [
        {
          "indexed": false,
          "internalType": "address",
          "name": "retailer",
          "type": "address"
        }
      ],
      "name": "RetailerAdded",
      "type": "event"
    },
    {
      "anonymous": false,
      "inputs": [
        {
          "indexed": false,
          "internalType": "address",
          "name": "retailer",
          "type": "address"
        }
      ],
      "name": "RetailerUpdated",
      "type": "event"
    },
    {
      "inputs": [
        {
          "internalType": "uint256",
          "name": "",
          "type": "uint256"
        }
      ],
      "name": "distributorAddresses",
      "outputs": [
        {
          "internalType": "address",
          "name": "",
          "type": "address"
        }
      ],
      "stateMutability": "view",
      "type": "function",
      "constant": true
    },
    {
      "inputs": [
        {
          "internalType": "address",
          "name": "",
          "type": "address"
        }
      ],
      "name": "distributors",
      "outputs": [
        {
          "internalType": "address",
          "name": "ethAddress",
          "type": "address"
        },
        {
          "internalType": "string",
          "name": "name",
          "type": "string"
        },
        {
          "internalType": "string",
          "name": "physicalAddress",
          "type": "string"
        },
        {
          "internalType": "string",
          "name": "phoneNumber",
          "type": "string"
        },
        {
          "internalType": "string",
          "name": "email",
          "type": "string"
        },
        {
          "internalType": "bool",
          "name": "isRefrigerated",
          "type": "bool"
        },
        {
          "internalType": "bool",
          "name": "isFrozen",
          "type": "bool"
        },
        {
          "internalType": "bool",
          "name": "isAmbient",
          "type": "bool"
        },
        {
          "internalType": "bool",
          "name": "isPM",
          "type": "bool"
        },
        {
          "internalType": "bool",
          "name": "isAM",
          "type": "bool"
        }
      ],
      "stateMutability": "view",
      "type": "function",
      "constant": true
    },
    {
      "inputs": [
        {
          "internalType": "address",
          "name": "",
          "type": "address"
        }
      ],
      "name": "isDistributor",
      "outputs": [
        {
          "internalType": "bool",
          "name": "",
          "type": "bool"
        }
      ],
      "stateMutability": "view",
      "type": "function",
      "constant": true
    },
    {
      "inputs": [
        {
          "internalType": "address",
          "name": "",
          "type": "address"
        }
      ],
      "name": "isManufacturer",
      "outputs": [
        {
          "internalType": "bool",
          "name": "",
          "type": "bool"
        }
      ],
      "stateMutability": "view",
      "type": "function",
      "constant": true
    },
    {
      "inputs": [
        {
          "internalType": "uint256",
          "name": "",
          "type": "uint256"
        }
      ],
      "name": "manufacturerAddresses",
      "outputs": [
        {
          "internalType": "address",
          "name": "",
          "type": "address"
        }
      ],
      "stateMutability": "view",
      "type": "function",
      "constant": true
    },
    {
      "inputs": [
        {
          "internalType": "address",
          "name": "",
          "type": "address"
        }
      ],
      "name": "manufacturers",
      "outputs": [
        {
          "internalType": "address",
          "name": "ethAddress",
          "type": "address"
        },
        {
          "internalType": "string",
          "name": "name",
          "type": "string"
        },
        {
          "internalType": "string",
          "name": "addressLine",
          "type": "string"
        },
        {
          "internalType": "string",
          "name": "phoneNumber",
          "type": "string"
        },
        {
          "internalType": "string",
          "name": "email",
          "type": "string"
        }
      ],
      "stateMutability": "view",
      "type": "function",
      "constant": true
    },
    {
      "inputs": [],
      "name": "retailer",
      "outputs": [
        {
          "internalType": "address",
          "name": "ethAddress",
          "type": "address"
        },
        {
          "internalType": "string",
          "name": "name",
          "type": "string"
        },
        {
          "internalType": "string",
          "name": "physicalAddress",
          "type": "string"
        },
        {
          "internalType": "string",
          "name": "phoneNumber",
          "type": "string"
        },
        {
          "internalType": "string",
          "name": "email",
          "type": "string"
        }
      ],
      "stateMutability": "view",
      "type": "function",
      "constant": true
    },
    {
      "inputs": [],
      "name": "retailerAddress",
      "outputs": [
        {
          "internalType": "address",
          "name": "",
          "type": "address"
        }
      ],
      "stateMutability": "view",
      "type": "function",
      "constant": true
    },
    {
      "inputs": [
        {
          "internalType": "address",
          "name": "_manufacturerAddress",
          "type": "address"
        },
        {
          "internalType": "string",
          "name": "_name",
          "type": "string"
        },
        {
          "internalType": "string",
          "name": "_addressLine",
          "type": "string"
        },
        {
          "internalType": "string",
          "name": "_phoneNumber",
          "type": "string"
        },
        {
          "internalType": "string",
          "name": "_email",
          "type": "string"
        }
      ],
      "name": "addManufacturer",
      "outputs": [],
      "stateMutability": "nonpayable",
      "type": "function"
    },
    {
      "inputs": [],
      "name": "getAllManufacturers",
      "outputs": [
        {
          "internalType": "address[]",
          "name": "",
          "type": "address[]"
        }
      ],
      "stateMutability": "view",
      "type": "function",
      "constant": true
    },
    {
      "inputs": [
        {
          "internalType": "address",
          "name": "_manufacturer",
          "type": "address"
        }
      ],
      "name": "getManufacturerDetails",
      "outputs": [
        {
          "internalType": "string",
          "name": "name",
          "type": "string"
        },
        {
          "internalType": "string",
          "name": "addressLine",
          "type": "string"
        },
        {
          "internalType": "string",
          "name": "phoneNumber",
          "type": "string"
        },
        {
          "internalType": "string",
          "name": "email",
          "type": "string"
        }
      ],
      "stateMutability": "view",
      "type": "function",
      "constant": true
    },
    {
      "inputs": [
        {
          "internalType": "address",
          "name": "_address",
          "type": "address"
        }
      ],
      "name": "checkManufacturer",
      "outputs": [
        {
          "internalType": "bool",
          "name": "",
          "type": "bool"
        }
      ],
      "stateMutability": "view",
      "type": "function",
      "constant": true
    },
    {
      "inputs": [
        {
          "internalType": "address",
          "name": "_ethAddress",
          "type": "address"
        },
        {
          "internalType": "string",
          "name": "_name",
          "type": "string"
        },
        {
          "internalType": "string",
          "name": "_physicalAddress",
          "type": "string"
        },
        {
          "internalType": "string",
          "name": "_phoneNumber",
          "type": "string"
        },
        {
          "internalType": "string",
          "name": "_email",
          "type": "string"
        }
      ],
      "name": "updateManufacturer",
      "outputs": [],
      "stateMutability": "nonpayable",
      "type": "function"
    },
    {
      "inputs": [
        {
          "internalType": "address",
          "name": "_manufacturer",
          "type": "address"
        }
      ],
      "name": "getManufacturer",
      "outputs": [
        {
          "components": [
            {
              "internalType": "address",
              "name": "ethAddress",
              "type": "address"
            },
            {
              "internalType": "string",
              "name": "name",
              "type": "string"
            },
            {
              "internalType": "string",
              "name": "addressLine",
              "type": "string"
            },
            {
              "internalType": "string",
              "name": "phoneNumber",
              "type": "string"
            },
            {
              "internalType": "string",
              "name": "email",
              "type": "string"
            }
          ],
          "internalType": "struct RoleContract.Manufacturer",
          "name": "",
          "type": "tuple"
        }
      ],
      "stateMutability": "view",
      "type": "function",
      "constant": true
    },
    {
      "inputs": [
        {
          "internalType": "address",
          "name": "_ethAddress",
          "type": "address"
        },
        {
          "internalType": "string",
          "name": "_name",
          "type": "string"
        },
        {
          "internalType": "string",
          "name": "_physicalAddress",
          "type": "string"
        },
        {
          "internalType": "string",
          "name": "_phoneNumber",
          "type": "string"
        },
        {
          "internalType": "string",
          "name": "_email",
          "type": "string"
        }
      ],
      "name": "addRetailer",
      "outputs": [],
      "stateMutability": "nonpayable",
      "type": "function"
    },
    {
      "inputs": [
        {
          "internalType": "address",
          "name": "_address",
          "type": "address"
        }
      ],
      "name": "checkRetailer",
      "outputs": [
        {
          "internalType": "bool",
          "name": "",
          "type": "bool"
        }
      ],
      "stateMutability": "view",
      "type": "function",
      "constant": true
    },
    {
      "inputs": [
        {
          "internalType": "string",
          "name": "_name",
          "type": "string"
        },
        {
          "internalType": "string",
          "name": "_physicalAddress",
          "type": "string"
        },
        {
          "internalType": "string",
          "name": "_phoneNumber",
          "type": "string"
        },
        {
          "internalType": "string",
          "name": "_email",
          "type": "string"
        }
      ],
      "name": "updateRetailer",
      "outputs": [],
      "stateMutability": "nonpayable",
      "type": "function"
    },
    {
      "inputs": [
        {
          "internalType": "address",
          "name": "_ethAddress",
          "type": "address"
        },
        {
          "internalType": "string",
          "name": "_name",
          "type": "string"
        },
        {
          "internalType": "string",
          "name": "_physicalAddress",
          "type": "string"
        },
        {
          "internalType": "string",
          "name": "_phoneNumber",
          "type": "string"
        },
        {
          "internalType": "string",
          "name": "_email",
          "type": "string"
        },
        {
          "internalType": "bool",
          "name": "_isRefrigerated",
          "type": "bool"
        },
        {
          "internalType": "bool",
          "name": "_isFrozen",
          "type": "bool"
        },
        {
          "internalType": "bool",
          "name": "_isAmbient",
          "type": "bool"
        },
        {
          "internalType": "bool",
          "name": "_isPM",
          "type": "bool"
        },
        {
          "internalType": "bool",
          "name": "_isAM",
          "type": "bool"
        },
        {
          "internalType": "bool[7]",
          "name": "_workingDays",
          "type": "bool[7]"
        }
      ],
      "name": "addDistributor",
      "outputs": [],
      "stateMutability": "nonpayable",
      "type": "function"
    },
    {
      "inputs": [],
      "name": "getAllDistributorAddresses",
      "outputs": [
        {
          "internalType": "address[]",
          "name": "",
          "type": "address[]"
        }
      ],
      "stateMutability": "view",
      "type": "function",
      "constant": true
    },
    {
      "inputs": [
        {
          "internalType": "address",
          "name": "_address",
          "type": "address"
        }
      ],
      "name": "checkDistributor",
      "outputs": [
        {
          "internalType": "bool",
          "name": "",
          "type": "bool"
        }
      ],
      "stateMutability": "view",
      "type": "function",
      "constant": true
    },
    {
      "inputs": [
        {
          "internalType": "address",
          "name": "_ethAddress",
          "type": "address"
        },
        {
          "internalType": "string",
          "name": "_name",
          "type": "string"
        },
        {
          "internalType": "string",
          "name": "_physicalAddress",
          "type": "string"
        },
        {
          "internalType": "string",
          "name": "_phoneNumber",
          "type": "string"
        },
        {
          "internalType": "string",
          "name": "_email",
          "type": "string"
        },
        {
          "internalType": "bool",
          "name": "_isRefrigerated",
          "type": "bool"
        },
        {
          "internalType": "bool",
          "name": "_isFrozen",
          "type": "bool"
        },
        {
          "internalType": "bool",
          "name": "_isAmbient",
          "type": "bool"
        },
        {
          "internalType": "bool",
          "name": "_isPM",
          "type": "bool"
        },
        {
          "internalType": "bool",
          "name": "_isAM",
          "type": "bool"
        },
        {
          "internalType": "bool[7]",
          "name": "_workingDays",
          "type": "bool[7]"
        }
      ],
      "name": "updateDistributor",
      "outputs": [],
      "stateMutability": "nonpayable",
      "type": "function"
    },
    {
      "inputs": [],
      "name": "getRetailer",
      "outputs": [
        {
          "internalType": "address",
          "name": "ethAddress",
          "type": "address"
        },
        {
          "internalType": "string",
          "name": "name",
          "type": "string"
        },
        {
          "internalType": "string",
          "name": "physicalAddress",
          "type": "string"
        },
        {
          "internalType": "string",
          "name": "phoneNumber",
          "type": "string"
        },
        {
          "internalType": "string",
          "name": "email",
          "type": "string"
        }
      ],
      "stateMutability": "view",
      "type": "function",
      "constant": true
    },
    {
      "inputs": [
        {
          "internalType": "address",
          "name": "_distributor",
          "type": "address"
        }
      ],
      "name": "getDistributor",
      "outputs": [
        {
          "internalType": "address",
          "name": "ethAddress",
          "type": "address"
        },
        {
          "internalType": "string",
          "name": "name",
          "type": "string"
        },
        {
          "internalType": "string",
          "name": "physicalAddress",
          "type": "string"
        },
        {
          "internalType": "string",
          "name": "phoneNumber",
          "type": "string"
        },
        {
          "internalType": "string",
          "name": "email",
          "type": "string"
        },
        {
          "internalType": "bool",
          "name": "isRefrigerated",
          "type": "bool"
        },
        {
          "internalType": "bool",
          "name": "isFrozen",
          "type": "bool"
        },
        {
          "internalType": "bool",
          "name": "isAmbient",
          "type": "bool"
        },
        {
          "internalType": "bool",
          "name": "isPM",
          "type": "bool"
        },
        {
          "internalType": "bool",
          "name": "isAM",
          "type": "bool"
        },
        {
          "internalType": "bool[7]",
          "name": "workingDays",
          "type": "bool[7]"
        }
      ],
      "stateMutability": "view",
      "type": "function",
      "constant": true
    }
  ],
  "bytecode": "0x608060405234801561001057600080fd5b50613d99806100206000396000f3fe608060405234801561001057600080fd5b506004361061014d5760003560e01c80636fe7b299116100c3578063b87df6231161007c578063b87df623146103fd578063c74ced1c1461042d578063cc6427841461045d578063daa7f64b14610496578063ddba07a4146104b2578063f80d1ff0146104d05761014d565b80636fe7b2991461030f5780638dd8088b1461032b5780638f0c86fa14610347578063993df8c614610377578063a1c371ce146103b1578063a8055a99146103e15761014d565b806367059dbb1161011557806367059dbb1461023757806368b86f31146102675780636b5eb09c146102835780636de2aff6146102b75780636eb9f352146102d55780636f5ffb25146102f15761014d565b806301a68c011461015257806317d4a49114610182578063191bcef6146101b257806322713cc7146101e25780634c1249fc14610215575b600080fd5b61016c60048036038101906101679190613307565b6104f2565b604051610179919061370e565b60405180910390f35b61019c60048036038101906101979190612ff4565b610531565b6040516101a99190613939565b60405180910390f35b6101cc60048036038101906101c79190612ff4565b610551565b6040516101d99190613ab7565b60405180910390f35b6101fc60048036038101906101f79190612ff4565b6108c1565b60405161020c9493929190613976565b60405180910390f35b61021d610c4a565b60405161022e959493929190613729565b60405180910390f35b610251600480360381019061024c9190612ff4565b610eae565b60405161025e9190613939565b60405180910390f35b610281600480360381019061027c919061301d565b610f04565b005b61029d60048036038101906102989190612ff4565b6110ba565b6040516102ae959493929190613729565b60405180910390f35b6102bf611330565b6040516102cc919061370e565b60405180910390f35b6102ef60048036038101906102ea91906130f4565b611356565b005b6102f9611761565b6040516103069190613917565b60405180910390f35b6103296004803603810190610324919061301d565b6117ef565b005b610345600480360381019061034091906130f4565b611b08565b005b610361600480360381019061035c9190612ff4565b611d66565b60405161036e9190613939565b60405180910390f35b610391600480360381019061038c9190612ff4565b611d86565b6040516103a89b9a99989796959493929190613850565b60405180910390f35b6103cb60048036038101906103c69190613307565b612250565b6040516103d8919061370e565b60405180910390f35b6103fb60048036038101906103f69190613244565b61228f565b005b61041760048036038101906104129190612ff4565b6123e8565b6040516104249190613939565b60405180910390f35b61044760048036038101906104429190612ff4565b612445565b6040516104549190613939565b60405180910390f35b61047760048036038101906104729190612ff4565b61249b565b60405161048d9a99989796959493929190613798565b60405180910390f35b6104b060048036038101906104ab919061301d565b612770565b005b6104ba61297d565b6040516104c79190613917565b60405180910390f35b6104d8612a0b565b6040516104e9959493929190613729565b60405180910390f35b6001818154811061050257600080fd5b906000526020600020016000915054906101000a900473ffffffffffffffffffffffffffffffffffffffff1681565b60026020528060005260406000206000915054906101000a900460ff1681565b610559612d20565b60008060008473ffffffffffffffffffffffffffffffffffffffff1673ffffffffffffffffffffffffffffffffffffffff1681526020019081526020016000206040518060a00160405290816000820160009054906101000a900473ffffffffffffffffffffffffffffffffffffffff1673ffffffffffffffffffffffffffffffffffffffff1673ffffffffffffffffffffffffffffffffffffffff16815260200160018201805461060a90613c7d565b80601f016020809104026020016040519081016040528092919081815260200182805461063690613c7d565b80156106835780601f1061065857610100808354040283529160200191610683565b820191906000526020600020905b81548152906001019060200180831161066657829003601f168201915b5050505050815260200160028201805461069c90613c7d565b80601f01602080910402602001604051908101604052809291908181526020018280546106c890613c7d565b80156107155780601f106106ea57610100808354040283529160200191610715565b820191906000526020600020905b8154815290600101906020018083116106f857829003601f168201915b5050505050815260200160038201805461072e90613c7d565b80601f016020809104026020016040519081016040528092919081815260200182805461075a90613c7d565b80156107a75780601f1061077c576101008083540402835291602001916107a7565b820191906000526020600020905b81548152906001019060200180831161078a57829003601f168201915b505050505081526020016004820180546107c090613c7d565b80601f01602080910402602001604051908101604052809291908181526020018280546107ec90613c7d565b80156108395780601f1061080e57610100808354040283529160200191610839565b820191906000526020600020905b81548152906001019060200180831161081c57829003601f168201915b5050505050815250509050600073ffffffffffffffffffffffffffffffffffffffff16816000015173ffffffffffffffffffffffffffffffffffffffff1614156108b8576040517f08c379a00000000000000000000000000000000000000000000000000000000081526004016108af906139f7565b60405180910390fd5b80915050919050565b60608060608060008060008773ffffffffffffffffffffffffffffffffffffffff1673ffffffffffffffffffffffffffffffffffffffff1681526020019081526020016000206040518060a00160405290816000820160009054906101000a900473ffffffffffffffffffffffffffffffffffffffff1673ffffffffffffffffffffffffffffffffffffffff1673ffffffffffffffffffffffffffffffffffffffff16815260200160018201805461097890613c7d565b80601f01602080910402602001604051908101604052809291908181526020018280546109a490613c7d565b80156109f15780601f106109c6576101008083540402835291602001916109f1565b820191906000526020600020905b8154815290600101906020018083116109d457829003601f168201915b50505050508152602001600282018054610a0a90613c7d565b80601f0160208091040260200160405190810160405280929190818152602001828054610a3690613c7d565b8015610a835780601f10610a5857610100808354040283529160200191610a83565b820191906000526020600020905b815481529060010190602001808311610a6657829003601f168201915b50505050508152602001600382018054610a9c90613c7d565b80601f0160208091040260200160405190810160405280929190818152602001828054610ac890613c7d565b8015610b155780601f10610aea57610100808354040283529160200191610b15565b820191906000526020600020905b815481529060010190602001808311610af857829003601f168201915b50505050508152602001600482018054610b2e90613c7d565b80601f0160208091040260200160405190810160405280929190818152602001828054610b5a90613c7d565b8015610ba75780601f10610b7c57610100808354040283529160200191610ba7565b820191906000526020600020905b815481529060010190602001808311610b8a57829003601f168201915b5050505050815250509050600073ffffffffffffffffffffffffffffffffffffffff16816000015173ffffffffffffffffffffffffffffffffffffffff161415610c26576040517f08c379a0000000000000000000000000000000000000000000000000000000008152600401610c1d90613a17565b60405180910390fd5b80602001518160400151826060015183608001519450945094509450509193509193565b60058060000160009054906101000a900473ffffffffffffffffffffffffffffffffffffffff1690806001018054610c8190613c7d565b80601f0160208091040260200160405190810160405280929190818152602001828054610cad90613c7d565b8015610cfa5780601f10610ccf57610100808354040283529160200191610cfa565b820191906000526020600020905b815481529060010190602001808311610cdd57829003601f168201915b505050505090806002018054610d0f90613c7d565b80601f0160208091040260200160405190810160405280929190818152602001828054610d3b90613c7d565b8015610d885780601f10610d5d57610100808354040283529160200191610d88565b820191906000526020600020905b815481529060010190602001808311610d6b57829003601f168201915b505050505090806003018054610d9d90613c7d565b80601f0160208091040260200160405190810160405280929190818152602001828054610dc990613c7d565b8015610e165780601f10610deb57610100808354040283529160200191610e16565b820191906000526020600020905b815481529060010190602001808311610df957829003601f168201915b505050505090806004018054610e2b90613c7d565b80601f0160208091040260200160405190810160405280929190818152602001828054610e5790613c7d565b8015610ea45780601f10610e7957610100808354040283529160200191610ea4565b820191906000526020600020905b815481529060010190602001808311610e8757829003601f168201915b5050505050905085565b6000600b60008373ffffffffffffffffffffffffffffffffffffffff1673ffffffffffffffffffffffffffffffffffffffff16815260200190815260200160002060009054906101000a900460ff169050919050565b600073ffffffffffffffffffffffffffffffffffffffff166000808773ffffffffffffffffffffffffffffffffffffffff1673ffffffffffffffffffffffffffffffffffffffff16815260200190815260200160002060000160009054906101000a900473ffffffffffffffffffffffffffffffffffffffff1673ffffffffffffffffffffffffffffffffffffffff161415610fd5576040517f08c379a0000000000000000000000000000000000000000000000000000000008152600401610fcc906139f7565b60405180910390fd5b60008060008773ffffffffffffffffffffffffffffffffffffffff1673ffffffffffffffffffffffffffffffffffffffff16815260200190815260200160002090508481600101908051906020019061102f929190612d65565b5083816002019080519060200190611048929190612d65565b5082816003019080519060200190611061929190612d65565b508181600401908051906020019061107a929190612d65565b507f3788ec40e8e8e1f6c41fc71ee492e8c892ae62771a4eb72b86eef971dfe41272866040516110aa919061370e565b60405180910390a1505050505050565b60006020528060005260406000206000915090508060000160009054906101000a900473ffffffffffffffffffffffffffffffffffffffff169080600101805461110390613c7d565b80601f016020809104026020016040519081016040528092919081815260200182805461112f90613c7d565b801561117c5780601f106111515761010080835404028352916020019161117c565b820191906000526020600020905b81548152906001019060200180831161115f57829003601f168201915b50505050509080600201805461119190613c7d565b80601f01602080910402602001604051908101604052809291908181526020018280546111bd90613c7d565b801561120a5780601f106111df5761010080835404028352916020019161120a565b820191906000526020600020905b8154815290600101906020018083116111ed57829003601f168201915b50505050509080600301805461121f90613c7d565b80601f016020809104026020016040519081016040528092919081815260200182805461124b90613c7d565b80156112985780601f1061126d57610100808354040283529160200191611298565b820191906000526020600020905b81548152906001019060200180831161127b57829003601f168201915b5050505050908060040180546112ad90613c7d565b80601f01602080910402602001604051908101604052809291908181526020018280546112d990613c7d565b80156113265780601f106112fb57610100808354040283529160200191611326565b820191906000526020600020905b81548152906001019060200180831161130957829003601f168201915b5050505050905085565b600360009054906101000a900473ffffffffffffffffffffffffffffffffffffffff1681565b600073ffffffffffffffffffffffffffffffffffffffff16600460008d73ffffffffffffffffffffffffffffffffffffffff1673ffffffffffffffffffffffffffffffffffffffff16815260200190815260200160002060000160009054906101000a900473ffffffffffffffffffffffffffffffffffffffff1673ffffffffffffffffffffffffffffffffffffffff1614611427576040517f08c379a000000000000000000000000000000000000000000000000000000000815260040161141e90613a37565b60405180910390fd5b6040518061016001604052808c73ffffffffffffffffffffffffffffffffffffffff1681526020018b81526020018a81526020018981526020018881526020018715158152602001861515815260200185151581526020018415158152602001831515815260200182815250600460008d73ffffffffffffffffffffffffffffffffffffffff1673ffffffffffffffffffffffffffffffffffffffff16815260200190815260200160002060008201518160000160006101000a81548173ffffffffffffffffffffffffffffffffffffffff021916908373ffffffffffffffffffffffffffffffffffffffff1602179055506020820151816001019080519060200190611535929190612d65565b506040820151816002019080519060200190611552929190612d65565b50606082015181600301908051906020019061156f929190612d65565b50608082015181600401908051906020019061158c929190612d65565b5060a08201518160050160006101000a81548160ff02191690831515021790555060c08201518160050160016101000a81548160ff02191690831515021790555060e08201518160050160026101000a81548160ff0219169083151502179055506101008201518160050160036101000a81548160ff0219169083151502179055506101208201518160050160046101000a81548160ff02191690831515021790555061014082015181600601906007611647929190612deb565b50905050600a8b9080600181540180825580915050600190039060005260206000200160009091909190916101000a81548173ffffffffffffffffffffffffffffffffffffffff021916908373ffffffffffffffffffffffffffffffffffffffff1602179055506001600b60008d73ffffffffffffffffffffffffffffffffffffffff1673ffffffffffffffffffffffffffffffffffffffff16815260200190815260200160002060006101000a81548160ff0219169083151502179055508a73ffffffffffffffffffffffffffffffffffffffff167fd5f2429a2bf80f34a91686b8f8d62bb9eae8dc57860a6d9897513d36c9696beb8b60405161174c9190613954565b60405180910390a25050505050505050505050565b6060600a8054806020026020016040519081016040528092919081815260200182805480156117e557602002820191906000526020600020905b8160009054906101000a900473ffffffffffffffffffffffffffffffffffffffff1673ffffffffffffffffffffffffffffffffffffffff168152602001906001019080831161179b575b5050505050905090565b600073ffffffffffffffffffffffffffffffffffffffff166000808773ffffffffffffffffffffffffffffffffffffffff1673ffffffffffffffffffffffffffffffffffffffff16815260200190815260200160002060000160009054906101000a900473ffffffffffffffffffffffffffffffffffffffff1673ffffffffffffffffffffffffffffffffffffffff16146118bf576040517f08c379a00000000000000000000000000000000000000000000000000000000081526004016118b690613a97565b60405180910390fd5b6040518060a001604052808673ffffffffffffffffffffffffffffffffffffffff168152602001858152602001848152602001838152602001828152506000808773ffffffffffffffffffffffffffffffffffffffff1673ffffffffffffffffffffffffffffffffffffffff16815260200190815260200160002060008201518160000160006101000a81548173ffffffffffffffffffffffffffffffffffffffff021916908373ffffffffffffffffffffffffffffffffffffffff160217905550602082015181600101908051906020019061199d929190612d65565b5060408201518160020190805190602001906119ba929190612d65565b5060608201518160030190805190602001906119d7929190612d65565b5060808201518160040190805190602001906119f4929190612d65565b509050506001859080600181540180825580915050600190039060005260206000200160009091909190916101000a81548173ffffffffffffffffffffffffffffffffffffffff021916908373ffffffffffffffffffffffffffffffffffffffff1602179055506001600260008773ffffffffffffffffffffffffffffffffffffffff1673ffffffffffffffffffffffffffffffffffffffff16815260200190815260200160002060006101000a81548160ff0219169083151502179055508473ffffffffffffffffffffffffffffffffffffffff167f1945d2c71d577291ed89748399bbcdcedbcb3611bdd9032a98b82b00e636f38885604051611af99190613954565b60405180910390a25050505050565b600073ffffffffffffffffffffffffffffffffffffffff16600460008d73ffffffffffffffffffffffffffffffffffffffff1673ffffffffffffffffffffffffffffffffffffffff16815260200190815260200160002060000160009054906101000a900473ffffffffffffffffffffffffffffffffffffffff1673ffffffffffffffffffffffffffffffffffffffff161415611bda576040517f08c379a0000000000000000000000000000000000000000000000000000000008152600401611bd190613a77565b60405180910390fd5b6000600460008d73ffffffffffffffffffffffffffffffffffffffff1673ffffffffffffffffffffffffffffffffffffffff16815260200190815260200160002090508a816001019080519060200190611c35929190612d65565b5089816002019080519060200190611c4e929190612d65565b5088816003019080519060200190611c67929190612d65565b5087816004019080519060200190611c80929190612d65565b50868160050160006101000a81548160ff021916908315150217905550858160050160016101000a81548160ff021916908315150217905550848160050160026101000a81548160ff021916908315150217905550838160050160036101000a81548160ff021916908315150217905550828160050160046101000a81548160ff0219169083151502179055508181600601906007611d20929190612deb565b507fc0ebb188f905d128bcd7e4282dd1f9cf24cd331b69071002e488349aca6a867b8c604051611d50919061370e565b60405180910390a1505050505050505050505050565b600b6020528060005260406000206000915054906101000a900460ff1681565b60006060806060806000806000806000611d9e612e84565b6000600460008e73ffffffffffffffffffffffffffffffffffffffff1673ffffffffffffffffffffffffffffffffffffffff168152602001908152602001600020604051806101600160405290816000820160009054906101000a900473ffffffffffffffffffffffffffffffffffffffff1673ffffffffffffffffffffffffffffffffffffffff1673ffffffffffffffffffffffffffffffffffffffff168152602001600182018054611e5190613c7d565b80601f0160208091040260200160405190810160405280929190818152602001828054611e7d90613c7d565b8015611eca5780601f10611e9f57610100808354040283529160200191611eca565b820191906000526020600020905b815481529060010190602001808311611ead57829003601f168201915b50505050508152602001600282018054611ee390613c7d565b80601f0160208091040260200160405190810160405280929190818152602001828054611f0f90613c7d565b8015611f5c5780601f10611f3157610100808354040283529160200191611f5c565b820191906000526020600020905b815481529060010190602001808311611f3f57829003601f168201915b50505050508152602001600382018054611f7590613c7d565b80601f0160208091040260200160405190810160405280929190818152602001828054611fa190613c7d565b8015611fee5780601f10611fc357610100808354040283529160200191611fee565b820191906000526020600020905b815481529060010190602001808311611fd157829003601f168201915b5050505050815260200160048201805461200790613c7d565b80601f016020809104026020016040519081016040528092919081815260200182805461203390613c7d565b80156120805780601f1061205557610100808354040283529160200191612080565b820191906000526020600020905b81548152906001019060200180831161206357829003601f168201915b505050505081526020016005820160009054906101000a900460ff161515151581526020016005820160019054906101000a900460ff161515151581526020016005820160029054906101000a900460ff161515151581526020016005820160039054906101000a900460ff161515151581526020016005820160049054906101000a900460ff1615151515815260200160068201600780602002604051908101604052809291908260078015612171576020028201916000905b82829054906101000a900460ff1615158152602001906001019060208260000104928301926001038202915080841161213b5790505b5050505050815250509050600073ffffffffffffffffffffffffffffffffffffffff16816000015173ffffffffffffffffffffffffffffffffffffffff1614156121f0576040517f08c379a00000000000000000000000000000000000000000000000000000000081526004016121e790613a77565b60405180910390fd5b806000015181602001518260400151836060015184608001518560a001518660c001518760e001518861010001518961012001518a61014001519b509b509b509b509b509b509b509b509b509b509b505091939597999b90929496989a50565b600a818154811061226057600080fd5b906000526020600020016000915054906101000a900473ffffffffffffffffffffffffffffffffffffffff1681565b600073ffffffffffffffffffffffffffffffffffffffff16600360009054906101000a900473ffffffffffffffffffffffffffffffffffffffff1673ffffffffffffffffffffffffffffffffffffffff161415612321576040517f08c379a0000000000000000000000000000000000000000000000000000000008152600401612318906139d7565b60405180910390fd5b836005600101908051906020019061233a929190612d65565b508260056002019080519060200190612354929190612d65565b50816005600301908051906020019061236e929190612d65565b508060056004019080519060200190612388929190612d65565b507ff7c6a1dfb7f33000884d6a18c95608b9c1ae7599fdffb9023d1939ebf1671f20600360009054906101000a900473ffffffffffffffffffffffffffffffffffffffff166040516123da919061370e565b60405180910390a150505050565b6000600560000160009054906101000a900473ffffffffffffffffffffffffffffffffffffffff1673ffffffffffffffffffffffffffffffffffffffff168273ffffffffffffffffffffffffffffffffffffffff16149050919050565b6000600260008373ffffffffffffffffffffffffffffffffffffffff1673ffffffffffffffffffffffffffffffffffffffff16815260200190815260200160002060009054906101000a900460ff169050919050565b60046020528060005260406000206000915090508060000160009054906101000a900473ffffffffffffffffffffffffffffffffffffffff16908060010180546124e490613c7d565b80601f016020809104026020016040519081016040528092919081815260200182805461251090613c7d565b801561255d5780601f106125325761010080835404028352916020019161255d565b820191906000526020600020905b81548152906001019060200180831161254057829003601f168201915b50505050509080600201805461257290613c7d565b80601f016020809104026020016040519081016040528092919081815260200182805461259e90613c7d565b80156125eb5780601f106125c0576101008083540402835291602001916125eb565b820191906000526020600020905b8154815290600101906020018083116125ce57829003601f168201915b50505050509080600301805461260090613c7d565b80601f016020809104026020016040519081016040528092919081815260200182805461262c90613c7d565b80156126795780601f1061264e57610100808354040283529160200191612679565b820191906000526020600020905b81548152906001019060200180831161265c57829003601f168201915b50505050509080600401805461268e90613c7d565b80601f01602080910402602001604051908101604052809291908181526020018280546126ba90613c7d565b80156127075780601f106126dc57610100808354040283529160200191612707565b820191906000526020600020905b8154815290600101906020018083116126ea57829003601f168201915b5050505050908060050160009054906101000a900460ff16908060050160019054906101000a900460ff16908060050160029054906101000a900460ff16908060050160039054906101000a900460ff16908060050160049054906101000a900460ff1690508a565b600073ffffffffffffffffffffffffffffffffffffffff16600360009054906101000a900473ffffffffffffffffffffffffffffffffffffffff1673ffffffffffffffffffffffffffffffffffffffff1614612801576040517f08c379a00000000000000000000000000000000000000000000000000000000081526004016127f890613a57565b60405180910390fd5b6040518060a001604052808673ffffffffffffffffffffffffffffffffffffffff16815260200185815260200184815260200183815260200182815250600560008201518160000160006101000a81548173ffffffffffffffffffffffffffffffffffffffff021916908373ffffffffffffffffffffffffffffffffffffffff16021790555060208201518160010190805190602001906128a3929190612d65565b5060408201518160020190805190602001906128c0929190612d65565b5060608201518160030190805190602001906128dd929190612d65565b5060808201518160040190805190602001906128fa929190612d65565b5090505084600360006101000a81548173ffffffffffffffffffffffffffffffffffffffff021916908373ffffffffffffffffffffffffffffffffffffffff1602179055507f71ae26cad02663e3d92efd6ec56031a80d74a20c0ab4183faa8bf262261c9baa8560405161296e919061370e565b60405180910390a15050505050565b60606001805480602002602001604051908101604052809291908181526020018280548015612a0157602002820191906000526020600020905b8160009054906101000a900473ffffffffffffffffffffffffffffffffffffffff1673ffffffffffffffffffffffffffffffffffffffff16815260200190600101908083116129b7575b5050505050905090565b6000606080606080600073ffffffffffffffffffffffffffffffffffffffff16600360009054906101000a900473ffffffffffffffffffffffffffffffffffffffff1673ffffffffffffffffffffffffffffffffffffffff161415612aa5576040517f08c379a0000000000000000000000000000000000000000000000000000000008152600401612a9c906139d7565b60405180910390fd5b600560000160009054906101000a900473ffffffffffffffffffffffffffffffffffffffff166005600101600560020160056003016005600401838054612aeb90613c7d565b80601f0160208091040260200160405190810160405280929190818152602001828054612b1790613c7d565b8015612b645780601f10612b3957610100808354040283529160200191612b64565b820191906000526020600020905b815481529060010190602001808311612b4757829003601f168201915b50505050509350828054612b7790613c7d565b80601f0160208091040260200160405190810160405280929190818152602001828054612ba390613c7d565b8015612bf05780601f10612bc557610100808354040283529160200191612bf0565b820191906000526020600020905b815481529060010190602001808311612bd357829003601f168201915b50505050509250818054612c0390613c7d565b80601f0160208091040260200160405190810160405280929190818152602001828054612c2f90613c7d565b8015612c7c5780601f10612c5157610100808354040283529160200191612c7c565b820191906000526020600020905b815481529060010190602001808311612c5f57829003601f168201915b50505050509150808054612c8f90613c7d565b80601f0160208091040260200160405190810160405280929190818152602001828054612cbb90613c7d565b8015612d085780601f10612cdd57610100808354040283529160200191612d08565b820191906000526020600020905b815481529060010190602001808311612ceb57829003601f168201915b50505050509050945094509450945094509091929394565b6040518060a00160405280600073ffffffffffffffffffffffffffffffffffffffff168152602001606081526020016060815260200160608152602001606081525090565b828054612d7190613c7d565b90600052602060002090601f016020900481019282612d935760008555612dda565b82601f10612dac57805160ff1916838001178555612dda565b82800160010185558215612dda579182015b82811115612dd9578251825591602001919060010190612dbe565b5b509050612de79190612ea6565b5090565b826007601f01602090048101928215612e735791602002820160005b83821115612e4457835183826101000a81548160ff0219169083151502179055509260200192600101602081600001049283019260010302612e07565b8015612e715782816101000a81549060ff0219169055600101602081600001049283019260010302612e44565b505b509050612e809190612ea6565b5090565b6040518060e00160405280600790602082028036833780820191505090505090565b5b80821115612ebf576000816000905550600101612ea7565b5090565b6000612ed6612ed184613b0a565b613ad9565b90508082856020860282011115612eec57600080fd5b60005b85811015612f1c5781612f028882612fa0565b845260208401935060208301925050600181019050612eef565b5050509392505050565b6000612f39612f3484613b30565b613ad9565b905082815260208101848484011115612f5157600080fd5b612f5c848285613c3b565b509392505050565b600081359050612f7381613d1e565b92915050565b600082601f830112612f8a57600080fd5b6007612f97848285612ec3565b91505092915050565b600081359050612faf81613d35565b92915050565b600082601f830112612fc657600080fd5b8135612fd6848260208601612f26565b91505092915050565b600081359050612fee81613d4c565b92915050565b60006020828403121561300657600080fd5b600061301484828501612f64565b91505092915050565b600080600080600060a0868803121561303557600080fd5b600061304388828901612f64565b955050602086013567ffffffffffffffff81111561306057600080fd5b61306c88828901612fb5565b945050604086013567ffffffffffffffff81111561308957600080fd5b61309588828901612fb5565b935050606086013567ffffffffffffffff8111156130b257600080fd5b6130be88828901612fb5565b925050608086013567ffffffffffffffff8111156130db57600080fd5b6130e788828901612fb5565b9150509295509295909350565b60008060008060008060008060008060006102208c8e03121561311657600080fd5b60006131248e828f01612f64565b9b505060208c013567ffffffffffffffff81111561314157600080fd5b61314d8e828f01612fb5565b9a505060408c013567ffffffffffffffff81111561316a57600080fd5b6131768e828f01612fb5565b99505060608c013567ffffffffffffffff81111561319357600080fd5b61319f8e828f01612fb5565b98505060808c013567ffffffffffffffff8111156131bc57600080fd5b6131c88e828f01612fb5565b97505060a06131d98e828f01612fa0565b96505060c06131ea8e828f01612fa0565b95505060e06131fb8e828f01612fa0565b94505061010061320d8e828f01612fa0565b93505061012061321f8e828f01612fa0565b9250506101406132318e828f01612f79565b9150509295989b509295989b9093969950565b6000806000806080858703121561325a57600080fd5b600085013567ffffffffffffffff81111561327457600080fd5b61328087828801612fb5565b945050602085013567ffffffffffffffff81111561329d57600080fd5b6132a987828801612fb5565b935050604085013567ffffffffffffffff8111156132c657600080fd5b6132d287828801612fb5565b925050606085013567ffffffffffffffff8111156132ef57600080fd5b6132fb87828801612fb5565b91505092959194509250565b60006020828403121561331957600080fd5b600061332784828501612fdf565b91505092915050565b600061333c8383613360565b60208301905092915050565b60006133548383613433565b60208301905092915050565b61336981613bf3565b82525050565b61337881613bf3565b82525050565b600061338982613b7a565b6133938185613bb5565b935061339e83613b60565b8060005b838110156133cf5781516133b68882613330565b97506133c183613b9b565b9250506001810190506133a2565b5085935050505092915050565b6133e581613b85565b6133ef8184613bc6565b92506133fa82613b70565b8060005b8381101561342b5781516134128782613348565b965061341d83613ba8565b9250506001810190506133fe565b505050505050565b61343c81613c05565b82525050565b61344b81613c05565b82525050565b600061345c82613b90565b6134668185613bd1565b9350613476818560208601613c4a565b61347f81613d0d565b840191505092915050565b600061349582613b90565b61349f8185613be2565b93506134af818560208601613c4a565b6134b881613d0d565b840191505092915050565b60006134d0601683613be2565b91507f4e6f2072657461696c65722072656769737465726564000000000000000000006000830152602082019050919050565b6000613510601b83613be2565b91507f4d616e75666163747572657220646f6573206e6f7420657869737400000000006000830152602082019050919050565b6000613550601c83613be2565b91507f4d616e75666163747572657220646f6573206e6f742065786973742e000000006000830152602082019050919050565b6000613590601b83613be2565b91507f4469737472696275746f7220616c7265616479206578697374732e00000000006000830152602082019050919050565b60006135d0601683613be2565b91507f52657461696c657220616c7265616479206164646564000000000000000000006000830152602082019050919050565b6000613610601a83613be2565b91507f4469737472696275746f7220646f6573206e6f742065786973740000000000006000830152602082019050919050565b6000613650601c83613be2565b91507f4d616e75666163747572657220616c7265616479206578697374732e000000006000830152602082019050919050565b600060a08301600083015161369b6000860182613360565b50602083015184820360208601526136b38282613451565b915050604083015184820360408601526136cd8282613451565b915050606083015184820360608601526136e78282613451565b915050608083015184820360808601526137018282613451565b9150508091505092915050565b6000602082019050613723600083018461336f565b92915050565b600060a08201905061373e600083018861336f565b8181036020830152613750818761348a565b90508181036040830152613764818661348a565b90508181036060830152613778818561348a565b9050818103608083015261378c818461348a565b90509695505050505050565b6000610140820190506137ae600083018d61336f565b81810360208301526137c0818c61348a565b905081810360408301526137d4818b61348a565b905081810360608301526137e8818a61348a565b905081810360808301526137fc818961348a565b905061380b60a0830188613442565b61381860c0830187613442565b61382560e0830186613442565b613833610100830185613442565b613841610120830184613442565b9b9a5050505050505050505050565b600061022082019050613866600083018e61336f565b8181036020830152613878818d61348a565b9050818103604083015261388c818c61348a565b905081810360608301526138a0818b61348a565b905081810360808301526138b4818a61348a565b90506138c360a0830189613442565b6138d060c0830188613442565b6138dd60e0830187613442565b6138eb610100830186613442565b6138f9610120830185613442565b6139076101408301846133dc565b9c9b505050505050505050505050565b60006020820190508181036000830152613931818461337e565b905092915050565b600060208201905061394e6000830184613442565b92915050565b6000602082019050818103600083015261396e818461348a565b905092915050565b60006080820190508181036000830152613990818761348a565b905081810360208301526139a4818661348a565b905081810360408301526139b8818561348a565b905081810360608301526139cc818461348a565b905095945050505050565b600060208201905081810360008301526139f0816134c3565b9050919050565b60006020820190508181036000830152613a1081613503565b9050919050565b60006020820190508181036000830152613a3081613543565b9050919050565b60006020820190508181036000830152613a5081613583565b9050919050565b60006020820190508181036000830152613a70816135c3565b9050919050565b60006020820190508181036000830152613a9081613603565b9050919050565b60006020820190508181036000830152613ab081613643565b9050919050565b60006020820190508181036000830152613ad18184613683565b905092915050565b6000604051905081810181811067ffffffffffffffff82111715613b0057613aff613cde565b5b8060405250919050565b600067ffffffffffffffff821115613b2557613b24613cde565b5b602082029050919050565b600067ffffffffffffffff821115613b4b57613b4a613cde565b5b601f19601f8301169050602081019050919050565b6000819050602082019050919050565b6000819050919050565b600081519050919050565b600060079050919050565b600081519050919050565b6000602082019050919050565b6000602082019050919050565b600082825260208201905092915050565b600081905092915050565b600082825260208201905092915050565b600082825260208201905092915050565b6000613bfe82613c11565b9050919050565b60008115159050919050565b600073ffffffffffffffffffffffffffffffffffffffff82169050919050565b6000819050919050565b82818337600083830152505050565b60005b83811015613c68578082015181840152602081019050613c4d565b83811115613c77576000848401525b50505050565b60006002820490506001821680613c9557607f821691505b60208210811415613ca957613ca8613caf565b5b50919050565b7f4e487b7100000000000000000000000000000000000000000000000000000000600052602260045260246000fd5b7f4e487b7100000000000000000000000000000000000000000000000000000000600052604160045260246000fd5b6000601f19601f8301169050919050565b613d2781613bf3565b8114613d3257600080fd5b50565b613d3e81613c05565b8114613d4957600080fd5b50565b613d5581613c31565b8114613d6057600080fd5b5056fea264697066735822122068af929c9301bd502c5e0bd40253e198278a51f07bb62b9dd9b089b9088671d764736f6c63430008000033",
  "immutableReferences": {},
  "source": "// SPDX-License-Identifier: MIT\r\npragma solidity ^0.8.0;\r\n\r\ncontract RoleContract {\r\n\r\n    struct Retailer {\r\n        address ethAddress;\r\n        string name;\r\n        string physicalAddress;\r\n        string phoneNumber;\r\n        string email;\r\n    }\r\n\r\n    struct Manufacturer {\r\n        address ethAddress;\r\n        string name;\r\n        string addressLine;\r\n        string phoneNumber;\r\n        string email;\r\n    }\r\n\r\n    mapping(address => Manufacturer) public manufacturers;\r\n    address[] public manufacturerAddresses;\r\n    mapping(address => bool) public isManufacturer;\r\n\r\n    // Event when a manufacturer is added\r\n    event ManufacturerAdded(address indexed manufacturerAddress, string name);\r\n\r\n    // Function to add a manufacturer\r\n    function addManufacturer(\r\n        address _manufacturerAddress,\r\n        string memory _name,\r\n        string memory _addressLine,\r\n        string memory _phoneNumber,\r\n        string memory _email\r\n    ) public {\r\n        // Ensure the manufacturer is not already added\r\n        require(manufacturers[_manufacturerAddress].ethAddress == address(0), \"Manufacturer already exists.\");\r\n        \r\n        // Create and store the new manufacturer\r\n        manufacturers[_manufacturerAddress] = Manufacturer(_manufacturerAddress, _name, _addressLine, _phoneNumber, _email);\r\n        manufacturerAddresses.push(_manufacturerAddress);\r\n        isManufacturer[_manufacturerAddress] = true; // Track this as a manufacturer\r\n\r\n        // Emit the event\r\n        emit ManufacturerAdded(_manufacturerAddress, _name);\r\n    }\r\n\r\n    // Function to return all manufacturers' addresses\r\n    function getAllManufacturers() public view returns (address[] memory) {\r\n        return manufacturerAddresses;\r\n    }\r\n\r\n    // Function to get the details of a specific manufacturer by address\r\n    function getManufacturerDetails(address _manufacturer) public view returns (\r\n        string memory name, \r\n        string memory addressLine, \r\n        string memory phoneNumber, \r\n        string memory email\r\n    ) {\r\n        Manufacturer memory m = manufacturers[_manufacturer];\r\n        require(m.ethAddress != address(0), \"Manufacturer does not exist.\");\r\n\r\n        return (m.name, m.addressLine, m.phoneNumber, m.email);\r\n    }\r\n\r\n    // Function to check if an address is a registered manufacturer\r\n    function checkManufacturer(address _address) public view returns (bool) {\r\n        return isManufacturer[_address];\r\n    }\r\n\r\n\r\n    // Update Manufacturer Info\r\n    function updateManufacturer(\r\n        address _ethAddress,\r\n        string memory _name,\r\n        string memory _physicalAddress,\r\n        string memory _phoneNumber,\r\n        string memory _email\r\n    ) public {\r\n        require(manufacturers[_ethAddress].ethAddress != address(0), \"Manufacturer does not exist\");\r\n        Manufacturer storage m = manufacturers[_ethAddress];\r\n        m.name = _name;\r\n        m.addressLine = _physicalAddress;\r\n        m.phoneNumber = _phoneNumber;\r\n        m.email = _email;\r\n        emit ManufacturerUpdated(_ethAddress);\r\n    }\r\n\r\n // Get manufacturer details\r\n    function getManufacturer(address _manufacturer) public view returns (Manufacturer memory) {\r\n        Manufacturer memory m = manufacturers[_manufacturer];\r\n        require(m.ethAddress != address(0), \"Manufacturer does not exist\");  // Check if the manufacturer exists\r\n        return m;\r\n    }\r\n\r\n\r\n\r\n    struct Distributor {\r\n        address ethAddress;\r\n        string name;\r\n        string physicalAddress;\r\n        string phoneNumber;\r\n        string email;\r\n        bool isRefrigerated;\r\n        bool isFrozen;\r\n        bool isAmbient;\r\n        bool isPM;\r\n        bool isAM;\r\n        bool[7] workingDays; // Array to represent working days, 7 booleans for each day of the week\r\n    }\r\n\r\n    address public retailerAddress; // Only one retailer allowed\r\n    \r\n    mapping(address => Distributor) public distributors;\r\n    Retailer public retailer;\r\n    address[] public distributorAddresses;\r\n    mapping(address => bool) public isDistributor;\r\n\r\n    event RetailerAdded(address retailer);\r\n    event ManufacturerAdded(address manufacturer);\r\n    event DistributorAdded(address indexed distributorAddress, string name);\r\n    event RetailerUpdated(address retailer);\r\n    event ManufacturerUpdated(address manufacturer);\r\n    event DistributorUpdated(address distributor);\r\n\r\n    // Function to add a retailer (only one retailer allowed)\r\n    function addRetailer(\r\n        address _ethAddress,\r\n        string memory _name,\r\n        string memory _physicalAddress,\r\n        string memory _phoneNumber,\r\n        string memory _email\r\n    ) public {\r\n        require(retailerAddress == address(0), \"Retailer already added\");\r\n        retailer = Retailer(_ethAddress, _name, _physicalAddress, _phoneNumber, _email);\r\n        retailerAddress = _ethAddress;\r\n        emit RetailerAdded(_ethAddress);\r\n    }\r\n    \r\n     function checkRetailer(address _address) public view returns (bool) {\r\n    return _address == retailer.ethAddress;  // Compare with the registered retailer's address\r\n}\r\n\r\n\r\n  \r\n\r\n    // Update Retailer Info\r\n    function updateRetailer(\r\n        string memory _name,\r\n        string memory _physicalAddress,\r\n        string memory _phoneNumber,\r\n        string memory _email\r\n    ) public {\r\n        require(retailerAddress != address(0), \"No retailer registered\");\r\n        retailer.name = _name;\r\n        retailer.physicalAddress = _physicalAddress;\r\n        retailer.phoneNumber = _phoneNumber;\r\n        retailer.email = _email;\r\n        emit RetailerUpdated(retailerAddress);\r\n    }\r\n\r\n  \r\n\r\n    // Distributor Functions\r\n    function addDistributor(\r\n        address _ethAddress,\r\n        string memory _name,\r\n        string memory _physicalAddress,\r\n        string memory _phoneNumber,\r\n        string memory _email,\r\n        bool _isRefrigerated,\r\n        bool _isFrozen,\r\n        bool _isAmbient,\r\n        bool _isPM,\r\n        bool _isAM,\r\n        bool[7] memory _workingDays\r\n    ) public {\r\n        require(distributors[_ethAddress].ethAddress == address(0), \"Distributor already exists.\");\r\n        distributors[_ethAddress] = Distributor(\r\n            _ethAddress, \r\n            _name, \r\n            _physicalAddress, \r\n            _phoneNumber, \r\n            _email, \r\n            _isRefrigerated, \r\n            _isFrozen, \r\n            _isAmbient, \r\n            _isPM, \r\n            _isAM,\r\n            _workingDays\r\n        );\r\n        distributorAddresses.push(_ethAddress); // Store distributor address\r\n        isDistributor[_ethAddress] = true;\r\n        emit DistributorAdded(_ethAddress, _name);\r\n    }\r\n    \r\n     function getAllDistributorAddresses() public view returns (address[] memory) {\r\n        return distributorAddresses;\r\n    }\r\n     function checkDistributor(address _address) public view returns (bool) {\r\n        return isDistributor[_address];\r\n    }\r\n\r\n    // Update Distributor Info\r\n    function updateDistributor(\r\n        address _ethAddress,\r\n        string memory _name,\r\n        string memory _physicalAddress,\r\n        string memory _phoneNumber,\r\n        string memory _email,\r\n        bool _isRefrigerated,\r\n        bool _isFrozen,\r\n        bool _isAmbient,\r\n        bool _isPM,\r\n        bool _isAM,\r\n        bool[7] memory _workingDays\r\n    ) public {\r\n        require(distributors[_ethAddress].ethAddress != address(0), \"Distributor does not exist\");\r\n        Distributor storage d = distributors[_ethAddress];\r\n        d.name = _name;\r\n        d.physicalAddress = _physicalAddress;\r\n        d.phoneNumber = _phoneNumber;\r\n        d.email = _email;\r\n        d.isRefrigerated = _isRefrigerated;\r\n        d.isFrozen = _isFrozen;\r\n        d.isAmbient = _isAmbient;\r\n        d.isPM = _isPM;\r\n        d.isAM = _isAM;\r\n        d.workingDays = _workingDays;\r\n        emit DistributorUpdated(_ethAddress);\r\n    }\r\n\r\n    // Function to get retailer details\r\n    function getRetailer() public view returns (\r\n        address ethAddress,\r\n        string memory name,\r\n        string memory physicalAddress,\r\n        string memory phoneNumber,\r\n        string memory email\r\n    ) {\r\n        require(retailerAddress != address(0), \"No retailer registered\");\r\n        return (retailer.ethAddress, retailer.name, retailer.physicalAddress, retailer.phoneNumber, retailer.email);\r\n    }\r\n\r\n   \r\n\r\n    // Function to get distributor details\r\n    function getDistributor(address _distributor) public view returns (\r\n        address ethAddress,\r\n        string memory name,\r\n        string memory physicalAddress,\r\n        string memory phoneNumber,\r\n        string memory email,\r\n        bool isRefrigerated,\r\n        bool isFrozen,\r\n        bool isAmbient,\r\n        bool isPM,\r\n        bool isAM,\r\n        bool[7] memory workingDays\r\n    ) {\r\n        Distributor memory d = distributors[_distributor];\r\n        require(d.ethAddress != address(0), \"Distributor does not exist\");\r\n        return (\r\n            d.ethAddress, \r\n            d.name, \r\n            d.physicalAddress, \r\n            d.phoneNumber, \r\n            d.email, \r\n            d.isRefrigerated, \r\n            d.isFrozen, \r\n            d.isAmbient, \r\n            d.isPM, \r\n            d.isAM,\r\n            d.workingDays\r\n        );\r\n    }\r\n\r\n    \r\n\r\n}",
  "sourcePath": "C:\\Users\\noram\\Downloads\\farm-to-fork sprint 1\\contracts\\RoleContract.sol",
  "compiler": {
    "name": "solc",
    "version": "0.8.0+commit.c7dfd78e.Emscripten.clang"
  },
  "schemaVersion": "3.4.16",
  "updatedAt": "2025-05-10T10:27:09.157Z",
  "networkType": "ethereum",
  "devdoc": {
    "kind": "dev",
    "methods": {},
    "version": 1
  },
  "userdoc": {
    "kind": "user",
    "methods": {},
    "version": 1
  }
}