{
  "contractName": "OrderContract",
  "abi": [
    {
      "anonymous": false,
      "inputs": [
        {
          "indexed": false,
          "internalType": "uint256",
          "name": "orderId",
          "type": "uint256"
        },
        {
          "indexed": false,
          "internalType": "string",
          "name": "newStatus",
          "type": "string"
        }
      ],
      "name": "OrderStatusUpdated",
      "type": "event"
    },
    {
      "inputs": [],
      "name": "orderCounter",
      "outputs": [
        {
          "internalType": "uint256",
          "name": "",
          "type": "uint256"
        }
      ],
      "stateMutability": "view",
      "type": "function",
      "constant": true
    },
    {
      "inputs": [
        {
          "internalType": "uint256",
          "name": "",
          "type": "uint256"
        }
      ],
      "name": "orders",
      "outputs": [
        {
          "internalType": "uint256",
          "name": "orderId",
          "type": "uint256"
        },
        {
          "internalType": "address",
          "name": "retailer",
          "type": "address"
        },
        {
          "internalType": "address",
          "name": "manufacturer",
          "type": "address"
        },
        {
          "internalType": "uint256",
          "name": "productId",
          "type": "uint256"
        },
        {
          "internalType": "uint256",
          "name": "quantity",
          "type": "uint256"
        },
        {
          "internalType": "uint256",
          "name": "price",
          "type": "uint256"
        },
        {
          "components": [
            {
              "internalType": "string",
              "name": "deliveryDate",
              "type": "string"
            },
            {
              "internalType": "string",
              "name": "deliveryTime",
              "type": "string"
            },
            {
              "internalType": "string",
              "name": "shippingAddress",
              "type": "string"
            }
          ],
          "internalType": "struct OrderContract.DeliveryInfo",
          "name": "deliveryInfo",
          "type": "tuple"
        },
        {
          "internalType": "string",
          "name": "status",
          "type": "string"
        },
        {
          "internalType": "address",
          "name": "distributor",
          "type": "address"
        },
        {
          "internalType": "uint256",
          "name": "temperature",
          "type": "uint256"
        },
        {
          "internalType": "string",
          "name": "orderHistory",
          "type": "string"
        }
      ],
      "stateMutability": "view",
      "type": "function",
      "constant": true
    },
    {
      "inputs": [
        {
          "internalType": "uint256",
          "name": "_productId",
          "type": "uint256"
        },
        {
          "internalType": "uint256",
          "name": "_quantity",
          "type": "uint256"
        },
        {
          "internalType": "address",
          "name": "_manufacturer",
          "type": "address"
        },
        {
          "internalType": "string",
          "name": "_deliveryDate",
          "type": "string"
        },
        {
          "internalType": "string",
          "name": "_deliveryTime",
          "type": "string"
        },
        {
          "internalType": "string",
          "name": "_shippingAddress",
          "type": "string"
        },
        {
          "internalType": "uint256",
          "name": "_productPrice",
          "type": "uint256"
        }
      ],
      "name": "createOrder",
      "outputs": [],
      "stateMutability": "nonpayable",
      "type": "function"
    },
    {
      "inputs": [
        {
          "internalType": "uint256",
          "name": "_orderId",
          "type": "uint256"
        },
        {
          "internalType": "string",
          "name": "_newStatus",
          "type": "string"
        }
      ],
      "name": "updateOrderStatus",
      "outputs": [],
      "stateMutability": "nonpayable",
      "type": "function"
    },
    {
      "inputs": [],
      "name": "getAllOrderIds",
      "outputs": [
        {
          "internalType": "uint256[]",
          "name": "",
          "type": "uint256[]"
        }
      ],
      "stateMutability": "view",
      "type": "function",
      "constant": true
    },
    {
      "inputs": [],
      "name": "getAllRetailerAddresses",
      "outputs": [
        {
          "internalType": "address[]",
          "name": "",
          "type": "address[]"
        }
      ],
      "stateMutability": "view",
      "type": "function",
      "constant": true
    },
    {
      "inputs": [],
      "name": "getAllProductIds",
      "outputs": [
        {
          "internalType": "uint256[]",
          "name": "",
          "type": "uint256[]"
        }
      ],
      "stateMutability": "view",
      "type": "function",
      "constant": true
    },
    {
      "inputs": [],
      "name": "getAllQuantities",
      "outputs": [
        {
          "internalType": "uint256[]",
          "name": "",
          "type": "uint256[]"
        }
      ],
      "stateMutability": "view",
      "type": "function",
      "constant": true
    },
    {
      "inputs": [],
      "name": "getAllDeliveryDates",
      "outputs": [
        {
          "internalType": "string[]",
          "name": "",
          "type": "string[]"
        }
      ],
      "stateMutability": "view",
      "type": "function",
      "constant": true
    },
    {
      "inputs": [],
      "name": "getAllStatuses",
      "outputs": [
        {
          "internalType": "string[]",
          "name": "",
          "type": "string[]"
        }
      ],
      "stateMutability": "view",
      "type": "function",
      "constant": true
    },
    {
      "inputs": [],
      "name": "getAllOrders",
      "outputs": [
        {
          "components": [
            {
              "internalType": "uint256",
              "name": "orderId",
              "type": "uint256"
            },
            {
              "internalType": "address",
              "name": "retailer",
              "type": "address"
            },
            {
              "internalType": "address",
              "name": "manufacturer",
              "type": "address"
            },
            {
              "internalType": "uint256",
              "name": "productId",
              "type": "uint256"
            },
            {
              "internalType": "uint256",
              "name": "quantity",
              "type": "uint256"
            },
            {
              "internalType": "uint256",
              "name": "price",
              "type": "uint256"
            },
            {
              "components": [
                {
                  "internalType": "string",
                  "name": "deliveryDate",
                  "type": "string"
                },
                {
                  "internalType": "string",
                  "name": "deliveryTime",
                  "type": "string"
                },
                {
                  "internalType": "string",
                  "name": "shippingAddress",
                  "type": "string"
                }
              ],
              "internalType": "struct OrderContract.DeliveryInfo",
              "name": "deliveryInfo",
              "type": "tuple"
            },
            {
              "internalType": "string",
              "name": "status",
              "type": "string"
            },
            {
              "internalType": "address",
              "name": "distributor",
              "type": "address"
            },
            {
              "internalType": "uint256",
              "name": "temperature",
              "type": "uint256"
            },
            {
              "internalType": "string",
              "name": "orderHistory",
              "type": "string"
            }
          ],
          "internalType": "struct OrderContract.Order[]",
          "name": "",
          "type": "tuple[]"
        }
      ],
      "stateMutability": "view",
      "type": "function",
      "constant": true
    },
    {
      "inputs": [
        {
          "internalType": "uint256",
          "name": "_orderId",
          "type": "uint256"
        }
      ],
      "name": "getOrderById",
      "outputs": [
        {
          "components": [
            {
              "internalType": "uint256",
              "name": "orderId",
              "type": "uint256"
            },
            {
              "internalType": "address",
              "name": "retailer",
              "type": "address"
            },
            {
              "internalType": "address",
              "name": "manufacturer",
              "type": "address"
            },
            {
              "internalType": "uint256",
              "name": "productId",
              "type": "uint256"
            },
            {
              "internalType": "uint256",
              "name": "quantity",
              "type": "uint256"
            },
            {
              "internalType": "uint256",
              "name": "price",
              "type": "uint256"
            },
            {
              "components": [
                {
                  "internalType": "string",
                  "name": "deliveryDate",
                  "type": "string"
                },
                {
                  "internalType": "string",
                  "name": "deliveryTime",
                  "type": "string"
                },
                {
                  "internalType": "string",
                  "name": "shippingAddress",
                  "type": "string"
                }
              ],
              "internalType": "struct OrderContract.DeliveryInfo",
              "name": "deliveryInfo",
              "type": "tuple"
            },
            {
              "internalType": "string",
              "name": "status",
              "type": "string"
            },
            {
              "internalType": "address",
              "name": "distributor",
              "type": "address"
            },
            {
              "internalType": "uint256",
              "name": "temperature",
              "type": "uint256"
            },
            {
              "internalType": "string",
              "name": "orderHistory",
              "type": "string"
            }
          ],
          "internalType": "struct OrderContract.Order",
          "name": "",
          "type": "tuple"
        }
      ],
      "stateMutability": "view",
      "type": "function",
      "constant": true
    },
    {
      "inputs": [
        {
          "internalType": "address",
          "name": "_distributor",
          "type": "address"
        }
      ],
      "name": "getOrdersByDistributor",
      "outputs": [
        {
          "components": [
            {
              "internalType": "uint256",
              "name": "orderId",
              "type": "uint256"
            },
            {
              "internalType": "address",
              "name": "retailer",
              "type": "address"
            },
            {
              "internalType": "address",
              "name": "manufacturer",
              "type": "address"
            },
            {
              "internalType": "uint256",
              "name": "productId",
              "type": "uint256"
            },
            {
              "internalType": "uint256",
              "name": "quantity",
              "type": "uint256"
            },
            {
              "internalType": "uint256",
              "name": "price",
              "type": "uint256"
            },
            {
              "components": [
                {
                  "internalType": "string",
                  "name": "deliveryDate",
                  "type": "string"
                },
                {
                  "internalType": "string",
                  "name": "deliveryTime",
                  "type": "string"
                },
                {
                  "internalType": "string",
                  "name": "shippingAddress",
                  "type": "string"
                }
              ],
              "internalType": "struct OrderContract.DeliveryInfo",
              "name": "deliveryInfo",
              "type": "tuple"
            },
            {
              "internalType": "string",
              "name": "status",
              "type": "string"
            },
            {
              "internalType": "address",
              "name": "distributor",
              "type": "address"
            },
            {
              "internalType": "uint256",
              "name": "temperature",
              "type": "uint256"
            },
            {
              "internalType": "string",
              "name": "orderHistory",
              "type": "string"
            }
          ],
          "internalType": "struct OrderContract.Order[]",
          "name": "",
          "type": "tuple[]"
        }
      ],
      "stateMutability": "view",
      "type": "function",
      "constant": true
    },
    {
      "inputs": [
        {
          "internalType": "address",
          "name": "_manufacturer",
          "type": "address"
        }
      ],
      "name": "getOrdersByManufacturer",
      "outputs": [
        {
          "components": [
            {
              "internalType": "uint256",
              "name": "orderId",
              "type": "uint256"
            },
            {
              "internalType": "address",
              "name": "retailer",
              "type": "address"
            },
            {
              "internalType": "address",
              "name": "manufacturer",
              "type": "address"
            },
            {
              "internalType": "uint256",
              "name": "productId",
              "type": "uint256"
            },
            {
              "internalType": "uint256",
              "name": "quantity",
              "type": "uint256"
            },
            {
              "internalType": "uint256",
              "name": "price",
              "type": "uint256"
            },
            {
              "components": [
                {
                  "internalType": "string",
                  "name": "deliveryDate",
                  "type": "string"
                },
                {
                  "internalType": "string",
                  "name": "deliveryTime",
                  "type": "string"
                },
                {
                  "internalType": "string",
                  "name": "shippingAddress",
                  "type": "string"
                }
              ],
              "internalType": "struct OrderContract.DeliveryInfo",
              "name": "deliveryInfo",
              "type": "tuple"
            },
            {
              "internalType": "string",
              "name": "status",
              "type": "string"
            },
            {
              "internalType": "address",
              "name": "distributor",
              "type": "address"
            },
            {
              "internalType": "uint256",
              "name": "temperature",
              "type": "uint256"
            },
            {
              "internalType": "string",
              "name": "orderHistory",
              "type": "string"
            }
          ],
          "internalType": "struct OrderContract.Order[]",
          "name": "",
          "type": "tuple[]"
        }
      ],
      "stateMutability": "view",
      "type": "function",
      "constant": true
    }
  ],
  "bytecode": "0x6080604052600060015534801561001557600080fd5b50613bed806100256000396000f3fe608060405234801561001057600080fd5b50600436106100ea5760003560e01c806381bdcb851161008c578063a864ca6111610066578063a864ca611461026b578063b74dd69314610287578063b789bf52146102a5578063dcd425cc146102c3576100ea565b806381bdcb85146101f5578063a241036b14610213578063a85c38ef14610231576100ea565b80634b2b612a116100c85780634b2b612a1461016b5780634ecf93f914610189578063663c01af146101b95780637bea0d1c146101d7576100ea565b8063205fdde6146100ef57806332eb9b4b1461010b57806342b50a7a1461013b575b600080fd5b61010960048036038101906101049190612d08565b6102e1565b005b61012560048036038101906101209190612cb6565b61041d565b60405161013291906135ad565b60405180910390f35b61015560048036038101906101509190612cdf565b610b08565b6040516101629190613611565b60405180910390f35b610173610fea565b60405161018091906135cf565b60405180910390f35b6101a3600480360381019061019e9190612cb6565b61111f565b6040516101b091906135ad565b60405180910390f35b6101c161180a565b6040516101ce91906135cf565b60405180910390f35b6101df61193f565b6040516101ec91906135ad565b60405180910390f35b6101fd611dc1565b60405161020a9190613569565b60405180910390f35b61021b611f44565b60405161022891906135cf565b60405180910390f35b61024b60048036038101906102469190612cdf565b612079565b6040516102629b9a9998979695949392919061364e565b60405180910390f35b61028560048036038101906102809190612d5c565b612413565b005b61028f612733565b60405161029c919061358b565b60405180910390f35b6102ad6128f7565b6040516102ba9190613633565b60405180910390f35b6102cb6128fd565b6040516102d8919061358b565b60405180910390f35b6000821180156102f357506001548211155b610332576040517f08c379a0000000000000000000000000000000000000000000000000000000008152600401610329906135f1565b60405180910390fd5b6000806001846103429190613958565b81548110610379577f4e487b7100000000000000000000000000000000000000000000000000000000600052603260045260246000fd5b90600052602060002090600d02019050818160090190805190602001906103a1929190612abe565b5080600c01826040516020016103b892919061353a565b60405160208183030381529060405281600c0190805190602001906103de929190612abe565b507f69cc2ff377f3eb15084b7510fd6ee5543db4f1e15b8385d9f0c804cbe9edd0fc838360405161041092919061370e565b60405180910390a1505050565b60606000805b6000805490508110156104f1578373ffffffffffffffffffffffffffffffffffffffff1660008281548110610481577f4e487b7100000000000000000000000000000000000000000000000000000000600052603260045260246000fd5b90600052602060002090600d0201600a0160009054906101000a900473ffffffffffffffffffffffffffffffffffffffff1673ffffffffffffffffffffffffffffffffffffffff1614156104de5781806104da90613a3c565b9250505b80806104e990613a3c565b915050610423565b5060008167ffffffffffffffff811115610534577f4e487b7100000000000000000000000000000000000000000000000000000000600052604160045260246000fd5b60405190808252806020026020018201604052801561056d57816020015b61055a612b44565b8152602001906001900390816105525790505b5090506000805b600080549050811015610afc578573ffffffffffffffffffffffffffffffffffffffff16600082815481106105d2577f4e487b7100000000000000000000000000000000000000000000000000000000600052603260045260246000fd5b90600052602060002090600d0201600a0160009054906101000a900473ffffffffffffffffffffffffffffffffffffffff1673ffffffffffffffffffffffffffffffffffffffff161415610ae9576000818154811061065a577f4e487b7100000000000000000000000000000000000000000000000000000000600052603260045260246000fd5b90600052602060002090600d020160405180610160016040529081600082015481526020016001820160009054906101000a900473ffffffffffffffffffffffffffffffffffffffff1673ffffffffffffffffffffffffffffffffffffffff1673ffffffffffffffffffffffffffffffffffffffff1681526020016002820160009054906101000a900473ffffffffffffffffffffffffffffffffffffffff1673ffffffffffffffffffffffffffffffffffffffff1673ffffffffffffffffffffffffffffffffffffffff1681526020016003820154815260200160048201548152602001600582015481526020016006820160405180606001604052908160008201805461076890613a0a565b80601f016020809104026020016040519081016040528092919081815260200182805461079490613a0a565b80156107e15780601f106107b6576101008083540402835291602001916107e1565b820191906000526020600020905b8154815290600101906020018083116107c457829003601f168201915b505050505081526020016001820180546107fa90613a0a565b80601f016020809104026020016040519081016040528092919081815260200182805461082690613a0a565b80156108735780601f1061084857610100808354040283529160200191610873565b820191906000526020600020905b81548152906001019060200180831161085657829003601f168201915b5050505050815260200160028201805461088c90613a0a565b80601f01602080910402602001604051908101604052809291908181526020018280546108b890613a0a565b80156109055780601f106108da57610100808354040283529160200191610905565b820191906000526020600020905b8154815290600101906020018083116108e857829003601f168201915b505050505081525050815260200160098201805461092290613a0a565b80601f016020809104026020016040519081016040528092919081815260200182805461094e90613a0a565b801561099b5780601f106109705761010080835404028352916020019161099b565b820191906000526020600020905b81548152906001019060200180831161097e57829003601f168201915b50505050508152602001600a820160009054906101000a900473ffffffffffffffffffffffffffffffffffffffff1673ffffffffffffffffffffffffffffffffffffffff1673ffffffffffffffffffffffffffffffffffffffff168152602001600b8201548152602001600c82018054610a1490613a0a565b80601f0160208091040260200160405190810160405280929190818152602001828054610a4090613a0a565b8015610a8d5780601f10610a6257610100808354040283529160200191610a8d565b820191906000526020600020905b815481529060010190602001808311610a7057829003601f168201915b505050505081525050838381518110610acf577f4e487b7100000000000000000000000000000000000000000000000000000000600052603260045260246000fd5b60200260200101819052508180610ae590613a3c565b9250505b8080610af490613a3c565b915050610574565b50819350505050919050565b610b10612b44565b600082118015610b2257506001548211155b610b61576040517f08c379a0000000000000000000000000000000000000000000000000000000008152600401610b58906135f1565b60405180910390fd5b6000600183610b709190613958565b81548110610ba7577f4e487b7100000000000000000000000000000000000000000000000000000000600052603260045260246000fd5b90600052602060002090600d020160405180610160016040529081600082015481526020016001820160009054906101000a900473ffffffffffffffffffffffffffffffffffffffff1673ffffffffffffffffffffffffffffffffffffffff1673ffffffffffffffffffffffffffffffffffffffff1681526020016002820160009054906101000a900473ffffffffffffffffffffffffffffffffffffffff1673ffffffffffffffffffffffffffffffffffffffff1673ffffffffffffffffffffffffffffffffffffffff16815260200160038201548152602001600482015481526020016005820154815260200160068201604051806060016040529081600082018054610cb590613a0a565b80601f0160208091040260200160405190810160405280929190818152602001828054610ce190613a0a565b8015610d2e5780601f10610d0357610100808354040283529160200191610d2e565b820191906000526020600020905b815481529060010190602001808311610d1157829003601f168201915b50505050508152602001600182018054610d4790613a0a565b80601f0160208091040260200160405190810160405280929190818152602001828054610d7390613a0a565b8015610dc05780601f10610d9557610100808354040283529160200191610dc0565b820191906000526020600020905b815481529060010190602001808311610da357829003601f168201915b50505050508152602001600282018054610dd990613a0a565b80601f0160208091040260200160405190810160405280929190818152602001828054610e0590613a0a565b8015610e525780601f10610e2757610100808354040283529160200191610e52565b820191906000526020600020905b815481529060010190602001808311610e3557829003601f168201915b5050505050815250508152602001600982018054610e6f90613a0a565b80601f0160208091040260200160405190810160405280929190818152602001828054610e9b90613a0a565b8015610ee85780601f10610ebd57610100808354040283529160200191610ee8565b820191906000526020600020905b815481529060010190602001808311610ecb57829003601f168201915b50505050508152602001600a820160009054906101000a900473ffffffffffffffffffffffffffffffffffffffff1673ffffffffffffffffffffffffffffffffffffffff1673ffffffffffffffffffffffffffffffffffffffff168152602001600b8201548152602001600c82018054610f6190613a0a565b80601f0160208091040260200160405190810160405280929190818152602001828054610f8d90613a0a565b8015610fda5780601f10610faf57610100808354040283529160200191610fda565b820191906000526020600020905b815481529060010190602001808311610fbd57829003601f168201915b5050505050815250509050919050565b60606000808054905067ffffffffffffffff811115611032577f4e487b7100000000000000000000000000000000000000000000000000000000600052604160045260246000fd5b6040519080825280602002602001820160405280156110605781602001602082028036833780820191505090505b50905060005b60008054905081101561111757600081815481106110ad577f4e487b7100000000000000000000000000000000000000000000000000000000600052603260045260246000fd5b90600052602060002090600d0201600001548282815181106110f8577f4e487b7100000000000000000000000000000000000000000000000000000000600052603260045260246000fd5b602002602001018181525050808061110f90613a3c565b915050611066565b508091505090565b60606000805b6000805490508110156111f3578373ffffffffffffffffffffffffffffffffffffffff1660008281548110611183577f4e487b7100000000000000000000000000000000000000000000000000000000600052603260045260246000fd5b90600052602060002090600d020160020160009054906101000a900473ffffffffffffffffffffffffffffffffffffffff1673ffffffffffffffffffffffffffffffffffffffff1614156111e05781806111dc90613a3c565b9250505b80806111eb90613a3c565b915050611125565b5060008167ffffffffffffffff811115611236577f4e487b7100000000000000000000000000000000000000000000000000000000600052604160045260246000fd5b60405190808252806020026020018201604052801561126f57816020015b61125c612b44565b8152602001906001900390816112545790505b5090506000805b6000805490508110156117fe578573ffffffffffffffffffffffffffffffffffffffff16600082815481106112d4577f4e487b7100000000000000000000000000000000000000000000000000000000600052603260045260246000fd5b90600052602060002090600d020160020160009054906101000a900473ffffffffffffffffffffffffffffffffffffffff1673ffffffffffffffffffffffffffffffffffffffff1614156117eb576000818154811061135c577f4e487b7100000000000000000000000000000000000000000000000000000000600052603260045260246000fd5b90600052602060002090600d020160405180610160016040529081600082015481526020016001820160009054906101000a900473ffffffffffffffffffffffffffffffffffffffff1673ffffffffffffffffffffffffffffffffffffffff1673ffffffffffffffffffffffffffffffffffffffff1681526020016002820160009054906101000a900473ffffffffffffffffffffffffffffffffffffffff1673ffffffffffffffffffffffffffffffffffffffff1673ffffffffffffffffffffffffffffffffffffffff1681526020016003820154815260200160048201548152602001600582015481526020016006820160405180606001604052908160008201805461146a90613a0a565b80601f016020809104026020016040519081016040528092919081815260200182805461149690613a0a565b80156114e35780601f106114b8576101008083540402835291602001916114e3565b820191906000526020600020905b8154815290600101906020018083116114c657829003601f168201915b505050505081526020016001820180546114fc90613a0a565b80601f016020809104026020016040519081016040528092919081815260200182805461152890613a0a565b80156115755780601f1061154a57610100808354040283529160200191611575565b820191906000526020600020905b81548152906001019060200180831161155857829003601f168201915b5050505050815260200160028201805461158e90613a0a565b80601f01602080910402602001604051908101604052809291908181526020018280546115ba90613a0a565b80156116075780601f106115dc57610100808354040283529160200191611607565b820191906000526020600020905b8154815290600101906020018083116115ea57829003601f168201915b505050505081525050815260200160098201805461162490613a0a565b80601f016020809104026020016040519081016040528092919081815260200182805461165090613a0a565b801561169d5780601f106116725761010080835404028352916020019161169d565b820191906000526020600020905b81548152906001019060200180831161168057829003601f168201915b50505050508152602001600a820160009054906101000a900473ffffffffffffffffffffffffffffffffffffffff1673ffffffffffffffffffffffffffffffffffffffff1673ffffffffffffffffffffffffffffffffffffffff168152602001600b8201548152602001600c8201805461171690613a0a565b80601f016020809104026020016040519081016040528092919081815260200182805461174290613a0a565b801561178f5780601f106117645761010080835404028352916020019161178f565b820191906000526020600020905b81548152906001019060200180831161177257829003601f168201915b5050505050815250508383815181106117d1577f4e487b7100000000000000000000000000000000000000000000000000000000600052603260045260246000fd5b602002602001018190525081806117e790613a3c565b9250505b80806117f690613a3c565b915050611276565b50819350505050919050565b60606000808054905067ffffffffffffffff811115611852577f4e487b7100000000000000000000000000000000000000000000000000000000600052604160045260246000fd5b6040519080825280602002602001820160405280156118805781602001602082028036833780820191505090505b50905060005b60008054905081101561193757600081815481106118cd577f4e487b7100000000000000000000000000000000000000000000000000000000600052603260045260246000fd5b90600052602060002090600d020160030154828281518110611918577f4e487b7100000000000000000000000000000000000000000000000000000000600052603260045260246000fd5b602002602001018181525050808061192f90613a3c565b915050611886565b508091505090565b60606000805480602002602001604051908101604052809291908181526020016000905b82821015611db857838290600052602060002090600d020160405180610160016040529081600082015481526020016001820160009054906101000a900473ffffffffffffffffffffffffffffffffffffffff1673ffffffffffffffffffffffffffffffffffffffff1673ffffffffffffffffffffffffffffffffffffffff1681526020016002820160009054906101000a900473ffffffffffffffffffffffffffffffffffffffff1673ffffffffffffffffffffffffffffffffffffffff1673ffffffffffffffffffffffffffffffffffffffff16815260200160038201548152602001600482015481526020016005820154815260200160068201604051806060016040529081600082018054611a7b90613a0a565b80601f0160208091040260200160405190810160405280929190818152602001828054611aa790613a0a565b8015611af45780601f10611ac957610100808354040283529160200191611af4565b820191906000526020600020905b815481529060010190602001808311611ad757829003601f168201915b50505050508152602001600182018054611b0d90613a0a565b80601f0160208091040260200160405190810160405280929190818152602001828054611b3990613a0a565b8015611b865780601f10611b5b57610100808354040283529160200191611b86565b820191906000526020600020905b815481529060010190602001808311611b6957829003601f168201915b50505050508152602001600282018054611b9f90613a0a565b80601f0160208091040260200160405190810160405280929190818152602001828054611bcb90613a0a565b8015611c185780601f10611bed57610100808354040283529160200191611c18565b820191906000526020600020905b815481529060010190602001808311611bfb57829003601f168201915b5050505050815250508152602001600982018054611c3590613a0a565b80601f0160208091040260200160405190810160405280929190818152602001828054611c6190613a0a565b8015611cae5780601f10611c8357610100808354040283529160200191611cae565b820191906000526020600020905b815481529060010190602001808311611c9157829003601f168201915b50505050508152602001600a820160009054906101000a900473ffffffffffffffffffffffffffffffffffffffff1673ffffffffffffffffffffffffffffffffffffffff1673ffffffffffffffffffffffffffffffffffffffff168152602001600b8201548152602001600c82018054611d2790613a0a565b80601f0160208091040260200160405190810160405280929190818152602001828054611d5390613a0a565b8015611da05780601f10611d7557610100808354040283529160200191611da0565b820191906000526020600020905b815481529060010190602001808311611d8357829003601f168201915b50505050508152505081526020019060010190611963565b50505050905090565b60606000808054905067ffffffffffffffff811115611e09577f4e487b7100000000000000000000000000000000000000000000000000000000600052604160045260246000fd5b604051908082528060200260200182016040528015611e375781602001602082028036833780820191505090505b50905060005b600080549050811015611f3c5760008181548110611e84577f4e487b7100000000000000000000000000000000000000000000000000000000600052603260045260246000fd5b90600052602060002090600d020160010160009054906101000a900473ffffffffffffffffffffffffffffffffffffffff16828281518110611eef577f4e487b7100000000000000000000000000000000000000000000000000000000600052603260045260246000fd5b602002602001019073ffffffffffffffffffffffffffffffffffffffff16908173ffffffffffffffffffffffffffffffffffffffff16815250508080611f3490613a3c565b915050611e3d565b508091505090565b60606000808054905067ffffffffffffffff811115611f8c577f4e487b7100000000000000000000000000000000000000000000000000000000600052604160045260246000fd5b604051908082528060200260200182016040528015611fba5781602001602082028036833780820191505090505b50905060005b6000805490508110156120715760008181548110612007577f4e487b7100000000000000000000000000000000000000000000000000000000600052603260045260246000fd5b90600052602060002090600d020160040154828281518110612052577f4e487b7100000000000000000000000000000000000000000000000000000000600052603260045260246000fd5b602002602001018181525050808061206990613a3c565b915050611fc0565b508091505090565b6000818154811061208957600080fd5b90600052602060002090600d02016000915090508060000154908060010160009054906101000a900473ffffffffffffffffffffffffffffffffffffffff16908060020160009054906101000a900473ffffffffffffffffffffffffffffffffffffffff16908060030154908060040154908060050154908060060160405180606001604052908160008201805461212090613a0a565b80601f016020809104026020016040519081016040528092919081815260200182805461214c90613a0a565b80156121995780601f1061216e57610100808354040283529160200191612199565b820191906000526020600020905b81548152906001019060200180831161217c57829003601f168201915b505050505081526020016001820180546121b290613a0a565b80601f01602080910402602001604051908101604052809291908181526020018280546121de90613a0a565b801561222b5780601f106122005761010080835404028352916020019161222b565b820191906000526020600020905b81548152906001019060200180831161220e57829003601f168201915b5050505050815260200160028201805461224490613a0a565b80601f016020809104026020016040519081016040528092919081815260200182805461227090613a0a565b80156122bd5780601f10612292576101008083540402835291602001916122bd565b820191906000526020600020905b8154815290600101906020018083116122a057829003601f168201915b505050505081525050908060090180546122d690613a0a565b80601f016020809104026020016040519081016040528092919081815260200182805461230290613a0a565b801561234f5780601f106123245761010080835404028352916020019161234f565b820191906000526020600020905b81548152906001019060200180831161233257829003601f168201915b50505050509080600a0160009054906101000a900473ffffffffffffffffffffffffffffffffffffffff169080600b01549080600c01805461239090613a0a565b80601f01602080910402602001604051908101604052809291908181526020018280546123bc90613a0a565b80156124095780601f106123de57610100808354040283529160200191612409565b820191906000526020600020905b8154815290600101906020018083116123ec57829003601f168201915b505050505090508b565b6001600081548092919061242690613a3c565b91905055506000868261243991906138fe565b905060006040518060600160405280878152602001868152602001858152509050600060405180610160016040528060015481526020013373ffffffffffffffffffffffffffffffffffffffff1681526020018973ffffffffffffffffffffffffffffffffffffffff1681526020018b81526020018a8152602001848152602001838152602001604051806060016040528060238152602001613b95602391398152602001600073ffffffffffffffffffffffffffffffffffffffff16815260200160008152602001604051806080016040528060438152602001613b526043913981525090806001815401808255809150506001900390600052602060002090600d02016000909190919091506000820151816000015560208201518160010160006101000a81548173ffffffffffffffffffffffffffffffffffffffff021916908373ffffffffffffffffffffffffffffffffffffffff16021790555060408201518160020160006101000a81548173ffffffffffffffffffffffffffffffffffffffff021916908373ffffffffffffffffffffffffffffffffffffffff160217905550606082015181600301556080820151816004015560a0820151816005015560c0820151816006016000820151816000019080519060200190612622929190612abe565b50602082015181600101908051906020019061263f929190612abe565b50604082015181600201908051906020019061265c929190612abe565b50505060e082015181600901908051906020019061267b929190612abe565b5061010082015181600a0160006101000a81548173ffffffffffffffffffffffffffffffffffffffff021916908373ffffffffffffffffffffffffffffffffffffffff16021790555061012082015181600b015561014082015181600c0190805190602001906126ec929190612abe565b5050507f69cc2ff377f3eb15084b7510fd6ee5543db4f1e15b8385d9f0c804cbe9edd0fc600154604051612720919061373e565b60405180910390a1505050505050505050565b60606000808054905067ffffffffffffffff81111561277b577f4e487b7100000000000000000000000000000000000000000000000000000000600052604160045260246000fd5b6040519080825280602002602001820160405280156127ae57816020015b60608152602001906001900390816127995790505b50905060005b6000805490508110156128ef57600081815481106127fb577f4e487b7100000000000000000000000000000000000000000000000000000000600052603260045260246000fd5b90600052602060002090600d0201600601600001805461281a90613a0a565b80601f016020809104026020016040519081016040528092919081815260200182805461284690613a0a565b80156128935780601f1061286857610100808354040283529160200191612893565b820191906000526020600020905b81548152906001019060200180831161287657829003601f168201915b50505050508282815181106128d1577f4e487b7100000000000000000000000000000000000000000000000000000000600052603260045260246000fd5b602002602001018190525080806128e790613a3c565b9150506127b4565b508091505090565b60015481565b60606000808054905067ffffffffffffffff811115612945577f4e487b7100000000000000000000000000000000000000000000000000000000600052604160045260246000fd5b60405190808252806020026020018201604052801561297857816020015b60608152602001906001900390816129635790505b50905060005b600080549050811015612ab657600081815481106129c5577f4e487b7100000000000000000000000000000000000000000000000000000000600052603260045260246000fd5b90600052602060002090600d020160090180546129e190613a0a565b80601f0160208091040260200160405190810160405280929190818152602001828054612a0d90613a0a565b8015612a5a5780601f10612a2f57610100808354040283529160200191612a5a565b820191906000526020600020905b815481529060010190602001808311612a3d57829003601f168201915b5050505050828281518110612a98577f4e487b7100000000000000000000000000000000000000000000000000000000600052603260045260246000fd5b60200260200101819052508080612aae90613a3c565b91505061297e565b508091505090565b828054612aca90613a0a565b90600052602060002090601f016020900481019282612aec5760008555612b33565b82601f10612b0557805160ff1916838001178555612b33565b82800160010185558215612b33579182015b82811115612b32578251825591602001919060010190612b17565b5b509050612b409190612be6565b5090565b60405180610160016040528060008152602001600073ffffffffffffffffffffffffffffffffffffffff168152602001600073ffffffffffffffffffffffffffffffffffffffff168152602001600081526020016000815260200160008152602001612bae612c03565b815260200160608152602001600073ffffffffffffffffffffffffffffffffffffffff16815260200160008152602001606081525090565b5b80821115612bff576000816000905550600101612be7565b5090565b60405180606001604052806060815260200160608152602001606081525090565b6000612c37612c328461379d565b61376c565b905082815260208101848484011115612c4f57600080fd5b612c5a8482856139c8565b509392505050565b600081359050612c7181613b23565b92915050565b600082601f830112612c8857600080fd5b8135612c98848260208601612c24565b91505092915050565b600081359050612cb081613b3a565b92915050565b600060208284031215612cc857600080fd5b6000612cd684828501612c62565b91505092915050565b600060208284031215612cf157600080fd5b6000612cff84828501612ca1565b91505092915050565b60008060408385031215612d1b57600080fd5b6000612d2985828601612ca1565b925050602083013567ffffffffffffffff811115612d4657600080fd5b612d5285828601612c77565b9150509250929050565b600080600080600080600060e0888a031215612d7757600080fd5b6000612d858a828b01612ca1565b9750506020612d968a828b01612ca1565b9650506040612da78a828b01612c62565b955050606088013567ffffffffffffffff811115612dc457600080fd5b612dd08a828b01612c77565b945050608088013567ffffffffffffffff811115612ded57600080fd5b612df98a828b01612c77565b93505060a088013567ffffffffffffffff811115612e1657600080fd5b612e228a828b01612c77565b92505060c0612e338a828b01612ca1565b91505092959891949750929550565b6000612e4e8383612e9a565b60208301905092915050565b6000612e66838361305e565b905092915050565b6000612e7a8383613322565b905092915050565b6000612e8e838361351c565b60208301905092915050565b612ea38161398c565b82525050565b612eb28161398c565b82525050565b6000612ec382613822565b612ecd818561388d565b9350612ed8836137cd565b8060005b83811015612f09578151612ef08882612e42565b9750612efb83613859565b925050600181019050612edc565b5085935050505092915050565b6000612f218261382d565b612f2b818561389e565b935083602082028501612f3d856137dd565b8060005b85811015612f795784840389528151612f5a8582612e5a565b9450612f6583613866565b925060208a01995050600181019050612f41565b50829750879550505050505092915050565b6000612f9682613838565b612fa081856138af565b935083602082028501612fb2856137ed565b8060005b85811015612fee5784840389528151612fcf8582612e6e565b9450612fda83613873565b925060208a01995050600181019050612fb6565b50829750879550505050505092915050565b600061300b82613843565b61301581856138c0565b9350613020836137fd565b8060005b838110156130515781516130388882612e82565b975061304383613880565b925050600181019050613024565b5085935050505092915050565b60006130698261384e565b61307381856138d1565b93506130838185602086016139d7565b61308c81613b12565b840191505092915050565b60006130a28261384e565b6130ac81856138e2565b93506130bc8185602086016139d7565b6130c581613b12565b840191505092915050565b60006130db8261384e565b6130e581856138f3565b93506130f58185602086016139d7565b80840191505092915050565b6000815461310e81613a0a565b61311881866138f3565b94506001821660008114613133576001811461314457613177565b60ff19831686528186019350613177565b61314d8561380d565b60005b8381101561316f57815481890152600182019150602081019050613150565b838801955050505b50505092915050565b600061318d6015836138f3565b91507f207c20537461747573207570646174656420746f2000000000000000000000006000830152601582019050919050565b60006131cd6015836138e2565b91507f4f7264657220646f6573206e6f742065786973742e00000000000000000000006000830152602082019050919050565b600061320d6023836138e2565b91507f57616974696e6720666f72206d616e756661637475726572206163636570746160008301527f6e636500000000000000000000000000000000000000000000000000000000006020830152604082019050919050565b60006060830160008301518482036000860152613283828261305e565b9150506020830151848203602086015261329d828261305e565b915050604083015184820360408601526132b7828261305e565b9150508091505092915050565b600060608301600083015184820360008601526132e1828261305e565b915050602083015184820360208601526132fb828261305e565b91505060408301518482036040860152613315828261305e565b9150508091505092915050565b60006101608301600083015161333b600086018261351c565b50602083015161334e6020860182612e9a565b5060408301516133616040860182612e9a565b506060830151613374606086018261351c565b506080830151613387608086018261351c565b5060a083015161339a60a086018261351c565b5060c083015184820360c08601526133b28282613266565b91505060e083015184820360e08601526133cc828261305e565b9150506101008301516133e3610100860182612e9a565b506101208301516133f861012086018261351c565b50610140830151848203610140860152613412828261305e565b9150508091505092915050565b600061016083016000830151613438600086018261351c565b50602083015161344b6020860182612e9a565b50604083015161345e6040860182612e9a565b506060830151613471606086018261351c565b506080830151613484608086018261351c565b5060a083015161349760a086018261351c565b5060c083015184820360c08601526134af8282613266565b91505060e083015184820360e08601526134c9828261305e565b9150506101008301516134e0610100860182612e9a565b506101208301516134f561012086018261351c565b5061014083015184820361014086015261350f828261305e565b9150508091505092915050565b613525816139be565b82525050565b613534816139be565b82525050565b60006135468285613101565b915061355182613180565b915061355d82846130d0565b91508190509392505050565b600060208201905081810360008301526135838184612eb8565b905092915050565b600060208201905081810360008301526135a58184612f16565b905092915050565b600060208201905081810360008301526135c78184612f8b565b905092915050565b600060208201905081810360008301526135e98184613000565b905092915050565b6000602082019050818103600083015261360a816131c0565b9050919050565b6000602082019050818103600083015261362b818461341f565b905092915050565b6000602082019050613648600083018461352b565b92915050565b600061016082019050613664600083018e61352b565b613671602083018d612ea9565b61367e604083018c612ea9565b61368b606083018b61352b565b613698608083018a61352b565b6136a560a083018961352b565b81810360c08301526136b781886132c4565b905081810360e08301526136cb8187613097565b90506136db610100830186612ea9565b6136e961012083018561352b565b8181036101408301526136fc8184613097565b90509c9b505050505050505050505050565b6000604082019050613723600083018561352b565b81810360208301526137358184613097565b90509392505050565b6000604082019050613753600083018461352b565b818103602083015261376481613200565b905092915050565b6000604051905081810181811067ffffffffffffffff8211171561379357613792613ae3565b5b8060405250919050565b600067ffffffffffffffff8211156137b8576137b7613ae3565b5b601f19601f8301169050602081019050919050565b6000819050602082019050919050565b6000819050602082019050919050565b6000819050602082019050919050565b6000819050602082019050919050565b60008190508160005260206000209050919050565b600081519050919050565b600081519050919050565b600081519050919050565b600081519050919050565b600081519050919050565b6000602082019050919050565b6000602082019050919050565b6000602082019050919050565b6000602082019050919050565b600082825260208201905092915050565b600082825260208201905092915050565b600082825260208201905092915050565b600082825260208201905092915050565b600082825260208201905092915050565b600082825260208201905092915050565b600081905092915050565b6000613909826139be565b9150613914836139be565b9250817fffffffffffffffffffffffffffffffffffffffffffffffffffffffffffffffff048311821515161561394d5761394c613a85565b5b828202905092915050565b6000613963826139be565b915061396e836139be565b92508282101561398157613980613a85565b5b828203905092915050565b60006139978261399e565b9050919050565b600073ffffffffffffffffffffffffffffffffffffffff82169050919050565b6000819050919050565b82818337600083830152505050565b60005b838110156139f55780820151818401526020810190506139da565b83811115613a04576000848401525b50505050565b60006002820490506001821680613a2257607f821691505b60208210811415613a3657613a35613ab4565b5b50919050565b6000613a47826139be565b91507fffffffffffffffffffffffffffffffffffffffffffffffffffffffffffffffff821415613a7a57613a79613a85565b5b600182019050919050565b7f4e487b7100000000000000000000000000000000000000000000000000000000600052601160045260246000fd5b7f4e487b7100000000000000000000000000000000000000000000000000000000600052602260045260246000fd5b7f4e487b7100000000000000000000000000000000000000000000000000000000600052604160045260246000fd5b6000601f19601f8301169050919050565b613b2c8161398c565b8114613b3757600080fd5b50565b613b43816139be565b8114613b4e57600080fd5b5056fe4f72646572206372656174656420616e64207374617475732073657420746f2077616974696e6720666f72206d616e75666163747572657220616363657074616e636557616974696e6720666f72206d616e75666163747572657220616363657074616e6365a264697066735822122057c919e1d8a360cb396eb52c887eafc4ed91046aba4af511d10d0279a0f7f94364736f6c63430008000033",
  "immutableReferences": {},
  "source": "// SPDX-License-Identifier: MIT\r\npragma solidity ^0.8.0;\r\n\r\ncontract OrderContract {\r\n    struct Order {\r\n        uint orderId;\r\n        address retailer;\r\n        address manufacturer;\r\n        uint productId;\r\n        uint quantity;\r\n        uint price; // Total price of the order (product price * quantity)\r\n        DeliveryInfo deliveryInfo; // Struct for delivery-related info\r\n        string status;\r\n        address distributor;\r\n        uint temperature;\r\n        string orderHistory;\r\n    }\r\n\r\n    struct DeliveryInfo {\r\n        string deliveryDate;\r\n        string deliveryTime;\r\n        string shippingAddress;\r\n    }\r\n\r\n    Order[] public orders;\r\n    uint public orderCounter = 0;\r\n\r\n    event OrderStatusUpdated(uint orderId, string newStatus);\r\n\r\n    // Function to create a new order\r\n    function createOrder(\r\n        uint _productId,\r\n        uint _quantity,\r\n        address _manufacturer,\r\n        string memory _deliveryDate,\r\n        string memory _deliveryTime,\r\n        string memory _shippingAddress,\r\n        uint _productPrice // This will be fetched from the product contract\r\n    ) public {\r\n        orderCounter++;\r\n        uint totalPrice = _productPrice * _quantity;\r\n\r\n        DeliveryInfo memory delivery = DeliveryInfo({\r\n            deliveryDate: _deliveryDate,\r\n            deliveryTime: _deliveryTime,\r\n            shippingAddress: _shippingAddress\r\n        });\r\n\r\n          orders.push(Order({\r\n            orderId: orderCounter,\r\n            retailer: msg.sender,\r\n            manufacturer: _manufacturer,\r\n            productId: _productId,\r\n            quantity: _quantity,\r\n            price: totalPrice,\r\n            deliveryInfo: delivery,\r\n            status: \"Waiting for manufacturer acceptance\",  // Set initial status\r\n            distributor: address(0), // Default value for distributor\r\n            temperature: 0, // Default value for temperature\r\n            orderHistory: \"Order created and status set to waiting for manufacturer acceptance\"\r\n        }));\r\n\r\n        emit OrderStatusUpdated(orderCounter, \"Waiting for manufacturer acceptance\");\r\n    }\r\n\r\n    // Function to update the order status\r\n    function updateOrderStatus(uint _orderId, string memory _newStatus) public {\r\n        require(_orderId > 0 && _orderId <= orderCounter, \"Order does not exist.\");\r\n        Order storage order = orders[_orderId - 1];\r\n\r\n        // Update order status logic based on role (manufacturer, retailer, etc.) here\r\n        // For simplicity, we assume that the sender is allowed to change the status\r\n        order.status = _newStatus;\r\n        order.orderHistory = string(abi.encodePacked(order.orderHistory, \" | Status updated to \", _newStatus));\r\n\r\n        emit OrderStatusUpdated(_orderId, _newStatus);\r\n    }\r\n\r\n    // Function to get all order IDs\r\n    function getAllOrderIds() public view returns (uint[] memory) {\r\n        uint[] memory orderIds = new uint[](orders.length);\r\n        for (uint i = 0; i < orders.length; i++) {\r\n            orderIds[i] = orders[i].orderId;\r\n        }\r\n        return orderIds;\r\n    }\r\n\r\n    // Function to get retailer addresses for all orders\r\n    function getAllRetailerAddresses() public view returns (address[] memory) {\r\n        address[] memory retailerAddresses = new address[](orders.length);\r\n        for (uint i = 0; i < orders.length; i++) {\r\n            retailerAddresses[i] = orders[i].retailer;\r\n        }\r\n        return retailerAddresses;\r\n    }\r\n\r\n    // Function to get product IDs for all orders\r\n    function getAllProductIds() public view returns (uint[] memory) {\r\n        uint[] memory productIds = new uint[](orders.length);\r\n        for (uint i = 0; i < orders.length; i++) {\r\n            productIds[i] = orders[i].productId;\r\n        }\r\n        return productIds;\r\n    }\r\n\r\n    // Function to get quantities for all orders\r\n    function getAllQuantities() public view returns (uint[] memory) {\r\n        uint[] memory quantities = new uint[](orders.length);\r\n        for (uint i = 0; i < orders.length; i++) {\r\n            quantities[i] = orders[i].quantity;\r\n        }\r\n        return quantities;\r\n    }\r\n\r\n    // Function to get delivery dates for all orders\r\n    function getAllDeliveryDates() public view returns (string[] memory) {\r\n        string[] memory deliveryDates = new string[](orders.length);\r\n        for (uint i = 0; i < orders.length; i++) {\r\n            deliveryDates[i] = orders[i].deliveryInfo.deliveryDate;\r\n        }\r\n        return deliveryDates;\r\n    }\r\n\r\n    // Function to get statuses for all orders\r\n    function getAllStatuses() public view returns (string[] memory) {\r\n        string[] memory statuses = new string[](orders.length);\r\n        for (uint i = 0; i < orders.length; i++) {\r\n            statuses[i] = orders[i].status;\r\n        }\r\n        return statuses;\r\n    }\r\n\r\n    // Function to get all orders\r\n    function getAllOrders() public view returns (Order[] memory) {\r\n        return orders;\r\n    }\r\n\r\n    // Get order by ID\r\n    function getOrderById(uint _orderId) public view returns (Order memory) {\r\n        require(_orderId > 0 && _orderId <= orderCounter, \"Order does not exist.\");\r\n        return orders[_orderId - 1];\r\n    }\r\n\r\n    // Get orders by distributor\r\n    function getOrdersByDistributor(address _distributor) public view returns (Order[] memory) {\r\n        uint orderCount = 0;\r\n\r\n        // First count how many orders this distributor has\r\n        for (uint i = 0; i < orders.length; i++) {\r\n            if (orders[i].distributor == _distributor) {\r\n                orderCount++;\r\n            }\r\n        }\r\n\r\n        // Create an array to store the orders\r\n        Order[] memory distributorOrders = new Order[](orderCount);\r\n        uint index = 0;\r\n\r\n        // Add each order to the array\r\n        for (uint i = 0; i < orders.length; i++) {\r\n            if (orders[i].distributor == _distributor) {\r\n                distributorOrders[index] = orders[i];\r\n                index++;\r\n            }\r\n        }\r\n\r\n        return distributorOrders;\r\n    }\r\n\r\n    // Get orders by manufacturer\r\n    function getOrdersByManufacturer(address _manufacturer) public view returns (Order[] memory) {\r\n        uint orderCount = 0;\r\n        for (uint i = 0; i < orders.length; i++) {\r\n            if (orders[i].manufacturer == _manufacturer) {\r\n                orderCount++;\r\n            }\r\n        }\r\n        Order[] memory manufacturerOrders = new Order[](orderCount);\r\n        uint index = 0;\r\n        for (uint i = 0; i < orders.length; i++) {\r\n            if (orders[i].manufacturer == _manufacturer) {\r\n                manufacturerOrders[index] = orders[i];\r\n                index++;\r\n            }\r\n        }\r\n        return manufacturerOrders;\r\n    }\r\n}\r\n",
  "sourcePath": "C:\\Users\\deem1\\Desktop\\farm-to-fork sprint 1\\contracts\\Order.sol",
  "compiler": {
    "name": "solc",
    "version": "0.8.0+commit.c7dfd78e.Emscripten.clang"
  },
  "schemaVersion": "3.4.16",
  "updatedAt": "2024-10-26T15:56:27.786Z",
  "networkType": "ethereum",
  "devdoc": {
    "kind": "dev",
    "methods": {},
    "version": 1
  },
  "userdoc": {
    "kind": "user",
    "methods": {},
    "version": 1
  }
}