{
  "contractName": "RoleContract",
  "abi": [
    {
      "anonymous": false,
      "inputs": [
        {
          "indexed": false,
          "internalType": "address",
          "name": "distributor",
          "type": "address"
        }
      ],
      "name": "DistributorAdded",
      "type": "event"
    },
    {
      "anonymous": false,
      "inputs": [
        {
          "indexed": false,
          "internalType": "address",
          "name": "distributor",
          "type": "address"
        }
      ],
      "name": "DistributorUpdated",
      "type": "event"
    },
    {
      "anonymous": false,
      "inputs": [
        {
          "indexed": true,
          "internalType": "address",
          "name": "manufacturerAddress",
          "type": "address"
        },
        {
          "indexed": false,
          "internalType": "string",
          "name": "name",
          "type": "string"
        }
      ],
      "name": "ManufacturerAdded",
      "type": "event"
    },
    {
      "anonymous": false,
      "inputs": [
        {
          "indexed": false,
          "internalType": "address",
          "name": "manufacturer",
          "type": "address"
        }
      ],
      "name": "ManufacturerAdded",
      "type": "event"
    },
    {
      "anonymous": false,
      "inputs": [
        {
          "indexed": false,
          "internalType": "address",
          "name": "manufacturer",
          "type": "address"
        }
      ],
      "name": "ManufacturerUpdated",
      "type": "event"
    },
    {
      "anonymous": false,
      "inputs": [
        {
          "indexed": false,
          "internalType": "address",
          "name": "retailer",
          "type": "address"
        }
      ],
      "name": "RetailerAdded",
      "type": "event"
    },
    {
      "anonymous": false,
      "inputs": [
        {
          "indexed": false,
          "internalType": "address",
          "name": "retailer",
          "type": "address"
        }
      ],
      "name": "RetailerUpdated",
      "type": "event"
    },
    {
      "inputs": [
        {
          "internalType": "address",
          "name": "",
          "type": "address"
        }
      ],
      "name": "distributors",
      "outputs": [
        {
          "internalType": "address",
          "name": "ethAddress",
          "type": "address"
        },
        {
          "internalType": "string",
          "name": "name",
          "type": "string"
        },
        {
          "internalType": "string",
          "name": "physicalAddress",
          "type": "string"
        },
        {
          "internalType": "string",
          "name": "phoneNumber",
          "type": "string"
        },
        {
          "internalType": "string",
          "name": "email",
          "type": "string"
        },
        {
          "internalType": "bool",
          "name": "isRefrigerated",
          "type": "bool"
        },
        {
          "internalType": "bool",
          "name": "isFrozen",
          "type": "bool"
        },
        {
          "internalType": "bool",
          "name": "isAmbient",
          "type": "bool"
        },
        {
          "internalType": "bool",
          "name": "isPM",
          "type": "bool"
        },
        {
          "internalType": "bool",
          "name": "isAM",
          "type": "bool"
        }
      ],
      "stateMutability": "view",
      "type": "function",
      "constant": true
    },
    {
      "inputs": [
        {
          "internalType": "address",
          "name": "",
          "type": "address"
        }
      ],
      "name": "isManufacturer",
      "outputs": [
        {
          "internalType": "bool",
          "name": "",
          "type": "bool"
        }
      ],
      "stateMutability": "view",
      "type": "function",
      "constant": true
    },
    {
      "inputs": [
        {
          "internalType": "uint256",
          "name": "",
          "type": "uint256"
        }
      ],
      "name": "manufacturerAddresses",
      "outputs": [
        {
          "internalType": "address",
          "name": "",
          "type": "address"
        }
      ],
      "stateMutability": "view",
      "type": "function",
      "constant": true
    },
    {
      "inputs": [
        {
          "internalType": "address",
          "name": "",
          "type": "address"
        }
      ],
      "name": "manufacturers",
      "outputs": [
        {
          "internalType": "address",
          "name": "ethAddress",
          "type": "address"
        },
        {
          "internalType": "string",
          "name": "name",
          "type": "string"
        },
        {
          "internalType": "string",
          "name": "addressLine",
          "type": "string"
        },
        {
          "internalType": "string",
          "name": "phoneNumber",
          "type": "string"
        },
        {
          "internalType": "string",
          "name": "email",
          "type": "string"
        }
      ],
      "stateMutability": "view",
      "type": "function",
      "constant": true
    },
    {
      "inputs": [],
      "name": "retailer",
      "outputs": [
        {
          "internalType": "address",
          "name": "ethAddress",
          "type": "address"
        },
        {
          "internalType": "string",
          "name": "name",
          "type": "string"
        },
        {
          "internalType": "string",
          "name": "physicalAddress",
          "type": "string"
        },
        {
          "internalType": "string",
          "name": "phoneNumber",
          "type": "string"
        },
        {
          "internalType": "string",
          "name": "email",
          "type": "string"
        }
      ],
      "stateMutability": "view",
      "type": "function",
      "constant": true
    },
    {
      "inputs": [],
      "name": "retailerAddress",
      "outputs": [
        {
          "internalType": "address",
          "name": "",
          "type": "address"
        }
      ],
      "stateMutability": "view",
      "type": "function",
      "constant": true
    },
    {
      "inputs": [
        {
          "internalType": "address",
          "name": "_manufacturerAddress",
          "type": "address"
        },
        {
          "internalType": "string",
          "name": "_name",
          "type": "string"
        },
        {
          "internalType": "string",
          "name": "_addressLine",
          "type": "string"
        },
        {
          "internalType": "string",
          "name": "_phoneNumber",
          "type": "string"
        },
        {
          "internalType": "string",
          "name": "_email",
          "type": "string"
        }
      ],
      "name": "addManufacturer",
      "outputs": [],
      "stateMutability": "nonpayable",
      "type": "function"
    },
    {
      "inputs": [],
      "name": "getAllManufacturers",
      "outputs": [
        {
          "internalType": "address[]",
          "name": "",
          "type": "address[]"
        }
      ],
      "stateMutability": "view",
      "type": "function",
      "constant": true
    },
    {
      "inputs": [
        {
          "internalType": "address",
          "name": "_manufacturer",
          "type": "address"
        }
      ],
      "name": "getManufacturerDetails",
      "outputs": [
        {
          "internalType": "string",
          "name": "name",
          "type": "string"
        },
        {
          "internalType": "string",
          "name": "addressLine",
          "type": "string"
        },
        {
          "internalType": "string",
          "name": "phoneNumber",
          "type": "string"
        },
        {
          "internalType": "string",
          "name": "email",
          "type": "string"
        }
      ],
      "stateMutability": "view",
      "type": "function",
      "constant": true
    },
    {
      "inputs": [
        {
          "internalType": "address",
          "name": "_address",
          "type": "address"
        }
      ],
      "name": "checkManufacturer",
      "outputs": [
        {
          "internalType": "bool",
          "name": "",
          "type": "bool"
        }
      ],
      "stateMutability": "view",
      "type": "function",
      "constant": true
    },
    {
      "inputs": [
        {
          "internalType": "address",
          "name": "_ethAddress",
          "type": "address"
        },
        {
          "internalType": "string",
          "name": "_name",
          "type": "string"
        },
        {
          "internalType": "string",
          "name": "_physicalAddress",
          "type": "string"
        },
        {
          "internalType": "string",
          "name": "_phoneNumber",
          "type": "string"
        },
        {
          "internalType": "string",
          "name": "_email",
          "type": "string"
        }
      ],
      "name": "updateManufacturer",
      "outputs": [],
      "stateMutability": "nonpayable",
      "type": "function"
    },
    {
      "inputs": [
        {
          "internalType": "address",
          "name": "_manufacturer",
          "type": "address"
        }
      ],
      "name": "getManufacturer",
      "outputs": [
        {
          "components": [
            {
              "internalType": "address",
              "name": "ethAddress",
              "type": "address"
            },
            {
              "internalType": "string",
              "name": "name",
              "type": "string"
            },
            {
              "internalType": "string",
              "name": "addressLine",
              "type": "string"
            },
            {
              "internalType": "string",
              "name": "phoneNumber",
              "type": "string"
            },
            {
              "internalType": "string",
              "name": "email",
              "type": "string"
            }
          ],
          "internalType": "struct RoleContract.Manufacturer",
          "name": "",
          "type": "tuple"
        }
      ],
      "stateMutability": "view",
      "type": "function",
      "constant": true
    },
    {
      "inputs": [
        {
          "internalType": "address",
          "name": "_ethAddress",
          "type": "address"
        },
        {
          "internalType": "string",
          "name": "_name",
          "type": "string"
        },
        {
          "internalType": "string",
          "name": "_physicalAddress",
          "type": "string"
        },
        {
          "internalType": "string",
          "name": "_phoneNumber",
          "type": "string"
        },
        {
          "internalType": "string",
          "name": "_email",
          "type": "string"
        }
      ],
      "name": "addRetailer",
      "outputs": [],
      "stateMutability": "nonpayable",
      "type": "function"
    },
    {
      "inputs": [
        {
          "internalType": "address",
          "name": "_address",
          "type": "address"
        }
      ],
      "name": "checkRetailer",
      "outputs": [
        {
          "internalType": "bool",
          "name": "",
          "type": "bool"
        }
      ],
      "stateMutability": "view",
      "type": "function",
      "constant": true
    },
    {
      "inputs": [
        {
          "internalType": "string",
          "name": "_name",
          "type": "string"
        },
        {
          "internalType": "string",
          "name": "_physicalAddress",
          "type": "string"
        },
        {
          "internalType": "string",
          "name": "_phoneNumber",
          "type": "string"
        },
        {
          "internalType": "string",
          "name": "_email",
          "type": "string"
        }
      ],
      "name": "updateRetailer",
      "outputs": [],
      "stateMutability": "nonpayable",
      "type": "function"
    },
    {
      "inputs": [
        {
          "internalType": "address",
          "name": "_ethAddress",
          "type": "address"
        },
        {
          "internalType": "string",
          "name": "_name",
          "type": "string"
        },
        {
          "internalType": "string",
          "name": "_physicalAddress",
          "type": "string"
        },
        {
          "internalType": "string",
          "name": "_phoneNumber",
          "type": "string"
        },
        {
          "internalType": "string",
          "name": "_email",
          "type": "string"
        },
        {
          "internalType": "bool",
          "name": "_isRefrigerated",
          "type": "bool"
        },
        {
          "internalType": "bool",
          "name": "_isFrozen",
          "type": "bool"
        },
        {
          "internalType": "bool",
          "name": "_isAmbient",
          "type": "bool"
        },
        {
          "internalType": "bool",
          "name": "_isPM",
          "type": "bool"
        },
        {
          "internalType": "bool",
          "name": "_isAM",
          "type": "bool"
        },
        {
          "internalType": "bool[7]",
          "name": "_workingDays",
          "type": "bool[7]"
        }
      ],
      "name": "addDistributor",
      "outputs": [],
      "stateMutability": "nonpayable",
      "type": "function"
    },
    {
      "inputs": [
        {
          "internalType": "address",
          "name": "_ethAddress",
          "type": "address"
        },
        {
          "internalType": "string",
          "name": "_name",
          "type": "string"
        },
        {
          "internalType": "string",
          "name": "_physicalAddress",
          "type": "string"
        },
        {
          "internalType": "string",
          "name": "_phoneNumber",
          "type": "string"
        },
        {
          "internalType": "string",
          "name": "_email",
          "type": "string"
        },
        {
          "internalType": "bool",
          "name": "_isRefrigerated",
          "type": "bool"
        },
        {
          "internalType": "bool",
          "name": "_isFrozen",
          "type": "bool"
        },
        {
          "internalType": "bool",
          "name": "_isAmbient",
          "type": "bool"
        },
        {
          "internalType": "bool",
          "name": "_isPM",
          "type": "bool"
        },
        {
          "internalType": "bool",
          "name": "_isAM",
          "type": "bool"
        },
        {
          "internalType": "bool[7]",
          "name": "_workingDays",
          "type": "bool[7]"
        }
      ],
      "name": "updateDistributor",
      "outputs": [],
      "stateMutability": "nonpayable",
      "type": "function"
    },
    {
      "inputs": [],
      "name": "getRetailer",
      "outputs": [
        {
          "internalType": "address",
          "name": "ethAddress",
          "type": "address"
        },
        {
          "internalType": "string",
          "name": "name",
          "type": "string"
        },
        {
          "internalType": "string",
          "name": "physicalAddress",
          "type": "string"
        },
        {
          "internalType": "string",
          "name": "phoneNumber",
          "type": "string"
        },
        {
          "internalType": "string",
          "name": "email",
          "type": "string"
        }
      ],
      "stateMutability": "view",
      "type": "function",
      "constant": true
    },
    {
      "inputs": [
        {
          "internalType": "address",
          "name": "_distributor",
          "type": "address"
        }
      ],
      "name": "getDistributor",
      "outputs": [
        {
          "internalType": "address",
          "name": "ethAddress",
          "type": "address"
        },
        {
          "internalType": "string",
          "name": "name",
          "type": "string"
        },
        {
          "internalType": "string",
          "name": "physicalAddress",
          "type": "string"
        },
        {
          "internalType": "string",
          "name": "phoneNumber",
          "type": "string"
        },
        {
          "internalType": "string",
          "name": "email",
          "type": "string"
        },
        {
          "internalType": "bool",
          "name": "isRefrigerated",
          "type": "bool"
        },
        {
          "internalType": "bool",
          "name": "isFrozen",
          "type": "bool"
        },
        {
          "internalType": "bool",
          "name": "isAmbient",
          "type": "bool"
        },
        {
          "internalType": "bool",
          "name": "isPM",
          "type": "bool"
        },
        {
          "internalType": "bool",
          "name": "isAM",
          "type": "bool"
        },
        {
          "internalType": "bool[7]",
          "name": "workingDays",
          "type": "bool[7]"
        }
      ],
      "stateMutability": "view",
      "type": "function",
      "constant": true
    }
  ],
  "bytecode": "0x608060405234801561001057600080fd5b50613979806100206000396000f3fe608060405234801561001057600080fd5b50600436106101215760003560e01c80636fe7b299116100ad578063c74ced1c11610071578063c74ced1c14610353578063cc64278414610383578063daa7f64b146103bc578063ddba07a4146103d8578063f80d1ff0146103f657610121565b80636fe7b299146102955780638dd8088b146102b1578063993df8c6146102cd578063a8055a9914610307578063b87df6231461032357610121565b80634c1249fc116100f45780634c1249fc146101e957806368b86f311461020b5780636b5eb09c146102275780636de2aff61461025b5780636eb9f3521461027957610121565b806301a68c011461012657806317d4a49114610156578063191bcef61461018657806322713cc7146101b6575b600080fd5b610140600480360381019061013b9190612f47565b610418565b60405161014d919061330e565b60405180910390f35b610170600480360381019061016b9190612c34565b610457565b60405161017d9190613539565b60405180910390f35b6101a0600480360381019061019b9190612c34565b610477565b6040516101ad9190613697565b60405180910390f35b6101d060048036038101906101cb9190612c34565b6107e7565b6040516101e09493929190613576565b60405180910390f35b6101f1610b70565b604051610202959493929190613329565b60405180910390f35b61022560048036038101906102209190612c5d565b610dd4565b005b610241600480360381019061023c9190612c34565b610f8a565b604051610252959493929190613329565b60405180910390f35b610263611200565b604051610270919061330e565b60405180910390f35b610293600480360381019061028e9190612d34565b611226565b005b6102af60048036038101906102aa9190612c5d565b61148e565b005b6102cb60048036038101906102c69190612d34565b6117a7565b005b6102e760048036038101906102e29190612c34565b611a05565b6040516102fe9b9a99989796959493929190613450565b60405180910390f35b610321600480360381019061031c9190612e84565b611ecf565b005b61033d60048036038101906103389190612c34565b612028565b60405161034a9190613539565b60405180910390f35b61036d60048036038101906103689190612c34565b612085565b60405161037a9190613539565b60405180910390f35b61039d60048036038101906103989190612c34565b6120db565b6040516103b39a99989796959493929190613398565b60405180910390f35b6103d660048036038101906103d19190612c5d565b6123b0565b005b6103e06125bd565b6040516103ed9190613517565b60405180910390f35b6103fe61264b565b60405161040f959493929190613329565b60405180910390f35b6001818154811061042857600080fd5b906000526020600020016000915054906101000a900473ffffffffffffffffffffffffffffffffffffffff1681565b60026020528060005260406000206000915054906101000a900460ff1681565b61047f612960565b60008060008473ffffffffffffffffffffffffffffffffffffffff1673ffffffffffffffffffffffffffffffffffffffff1681526020019081526020016000206040518060a00160405290816000820160009054906101000a900473ffffffffffffffffffffffffffffffffffffffff1673ffffffffffffffffffffffffffffffffffffffff1673ffffffffffffffffffffffffffffffffffffffff1681526020016001820180546105309061385d565b80601f016020809104026020016040519081016040528092919081815260200182805461055c9061385d565b80156105a95780601f1061057e576101008083540402835291602001916105a9565b820191906000526020600020905b81548152906001019060200180831161058c57829003601f168201915b505050505081526020016002820180546105c29061385d565b80601f01602080910402602001604051908101604052809291908181526020018280546105ee9061385d565b801561063b5780601f106106105761010080835404028352916020019161063b565b820191906000526020600020905b81548152906001019060200180831161061e57829003601f168201915b505050505081526020016003820180546106549061385d565b80601f01602080910402602001604051908101604052809291908181526020018280546106809061385d565b80156106cd5780601f106106a2576101008083540402835291602001916106cd565b820191906000526020600020905b8154815290600101906020018083116106b057829003601f168201915b505050505081526020016004820180546106e69061385d565b80601f01602080910402602001604051908101604052809291908181526020018280546107129061385d565b801561075f5780601f106107345761010080835404028352916020019161075f565b820191906000526020600020905b81548152906001019060200180831161074257829003601f168201915b5050505050815250509050600073ffffffffffffffffffffffffffffffffffffffff16816000015173ffffffffffffffffffffffffffffffffffffffff1614156107de576040517f08c379a00000000000000000000000000000000000000000000000000000000081526004016107d5906135f7565b60405180910390fd5b80915050919050565b60608060608060008060008773ffffffffffffffffffffffffffffffffffffffff1673ffffffffffffffffffffffffffffffffffffffff1681526020019081526020016000206040518060a00160405290816000820160009054906101000a900473ffffffffffffffffffffffffffffffffffffffff1673ffffffffffffffffffffffffffffffffffffffff1673ffffffffffffffffffffffffffffffffffffffff16815260200160018201805461089e9061385d565b80601f01602080910402602001604051908101604052809291908181526020018280546108ca9061385d565b80156109175780601f106108ec57610100808354040283529160200191610917565b820191906000526020600020905b8154815290600101906020018083116108fa57829003601f168201915b505050505081526020016002820180546109309061385d565b80601f016020809104026020016040519081016040528092919081815260200182805461095c9061385d565b80156109a95780601f1061097e576101008083540402835291602001916109a9565b820191906000526020600020905b81548152906001019060200180831161098c57829003601f168201915b505050505081526020016003820180546109c29061385d565b80601f01602080910402602001604051908101604052809291908181526020018280546109ee9061385d565b8015610a3b5780601f10610a1057610100808354040283529160200191610a3b565b820191906000526020600020905b815481529060010190602001808311610a1e57829003601f168201915b50505050508152602001600482018054610a549061385d565b80601f0160208091040260200160405190810160405280929190818152602001828054610a809061385d565b8015610acd5780601f10610aa257610100808354040283529160200191610acd565b820191906000526020600020905b815481529060010190602001808311610ab057829003601f168201915b5050505050815250509050600073ffffffffffffffffffffffffffffffffffffffff16816000015173ffffffffffffffffffffffffffffffffffffffff161415610b4c576040517f08c379a0000000000000000000000000000000000000000000000000000000008152600401610b4390613617565b60405180910390fd5b80602001518160400151826060015183608001519450945094509450509193509193565b60058060000160009054906101000a900473ffffffffffffffffffffffffffffffffffffffff1690806001018054610ba79061385d565b80601f0160208091040260200160405190810160405280929190818152602001828054610bd39061385d565b8015610c205780601f10610bf557610100808354040283529160200191610c20565b820191906000526020600020905b815481529060010190602001808311610c0357829003601f168201915b505050505090806002018054610c359061385d565b80601f0160208091040260200160405190810160405280929190818152602001828054610c619061385d565b8015610cae5780601f10610c8357610100808354040283529160200191610cae565b820191906000526020600020905b815481529060010190602001808311610c9157829003601f168201915b505050505090806003018054610cc39061385d565b80601f0160208091040260200160405190810160405280929190818152602001828054610cef9061385d565b8015610d3c5780601f10610d1157610100808354040283529160200191610d3c565b820191906000526020600020905b815481529060010190602001808311610d1f57829003601f168201915b505050505090806004018054610d519061385d565b80601f0160208091040260200160405190810160405280929190818152602001828054610d7d9061385d565b8015610dca5780601f10610d9f57610100808354040283529160200191610dca565b820191906000526020600020905b815481529060010190602001808311610dad57829003601f168201915b5050505050905085565b600073ffffffffffffffffffffffffffffffffffffffff166000808773ffffffffffffffffffffffffffffffffffffffff1673ffffffffffffffffffffffffffffffffffffffff16815260200190815260200160002060000160009054906101000a900473ffffffffffffffffffffffffffffffffffffffff1673ffffffffffffffffffffffffffffffffffffffff161415610ea5576040517f08c379a0000000000000000000000000000000000000000000000000000000008152600401610e9c906135f7565b60405180910390fd5b60008060008773ffffffffffffffffffffffffffffffffffffffff1673ffffffffffffffffffffffffffffffffffffffff168152602001908152602001600020905084816001019080519060200190610eff9291906129a5565b5083816002019080519060200190610f189291906129a5565b5082816003019080519060200190610f319291906129a5565b5081816004019080519060200190610f4a9291906129a5565b507f3788ec40e8e8e1f6c41fc71ee492e8c892ae62771a4eb72b86eef971dfe4127286604051610f7a919061330e565b60405180910390a1505050505050565b60006020528060005260406000206000915090508060000160009054906101000a900473ffffffffffffffffffffffffffffffffffffffff1690806001018054610fd39061385d565b80601f0160208091040260200160405190810160405280929190818152602001828054610fff9061385d565b801561104c5780601f106110215761010080835404028352916020019161104c565b820191906000526020600020905b81548152906001019060200180831161102f57829003601f168201915b5050505050908060020180546110619061385d565b80601f016020809104026020016040519081016040528092919081815260200182805461108d9061385d565b80156110da5780601f106110af576101008083540402835291602001916110da565b820191906000526020600020905b8154815290600101906020018083116110bd57829003601f168201915b5050505050908060030180546110ef9061385d565b80601f016020809104026020016040519081016040528092919081815260200182805461111b9061385d565b80156111685780601f1061113d57610100808354040283529160200191611168565b820191906000526020600020905b81548152906001019060200180831161114b57829003601f168201915b50505050509080600401805461117d9061385d565b80601f01602080910402602001604051908101604052809291908181526020018280546111a99061385d565b80156111f65780601f106111cb576101008083540402835291602001916111f6565b820191906000526020600020905b8154815290600101906020018083116111d957829003601f168201915b5050505050905085565b600360009054906101000a900473ffffffffffffffffffffffffffffffffffffffff1681565b6040518061016001604052808c73ffffffffffffffffffffffffffffffffffffffff1681526020018b81526020018a81526020018981526020018881526020018715158152602001861515815260200185151581526020018415158152602001831515815260200182815250600460008d73ffffffffffffffffffffffffffffffffffffffff1673ffffffffffffffffffffffffffffffffffffffff16815260200190815260200160002060008201518160000160006101000a81548173ffffffffffffffffffffffffffffffffffffffff021916908373ffffffffffffffffffffffffffffffffffffffff16021790555060208201518160010190805190602001906113349291906129a5565b5060408201518160020190805190602001906113519291906129a5565b50606082015181600301908051906020019061136e9291906129a5565b50608082015181600401908051906020019061138b9291906129a5565b5060a08201518160050160006101000a81548160ff02191690831515021790555060c08201518160050160016101000a81548160ff02191690831515021790555060e08201518160050160026101000a81548160ff0219169083151502179055506101008201518160050160036101000a81548160ff0219169083151502179055506101208201518160050160046101000a81548160ff02191690831515021790555061014082015181600601906007611446929190612a2b565b509050507fddbf200aa634dc3fb81cfd68583dd1040d1c751d335e1d86b631bde3e977fea88b604051611479919061330e565b60405180910390a15050505050505050505050565b600073ffffffffffffffffffffffffffffffffffffffff166000808773ffffffffffffffffffffffffffffffffffffffff1673ffffffffffffffffffffffffffffffffffffffff16815260200190815260200160002060000160009054906101000a900473ffffffffffffffffffffffffffffffffffffffff1673ffffffffffffffffffffffffffffffffffffffff161461155e576040517f08c379a000000000000000000000000000000000000000000000000000000000815260040161155590613677565b60405180910390fd5b6040518060a001604052808673ffffffffffffffffffffffffffffffffffffffff168152602001858152602001848152602001838152602001828152506000808773ffffffffffffffffffffffffffffffffffffffff1673ffffffffffffffffffffffffffffffffffffffff16815260200190815260200160002060008201518160000160006101000a81548173ffffffffffffffffffffffffffffffffffffffff021916908373ffffffffffffffffffffffffffffffffffffffff160217905550602082015181600101908051906020019061163c9291906129a5565b5060408201518160020190805190602001906116599291906129a5565b5060608201518160030190805190602001906116769291906129a5565b5060808201518160040190805190602001906116939291906129a5565b509050506001859080600181540180825580915050600190039060005260206000200160009091909190916101000a81548173ffffffffffffffffffffffffffffffffffffffff021916908373ffffffffffffffffffffffffffffffffffffffff1602179055506001600260008773ffffffffffffffffffffffffffffffffffffffff1673ffffffffffffffffffffffffffffffffffffffff16815260200190815260200160002060006101000a81548160ff0219169083151502179055508473ffffffffffffffffffffffffffffffffffffffff167f1945d2c71d577291ed89748399bbcdcedbcb3611bdd9032a98b82b00e636f388856040516117989190613554565b60405180910390a25050505050565b600073ffffffffffffffffffffffffffffffffffffffff16600460008d73ffffffffffffffffffffffffffffffffffffffff1673ffffffffffffffffffffffffffffffffffffffff16815260200190815260200160002060000160009054906101000a900473ffffffffffffffffffffffffffffffffffffffff1673ffffffffffffffffffffffffffffffffffffffff161415611879576040517f08c379a000000000000000000000000000000000000000000000000000000000815260040161187090613657565b60405180910390fd5b6000600460008d73ffffffffffffffffffffffffffffffffffffffff1673ffffffffffffffffffffffffffffffffffffffff16815260200190815260200160002090508a8160010190805190602001906118d49291906129a5565b50898160020190805190602001906118ed9291906129a5565b50888160030190805190602001906119069291906129a5565b508781600401908051906020019061191f9291906129a5565b50868160050160006101000a81548160ff021916908315150217905550858160050160016101000a81548160ff021916908315150217905550848160050160026101000a81548160ff021916908315150217905550838160050160036101000a81548160ff021916908315150217905550828160050160046101000a81548160ff02191690831515021790555081816006019060076119bf929190612a2b565b507fc0ebb188f905d128bcd7e4282dd1f9cf24cd331b69071002e488349aca6a867b8c6040516119ef919061330e565b60405180910390a1505050505050505050505050565b60006060806060806000806000806000611a1d612ac4565b6000600460008e73ffffffffffffffffffffffffffffffffffffffff1673ffffffffffffffffffffffffffffffffffffffff168152602001908152602001600020604051806101600160405290816000820160009054906101000a900473ffffffffffffffffffffffffffffffffffffffff1673ffffffffffffffffffffffffffffffffffffffff1673ffffffffffffffffffffffffffffffffffffffff168152602001600182018054611ad09061385d565b80601f0160208091040260200160405190810160405280929190818152602001828054611afc9061385d565b8015611b495780601f10611b1e57610100808354040283529160200191611b49565b820191906000526020600020905b815481529060010190602001808311611b2c57829003601f168201915b50505050508152602001600282018054611b629061385d565b80601f0160208091040260200160405190810160405280929190818152602001828054611b8e9061385d565b8015611bdb5780601f10611bb057610100808354040283529160200191611bdb565b820191906000526020600020905b815481529060010190602001808311611bbe57829003601f168201915b50505050508152602001600382018054611bf49061385d565b80601f0160208091040260200160405190810160405280929190818152602001828054611c209061385d565b8015611c6d5780601f10611c4257610100808354040283529160200191611c6d565b820191906000526020600020905b815481529060010190602001808311611c5057829003601f168201915b50505050508152602001600482018054611c869061385d565b80601f0160208091040260200160405190810160405280929190818152602001828054611cb29061385d565b8015611cff5780601f10611cd457610100808354040283529160200191611cff565b820191906000526020600020905b815481529060010190602001808311611ce257829003601f168201915b505050505081526020016005820160009054906101000a900460ff161515151581526020016005820160019054906101000a900460ff161515151581526020016005820160029054906101000a900460ff161515151581526020016005820160039054906101000a900460ff161515151581526020016005820160049054906101000a900460ff1615151515815260200160068201600780602002604051908101604052809291908260078015611df0576020028201916000905b82829054906101000a900460ff16151581526020019060010190602082600001049283019260010382029150808411611dba5790505b5050505050815250509050600073ffffffffffffffffffffffffffffffffffffffff16816000015173ffffffffffffffffffffffffffffffffffffffff161415611e6f576040517f08c379a0000000000000000000000000000000000000000000000000000000008152600401611e6690613657565b60405180910390fd5b806000015181602001518260400151836060015184608001518560a001518660c001518760e001518861010001518961012001518a61014001519b509b509b509b509b509b509b509b509b509b509b505091939597999b90929496989a50565b600073ffffffffffffffffffffffffffffffffffffffff16600360009054906101000a900473ffffffffffffffffffffffffffffffffffffffff1673ffffffffffffffffffffffffffffffffffffffff161415611f61576040517f08c379a0000000000000000000000000000000000000000000000000000000008152600401611f58906135d7565b60405180910390fd5b8360056001019080519060200190611f7a9291906129a5565b508260056002019080519060200190611f949291906129a5565b508160056003019080519060200190611fae9291906129a5565b508060056004019080519060200190611fc89291906129a5565b507ff7c6a1dfb7f33000884d6a18c95608b9c1ae7599fdffb9023d1939ebf1671f20600360009054906101000a900473ffffffffffffffffffffffffffffffffffffffff1660405161201a919061330e565b60405180910390a150505050565b6000600560000160009054906101000a900473ffffffffffffffffffffffffffffffffffffffff1673ffffffffffffffffffffffffffffffffffffffff168273ffffffffffffffffffffffffffffffffffffffff16149050919050565b6000600260008373ffffffffffffffffffffffffffffffffffffffff1673ffffffffffffffffffffffffffffffffffffffff16815260200190815260200160002060009054906101000a900460ff169050919050565b60046020528060005260406000206000915090508060000160009054906101000a900473ffffffffffffffffffffffffffffffffffffffff16908060010180546121249061385d565b80601f01602080910402602001604051908101604052809291908181526020018280546121509061385d565b801561219d5780601f106121725761010080835404028352916020019161219d565b820191906000526020600020905b81548152906001019060200180831161218057829003601f168201915b5050505050908060020180546121b29061385d565b80601f01602080910402602001604051908101604052809291908181526020018280546121de9061385d565b801561222b5780601f106122005761010080835404028352916020019161222b565b820191906000526020600020905b81548152906001019060200180831161220e57829003601f168201915b5050505050908060030180546122409061385d565b80601f016020809104026020016040519081016040528092919081815260200182805461226c9061385d565b80156122b95780601f1061228e576101008083540402835291602001916122b9565b820191906000526020600020905b81548152906001019060200180831161229c57829003601f168201915b5050505050908060040180546122ce9061385d565b80601f01602080910402602001604051908101604052809291908181526020018280546122fa9061385d565b80156123475780601f1061231c57610100808354040283529160200191612347565b820191906000526020600020905b81548152906001019060200180831161232a57829003601f168201915b5050505050908060050160009054906101000a900460ff16908060050160019054906101000a900460ff16908060050160029054906101000a900460ff16908060050160039054906101000a900460ff16908060050160049054906101000a900460ff1690508a565b600073ffffffffffffffffffffffffffffffffffffffff16600360009054906101000a900473ffffffffffffffffffffffffffffffffffffffff1673ffffffffffffffffffffffffffffffffffffffff1614612441576040517f08c379a000000000000000000000000000000000000000000000000000000000815260040161243890613637565b60405180910390fd5b6040518060a001604052808673ffffffffffffffffffffffffffffffffffffffff16815260200185815260200184815260200183815260200182815250600560008201518160000160006101000a81548173ffffffffffffffffffffffffffffffffffffffff021916908373ffffffffffffffffffffffffffffffffffffffff16021790555060208201518160010190805190602001906124e39291906129a5565b5060408201518160020190805190602001906125009291906129a5565b50606082015181600301908051906020019061251d9291906129a5565b50608082015181600401908051906020019061253a9291906129a5565b5090505084600360006101000a81548173ffffffffffffffffffffffffffffffffffffffff021916908373ffffffffffffffffffffffffffffffffffffffff1602179055507f71ae26cad02663e3d92efd6ec56031a80d74a20c0ab4183faa8bf262261c9baa856040516125ae919061330e565b60405180910390a15050505050565b6060600180548060200260200160405190810160405280929190818152602001828054801561264157602002820191906000526020600020905b8160009054906101000a900473ffffffffffffffffffffffffffffffffffffffff1673ffffffffffffffffffffffffffffffffffffffff16815260200190600101908083116125f7575b5050505050905090565b6000606080606080600073ffffffffffffffffffffffffffffffffffffffff16600360009054906101000a900473ffffffffffffffffffffffffffffffffffffffff1673ffffffffffffffffffffffffffffffffffffffff1614156126e5576040517f08c379a00000000000000000000000000000000000000000000000000000000081526004016126dc906135d7565b60405180910390fd5b600560000160009054906101000a900473ffffffffffffffffffffffffffffffffffffffff16600560010160056002016005600301600560040183805461272b9061385d565b80601f01602080910402602001604051908101604052809291908181526020018280546127579061385d565b80156127a45780601f10612779576101008083540402835291602001916127a4565b820191906000526020600020905b81548152906001019060200180831161278757829003601f168201915b505050505093508280546127b79061385d565b80601f01602080910402602001604051908101604052809291908181526020018280546127e39061385d565b80156128305780601f1061280557610100808354040283529160200191612830565b820191906000526020600020905b81548152906001019060200180831161281357829003601f168201915b505050505092508180546128439061385d565b80601f016020809104026020016040519081016040528092919081815260200182805461286f9061385d565b80156128bc5780601f10612891576101008083540402835291602001916128bc565b820191906000526020600020905b81548152906001019060200180831161289f57829003601f168201915b505050505091508080546128cf9061385d565b80601f01602080910402602001604051908101604052809291908181526020018280546128fb9061385d565b80156129485780601f1061291d57610100808354040283529160200191612948565b820191906000526020600020905b81548152906001019060200180831161292b57829003601f168201915b50505050509050945094509450945094509091929394565b6040518060a00160405280600073ffffffffffffffffffffffffffffffffffffffff168152602001606081526020016060815260200160608152602001606081525090565b8280546129b19061385d565b90600052602060002090601f0160209004810192826129d35760008555612a1a565b82601f106129ec57805160ff1916838001178555612a1a565b82800160010185558215612a1a579182015b82811115612a195782518255916020019190600101906129fe565b5b509050612a279190612ae6565b5090565b826007601f01602090048101928215612ab35791602002820160005b83821115612a8457835183826101000a81548160ff0219169083151502179055509260200192600101602081600001049283019260010302612a47565b8015612ab15782816101000a81549060ff0219169055600101602081600001049283019260010302612a84565b505b509050612ac09190612ae6565b5090565b6040518060e00160405280600790602082028036833780820191505090505090565b5b80821115612aff576000816000905550600101612ae7565b5090565b6000612b16612b11846136ea565b6136b9565b90508082856020860282011115612b2c57600080fd5b60005b85811015612b5c5781612b428882612be0565b845260208401935060208301925050600181019050612b2f565b5050509392505050565b6000612b79612b7484613710565b6136b9565b905082815260208101848484011115612b9157600080fd5b612b9c84828561381b565b509392505050565b600081359050612bb3816138fe565b92915050565b600082601f830112612bca57600080fd5b6007612bd7848285612b03565b91505092915050565b600081359050612bef81613915565b92915050565b600082601f830112612c0657600080fd5b8135612c16848260208601612b66565b91505092915050565b600081359050612c2e8161392c565b92915050565b600060208284031215612c4657600080fd5b6000612c5484828501612ba4565b91505092915050565b600080600080600060a08688031215612c7557600080fd5b6000612c8388828901612ba4565b955050602086013567ffffffffffffffff811115612ca057600080fd5b612cac88828901612bf5565b945050604086013567ffffffffffffffff811115612cc957600080fd5b612cd588828901612bf5565b935050606086013567ffffffffffffffff811115612cf257600080fd5b612cfe88828901612bf5565b925050608086013567ffffffffffffffff811115612d1b57600080fd5b612d2788828901612bf5565b9150509295509295909350565b60008060008060008060008060008060006102208c8e031215612d5657600080fd5b6000612d648e828f01612ba4565b9b505060208c013567ffffffffffffffff811115612d8157600080fd5b612d8d8e828f01612bf5565b9a505060408c013567ffffffffffffffff811115612daa57600080fd5b612db68e828f01612bf5565b99505060608c013567ffffffffffffffff811115612dd357600080fd5b612ddf8e828f01612bf5565b98505060808c013567ffffffffffffffff811115612dfc57600080fd5b612e088e828f01612bf5565b97505060a0612e198e828f01612be0565b96505060c0612e2a8e828f01612be0565b95505060e0612e3b8e828f01612be0565b945050610100612e4d8e828f01612be0565b935050610120612e5f8e828f01612be0565b925050610140612e718e828f01612bb9565b9150509295989b509295989b9093969950565b60008060008060808587031215612e9a57600080fd5b600085013567ffffffffffffffff811115612eb457600080fd5b612ec087828801612bf5565b945050602085013567ffffffffffffffff811115612edd57600080fd5b612ee987828801612bf5565b935050604085013567ffffffffffffffff811115612f0657600080fd5b612f1287828801612bf5565b925050606085013567ffffffffffffffff811115612f2f57600080fd5b612f3b87828801612bf5565b91505092959194509250565b600060208284031215612f5957600080fd5b6000612f6784828501612c1f565b91505092915050565b6000612f7c8383612fa0565b60208301905092915050565b6000612f948383613073565b60208301905092915050565b612fa9816137d3565b82525050565b612fb8816137d3565b82525050565b6000612fc98261375a565b612fd38185613795565b9350612fde83613740565b8060005b8381101561300f578151612ff68882612f70565b97506130018361377b565b925050600181019050612fe2565b5085935050505092915050565b61302581613765565b61302f81846137a6565b925061303a82613750565b8060005b8381101561306b5781516130528782612f88565b965061305d83613788565b92505060018101905061303e565b505050505050565b61307c816137e5565b82525050565b61308b816137e5565b82525050565b600061309c82613770565b6130a681856137b1565b93506130b681856020860161382a565b6130bf816138ed565b840191505092915050565b60006130d582613770565b6130df81856137c2565b93506130ef81856020860161382a565b6130f8816138ed565b840191505092915050565b60006131106016836137c2565b91507f4e6f2072657461696c65722072656769737465726564000000000000000000006000830152602082019050919050565b6000613150601b836137c2565b91507f4d616e75666163747572657220646f6573206e6f7420657869737400000000006000830152602082019050919050565b6000613190601c836137c2565b91507f4d616e75666163747572657220646f6573206e6f742065786973742e000000006000830152602082019050919050565b60006131d06016836137c2565b91507f52657461696c657220616c7265616479206164646564000000000000000000006000830152602082019050919050565b6000613210601a836137c2565b91507f4469737472696275746f7220646f6573206e6f742065786973740000000000006000830152602082019050919050565b6000613250601c836137c2565b91507f4d616e75666163747572657220616c7265616479206578697374732e000000006000830152602082019050919050565b600060a08301600083015161329b6000860182612fa0565b50602083015184820360208601526132b38282613091565b915050604083015184820360408601526132cd8282613091565b915050606083015184820360608601526132e78282613091565b915050608083015184820360808601526133018282613091565b9150508091505092915050565b60006020820190506133236000830184612faf565b92915050565b600060a08201905061333e6000830188612faf565b818103602083015261335081876130ca565b9050818103604083015261336481866130ca565b9050818103606083015261337881856130ca565b9050818103608083015261338c81846130ca565b90509695505050505050565b6000610140820190506133ae600083018d612faf565b81810360208301526133c0818c6130ca565b905081810360408301526133d4818b6130ca565b905081810360608301526133e8818a6130ca565b905081810360808301526133fc81896130ca565b905061340b60a0830188613082565b61341860c0830187613082565b61342560e0830186613082565b613433610100830185613082565b613441610120830184613082565b9b9a5050505050505050505050565b600061022082019050613466600083018e612faf565b8181036020830152613478818d6130ca565b9050818103604083015261348c818c6130ca565b905081810360608301526134a0818b6130ca565b905081810360808301526134b4818a6130ca565b90506134c360a0830189613082565b6134d060c0830188613082565b6134dd60e0830187613082565b6134eb610100830186613082565b6134f9610120830185613082565b61350761014083018461301c565b9c9b505050505050505050505050565b600060208201905081810360008301526135318184612fbe565b905092915050565b600060208201905061354e6000830184613082565b92915050565b6000602082019050818103600083015261356e81846130ca565b905092915050565b6000608082019050818103600083015261359081876130ca565b905081810360208301526135a481866130ca565b905081810360408301526135b881856130ca565b905081810360608301526135cc81846130ca565b905095945050505050565b600060208201905081810360008301526135f081613103565b9050919050565b6000602082019050818103600083015261361081613143565b9050919050565b6000602082019050818103600083015261363081613183565b9050919050565b60006020820190508181036000830152613650816131c3565b9050919050565b6000602082019050818103600083015261367081613203565b9050919050565b6000602082019050818103600083015261369081613243565b9050919050565b600060208201905081810360008301526136b18184613283565b905092915050565b6000604051905081810181811067ffffffffffffffff821117156136e0576136df6138be565b5b8060405250919050565b600067ffffffffffffffff821115613705576137046138be565b5b602082029050919050565b600067ffffffffffffffff82111561372b5761372a6138be565b5b601f19601f8301169050602081019050919050565b6000819050602082019050919050565b6000819050919050565b600081519050919050565b600060079050919050565b600081519050919050565b6000602082019050919050565b6000602082019050919050565b600082825260208201905092915050565b600081905092915050565b600082825260208201905092915050565b600082825260208201905092915050565b60006137de826137f1565b9050919050565b60008115159050919050565b600073ffffffffffffffffffffffffffffffffffffffff82169050919050565b6000819050919050565b82818337600083830152505050565b60005b8381101561384857808201518184015260208101905061382d565b83811115613857576000848401525b50505050565b6000600282049050600182168061387557607f821691505b602082108114156138895761388861388f565b5b50919050565b7f4e487b7100000000000000000000000000000000000000000000000000000000600052602260045260246000fd5b7f4e487b7100000000000000000000000000000000000000000000000000000000600052604160045260246000fd5b6000601f19601f8301169050919050565b613907816137d3565b811461391257600080fd5b50565b61391e816137e5565b811461392957600080fd5b50565b61393581613811565b811461394057600080fd5b5056fea264697066735822122013ece58c222316be4ed085bd61b25c30c2de63078f56785ceeb6bc5707643fd364736f6c63430008000033",
  "immutableReferences": {},
  "source": "// SPDX-License-Identifier: MIT\r\npragma solidity ^0.8.0;\r\n\r\ncontract RoleContract {\r\n\r\n    struct Retailer {\r\n        address ethAddress;\r\n        string name;\r\n        string physicalAddress;\r\n        string phoneNumber;\r\n        string email;\r\n    }\r\n\r\n    struct Manufacturer {\r\n        address ethAddress;\r\n        string name;\r\n        string addressLine;\r\n        string phoneNumber;\r\n        string email;\r\n    }\r\n\r\n    mapping(address => Manufacturer) public manufacturers;\r\n    address[] public manufacturerAddresses;\r\n    mapping(address => bool) public isManufacturer;\r\n\r\n    // Event when a manufacturer is added\r\n    event ManufacturerAdded(address indexed manufacturerAddress, string name);\r\n\r\n    // Function to add a manufacturer\r\n    function addManufacturer(\r\n        address _manufacturerAddress,\r\n        string memory _name,\r\n        string memory _addressLine,\r\n        string memory _phoneNumber,\r\n        string memory _email\r\n    ) public {\r\n        // Ensure the manufacturer is not already added\r\n        require(manufacturers[_manufacturerAddress].ethAddress == address(0), \"Manufacturer already exists.\");\r\n        \r\n        // Create and store the new manufacturer\r\n        manufacturers[_manufacturerAddress] = Manufacturer(_manufacturerAddress, _name, _addressLine, _phoneNumber, _email);\r\n        manufacturerAddresses.push(_manufacturerAddress);\r\n        isManufacturer[_manufacturerAddress] = true; // Track this as a manufacturer\r\n\r\n        // Emit the event\r\n        emit ManufacturerAdded(_manufacturerAddress, _name);\r\n    }\r\n\r\n    // Function to return all manufacturers' addresses\r\n    function getAllManufacturers() public view returns (address[] memory) {\r\n        return manufacturerAddresses;\r\n    }\r\n\r\n    // Function to get the details of a specific manufacturer by address\r\n    function getManufacturerDetails(address _manufacturer) public view returns (\r\n        string memory name, \r\n        string memory addressLine, \r\n        string memory phoneNumber, \r\n        string memory email\r\n    ) {\r\n        Manufacturer memory m = manufacturers[_manufacturer];\r\n        require(m.ethAddress != address(0), \"Manufacturer does not exist.\");\r\n\r\n        return (m.name, m.addressLine, m.phoneNumber, m.email);\r\n    }\r\n\r\n    // Function to check if an address is a registered manufacturer\r\n    function checkManufacturer(address _address) public view returns (bool) {\r\n        return isManufacturer[_address];\r\n    }\r\n\r\n\r\n    // Update Manufacturer Info\r\n    function updateManufacturer(\r\n        address _ethAddress,\r\n        string memory _name,\r\n        string memory _physicalAddress,\r\n        string memory _phoneNumber,\r\n        string memory _email\r\n    ) public {\r\n        require(manufacturers[_ethAddress].ethAddress != address(0), \"Manufacturer does not exist\");\r\n        Manufacturer storage m = manufacturers[_ethAddress];\r\n        m.name = _name;\r\n        m.addressLine = _physicalAddress;\r\n        m.phoneNumber = _phoneNumber;\r\n        m.email = _email;\r\n        emit ManufacturerUpdated(_ethAddress);\r\n    }\r\n\r\n // Get manufacturer details\r\n    function getManufacturer(address _manufacturer) public view returns (Manufacturer memory) {\r\n        Manufacturer memory m = manufacturers[_manufacturer];\r\n        require(m.ethAddress != address(0), \"Manufacturer does not exist\");  // Check if the manufacturer exists\r\n        return m;\r\n    }\r\n\r\n\r\n\r\n    struct Distributor {\r\n        address ethAddress;\r\n        string name;\r\n        string physicalAddress;\r\n        string phoneNumber;\r\n        string email;\r\n        bool isRefrigerated;\r\n        bool isFrozen;\r\n        bool isAmbient;\r\n        bool isPM;\r\n        bool isAM;\r\n        bool[7] workingDays; // Array to represent working days, 7 booleans for each day of the week\r\n    }\r\n\r\n    address public retailerAddress; // Only one retailer allowed\r\n    \r\n    mapping(address => Distributor) public distributors;\r\n    Retailer public retailer;\r\n\r\n    event RetailerAdded(address retailer);\r\n    event ManufacturerAdded(address manufacturer);\r\n    event DistributorAdded(address distributor);\r\n    event RetailerUpdated(address retailer);\r\n    event ManufacturerUpdated(address manufacturer);\r\n    event DistributorUpdated(address distributor);\r\n\r\n    // Function to add a retailer (only one retailer allowed)\r\n    function addRetailer(\r\n        address _ethAddress,\r\n        string memory _name,\r\n        string memory _physicalAddress,\r\n        string memory _phoneNumber,\r\n        string memory _email\r\n    ) public {\r\n        require(retailerAddress == address(0), \"Retailer already added\");\r\n        retailer = Retailer(_ethAddress, _name, _physicalAddress, _phoneNumber, _email);\r\n        retailerAddress = _ethAddress;\r\n        emit RetailerAdded(_ethAddress);\r\n    }\r\n    \r\n     function checkRetailer(address _address) public view returns (bool) {\r\n    return _address == retailer.ethAddress;  // Compare with the registered retailer's address\r\n}\r\n\r\n\r\n  \r\n\r\n    // Update Retailer Info\r\n    function updateRetailer(\r\n        string memory _name,\r\n        string memory _physicalAddress,\r\n        string memory _phoneNumber,\r\n        string memory _email\r\n    ) public {\r\n        require(retailerAddress != address(0), \"No retailer registered\");\r\n        retailer.name = _name;\r\n        retailer.physicalAddress = _physicalAddress;\r\n        retailer.phoneNumber = _phoneNumber;\r\n        retailer.email = _email;\r\n        emit RetailerUpdated(retailerAddress);\r\n    }\r\n\r\n  \r\n\r\n    // Function to add a distributor\r\n    function addDistributor(\r\n        address _ethAddress,\r\n        string memory _name,\r\n        string memory _physicalAddress,\r\n        string memory _phoneNumber,\r\n        string memory _email,\r\n        bool _isRefrigerated,\r\n        bool _isFrozen,\r\n        bool _isAmbient,\r\n        bool _isPM,\r\n        bool _isAM,\r\n        bool[7] memory _workingDays\r\n    ) public {\r\n        distributors[_ethAddress] = Distributor(\r\n            _ethAddress, \r\n            _name, \r\n            _physicalAddress, \r\n            _phoneNumber, \r\n            _email, \r\n            _isRefrigerated, \r\n            _isFrozen, \r\n            _isAmbient, \r\n            _isPM, \r\n            _isAM,\r\n            _workingDays\r\n        );\r\n        emit DistributorAdded(_ethAddress);\r\n    }\r\n\r\n    // Update Distributor Info\r\n    function updateDistributor(\r\n        address _ethAddress,\r\n        string memory _name,\r\n        string memory _physicalAddress,\r\n        string memory _phoneNumber,\r\n        string memory _email,\r\n        bool _isRefrigerated,\r\n        bool _isFrozen,\r\n        bool _isAmbient,\r\n        bool _isPM,\r\n        bool _isAM,\r\n        bool[7] memory _workingDays\r\n    ) public {\r\n        require(distributors[_ethAddress].ethAddress != address(0), \"Distributor does not exist\");\r\n        Distributor storage d = distributors[_ethAddress];\r\n        d.name = _name;\r\n        d.physicalAddress = _physicalAddress;\r\n        d.phoneNumber = _phoneNumber;\r\n        d.email = _email;\r\n        d.isRefrigerated = _isRefrigerated;\r\n        d.isFrozen = _isFrozen;\r\n        d.isAmbient = _isAmbient;\r\n        d.isPM = _isPM;\r\n        d.isAM = _isAM;\r\n        d.workingDays = _workingDays;\r\n        emit DistributorUpdated(_ethAddress);\r\n    }\r\n\r\n    // Function to get retailer details\r\n    function getRetailer() public view returns (\r\n        address ethAddress,\r\n        string memory name,\r\n        string memory physicalAddress,\r\n        string memory phoneNumber,\r\n        string memory email\r\n    ) {\r\n        require(retailerAddress != address(0), \"No retailer registered\");\r\n        return (retailer.ethAddress, retailer.name, retailer.physicalAddress, retailer.phoneNumber, retailer.email);\r\n    }\r\n\r\n   \r\n\r\n    // Function to get distributor details\r\n    function getDistributor(address _distributor) public view returns (\r\n        address ethAddress,\r\n        string memory name,\r\n        string memory physicalAddress,\r\n        string memory phoneNumber,\r\n        string memory email,\r\n        bool isRefrigerated,\r\n        bool isFrozen,\r\n        bool isAmbient,\r\n        bool isPM,\r\n        bool isAM,\r\n        bool[7] memory workingDays\r\n    ) {\r\n        Distributor memory d = distributors[_distributor];\r\n        require(d.ethAddress != address(0), \"Distributor does not exist\");\r\n        return (\r\n            d.ethAddress, \r\n            d.name, \r\n            d.physicalAddress, \r\n            d.phoneNumber, \r\n            d.email, \r\n            d.isRefrigerated, \r\n            d.isFrozen, \r\n            d.isAmbient, \r\n            d.isPM, \r\n            d.isAM,\r\n            d.workingDays\r\n        );\r\n    }\r\n}\r\n",
  "sourcePath": "C:\\Users\\deem1\\Desktop\\farm-to-fork sprint 1\\contracts\\RoleContract.sol",
  "compiler": {
    "name": "solc",
    "version": "0.8.0+commit.c7dfd78e.Emscripten.clang"
  },
  "schemaVersion": "3.4.16",
  "updatedAt": "2024-10-26T15:56:27.763Z",
  "networkType": "ethereum",
  "devdoc": {
    "kind": "dev",
    "methods": {},
    "version": 1
  },
  "userdoc": {
    "kind": "user",
    "methods": {},
    "version": 1
  }
}